LX51 LINKER/LOCATER V4.66.93.0                                                          04/07/2024  09:15:35  PAGE 1


LX51 LINKER/LOCATER V4.66.93.0, INVOKED BY:
D:\KEIL_MDK\C51\BIN\LX51.EXE .\output\uart.obj, .\output\main.obj, .\output\delay.obj, .\output\system_clock.obj, .\outp
>> ut\flash.obj, .\output\STARTUP.obj, .\output\glh_pwm.obj, .\output\glh_sys_tick.obj, .\output\glh_watchdog.obj, .\out
>> put\glh_flash.obj, .\output\glh_lt8920l.obj, .\output\glh_uart.obj, .\output\glh_over_current_protect.obj, .\output\g
>> lh_app_process.obj, .\output\glh_led_mode.obj, .\output\glh_rgb.obj TO .\output\ca51f003 PRINT (.\lst\ca51f003.map) R
>> EMOVEUNUSED CLASSES (XDATA (X:0X0-X:0X3FF), HDATA (X:0X0-X:0X3FF), CODE (C:0X0-C:0X47FF), CONST (C:0X0-C:0X47FF), ECO
>> DE (C:0X0-C:0X47FF), HCONST (C:0X0-C:0X47FF))


CPU MODE:     8051 MODE
MEMORY MODEL: LARGE WITH FLOATING POINT ARITHMETIC


INPUT MODULES INCLUDED:
  .\output\uart.obj (UART)
         COMMENT TYPE 0: C51 V9.59.0.0
  .\output\main.obj (MAIN)
         COMMENT TYPE 0: C51 V9.59.0.0
  .\output\delay.obj (DELAY)
         COMMENT TYPE 0: C51 V9.59.0.0
  .\output\system_clock.obj (SYSTEM_CLOCK)
         COMMENT TYPE 0: C51 V9.59.0.0
  .\output\flash.obj (FLASH)
         COMMENT TYPE 0: C51 V9.59.0.0
  .\output\STARTUP.obj (?C_STARTUP)
         COMMENT TYPE 1: A51 / ASM51 Assembler
  .\output\glh_pwm.obj (GLH_PWM)
         COMMENT TYPE 0: C51 V9.59.0.0
  .\output\glh_sys_tick.obj (GLH_SYS_TICK)
         COMMENT TYPE 0: C51 V9.59.0.0
  .\output\glh_watchdog.obj (GLH_WATCHDOG)
         COMMENT TYPE 0: C51 V9.59.0.0
  .\output\glh_flash.obj (GLH_FLASH)
         COMMENT TYPE 0: C51 V9.59.0.0
  .\output\glh_lt8920l.obj (GLH_LT8920L)
         COMMENT TYPE 0: C51 V9.59.0.0
  .\output\glh_uart.obj (GLH_UART)
         COMMENT TYPE 0: C51 V9.59.0.0
  .\output\glh_over_current_protect.obj (GLH_OVER_CURRENT_PROTECT)
         COMMENT TYPE 0: C51 V9.59.0.0
  .\output\glh_app_process.obj (GLH_APP_PROCESS)
         COMMENT TYPE 0: C51 V9.59.0.0
  .\output\glh_led_mode.obj (GLH_LED_MODE)
         COMMENT TYPE 0: C51 V9.59.0.0
  .\output\glh_rgb.obj (GLH_RGB)
         COMMENT TYPE 0: C51 V9.59.0.0
  D:\KEIL_MDK\C51\LIB\C51FPL.LIB (?C?FPADD)
         COMMENT TYPE 1: A51 / ASM51 Assembler
  D:\KEIL_MDK\C51\LIB\C51FPL.LIB (?C?FPMUL)
         COMMENT TYPE 1: A51 / ASM51 Assembler
  D:\KEIL_MDK\C51\LIB\C51FPL.LIB (?C?FPDIV)
         COMMENT TYPE 1: A51 / ASM51 Assembler
  D:\KEIL_MDK\C51\LIB\C51FPL.LIB (?C?FPCMP)
         COMMENT TYPE 1: A51 / ASM51 Assembler
  D:\KEIL_MDK\C51\LIB\C51FPL.LIB (?C?FCAST)
         COMMENT TYPE 1: A51 / ASM51 Assembler
  D:\KEIL_MDK\C51\LIB\C51FPL.LIB (?C?CASTF)
         COMMENT TYPE 1: A51 / ASM51 Assembler
  D:\KEIL_MDK\C51\LIB\C51FPL.LIB (VSPRINTF)
         COMMENT TYPE 1: A51 / ASM51 Assembler
  D:\KEIL_MDK\C51\LIB\C51FPL.LIB (?C?FPGETOPN)
         COMMENT TYPE 1: A51 / ASM51 Assembler
  D:\KEIL_MDK\C51\LIB\C51FPL.LIB (PRINTF)
         COMMENT TYPE 1: A51 / ASM51 Assembler
  D:\KEIL_MDK\C51\LIB\C51FPL.LIB (?C?FPROUND)
         COMMENT TYPE 1: A51 / ASM51 Assembler
LX51 LINKER/LOCATER V4.66.93.0                                                        04/07/2024  09:15:35  PAGE 2


  D:\KEIL_MDK\C51\LIB\C51FPL.LIB (?C?FPCONVERT)
         COMMENT TYPE 1: A51 / ASM51 Assembler
  D:\KEIL_MDK\C51\LIB\C51FPL.LIB (?C?FTNPWR)
         COMMENT TYPE 1: A51 / ASM51 Assembler
  D:\KEIL_MDK\C51\LIB\C51L.LIB (?C_INIT)
         COMMENT TYPE 1: A51 / ASM51 Assembler
  D:\KEIL_MDK\C51\LIB\C51L.LIB (?C?COPY)
         COMMENT TYPE 1: A51 / ASM51 Assembler
  D:\KEIL_MDK\C51\LIB\C51L.LIB (?C?CLDPTR)
         COMMENT TYPE 1: A51 / ASM51 Assembler
  D:\KEIL_MDK\C51\LIB\C51L.LIB (?C?CLDOPTR)
         COMMENT TYPE 1: A51 / ASM51 Assembler
  D:\KEIL_MDK\C51\LIB\C51L.LIB (?C?CSTPTR)
         COMMENT TYPE 1: A51 / ASM51 Assembler
  D:\KEIL_MDK\C51\LIB\C51L.LIB (?C?CSTOPTR)
         COMMENT TYPE 1: A51 / ASM51 Assembler
  D:\KEIL_MDK\C51\LIB\C51L.LIB (?C?IMUL)
         COMMENT TYPE 1: A51 / ASM51 Assembler
  D:\KEIL_MDK\C51\LIB\C51L.LIB (?C?UIDIV)
         COMMENT TYPE 1: A51 / ASM51 Assembler
  D:\KEIL_MDK\C51\LIB\C51L.LIB (?C?ILDIX)
         COMMENT TYPE 1: A51 / ASM51 Assembler
  D:\KEIL_MDK\C51\LIB\C51L.LIB (?C?ISTPTR)
         COMMENT TYPE 1: A51 / ASM51 Assembler
  D:\KEIL_MDK\C51\LIB\C51L.LIB (?C?LMUL)
         COMMENT TYPE 1: A51 / ASM51 Assembler
  D:\KEIL_MDK\C51\LIB\C51L.LIB (?C?ULDIV)
         COMMENT TYPE 1: A51 / ASM51 Assembler
  D:\KEIL_MDK\C51\LIB\C51L.LIB (?C?LNEG)
         COMMENT TYPE 1: A51 / ASM51 Assembler
  D:\KEIL_MDK\C51\LIB\C51L.LIB (?C?ULCMP)
         COMMENT TYPE 1: A51 / ASM51 Assembler
  D:\KEIL_MDK\C51\LIB\C51L.LIB (?C?ULSHR)
         COMMENT TYPE 1: A51 / ASM51 Assembler
  D:\KEIL_MDK\C51\LIB\C51L.LIB (?C?LSHL)
         COMMENT TYPE 1: A51 / ASM51 Assembler
  D:\KEIL_MDK\C51\LIB\C51L.LIB (?C?LLDCODE)
         COMMENT TYPE 1: A51 / ASM51 Assembler
  D:\KEIL_MDK\C51\LIB\C51L.LIB (?C?LSTXDATA)
         COMMENT TYPE 1: A51 / ASM51 Assembler
  D:\KEIL_MDK\C51\LIB\C51L.LIB (?C?LSTKXDATA)
         COMMENT TYPE 1: A51 / ASM51 Assembler
  D:\KEIL_MDK\C51\LIB\C51L.LIB (?C?PLDIXDATA)
         COMMENT TYPE 1: A51 / ASM51 Assembler
  D:\KEIL_MDK\C51\LIB\C51L.LIB (?C?PSTXDATA)
         COMMENT TYPE 1: A51 / ASM51 Assembler
  D:\KEIL_MDK\C51\LIB\C51L.LIB (?C?CCASE)
         COMMENT TYPE 1: A51 / ASM51 Assembler
  D:\KEIL_MDK\C51\LIB\C51L.LIB (?C?ICALL)
         COMMENT TYPE 1: A51 / ASM51 Assembler
  D:\KEIL_MDK\C51\LIB\C51L.LIB (?C?LIMUL)
         COMMENT TYPE 1: A51 / ASM51 Assembler
  D:\KEIL_MDK\C51\LIB\C51L.LIB (PUTCHAR)
         COMMENT TYPE 1: A51 / ASM51 Assembler
  D:\KEIL_MDK\C51\LIB\C51L.LIB (?C?MEMCMP)
         COMMENT TYPE 1: A51 / ASM51 Assembler
  D:\KEIL_MDK\C51\LIB\C51L.LIB (?C?MEMSET)
         COMMENT TYPE 1: A51 / ASM51 Assembler


ACTIVE MEMORY CLASSES OF MODULE:  .\output\ca51f003 (UART)

BASE        START       END         USED      MEMORY CLASS
==========================================================
X:000000H   X:000000H   X:0003FFH   0003EBH   XDATA
LX51 LINKER/LOCATER V4.66.93.0                                                        04/07/2024  09:15:35  PAGE 3


X:000000H   X:000000H   X:0003FFH             HDATA
C:000000H   C:000000H   C:0047FFH   003E77H   CODE
C:000000H   C:000000H   C:0047FFH   00012FH   CONST
C:000000H   C:000000H   C:0047FFH             ECODE
I:800000H   C:000000H   C:0047FFH             HCONST
I:000020H.0 I:000020H.0 I:00002FH.7 000000H.1 BIT
I:000000H   I:000000H   I:0000FFH   000001H   IDATA
I:000000H   I:000000H   I:00007FH   00000AH   DATA


MEMORY MAP OF MODULE:  .\output\ca51f003 (UART)


START     STOP      LENGTH    ALIGN  RELOC    MEMORY CLASS   SEGMENT NAME
=========================================================================

* * * * * * * * * * *   D A T A   M E M O R Y   * * * * * * * * * * * * *
000000H   000007H   000008H   ---    AT..     DATA           "REG BANK 0"
000008H   000009H   000002H   BYTE   UNIT     DATA           ?DT?GLH_UART
00000AH.0 00001FH.7 000016H.0 ---    ---      **GAP**
000020H.0 000020H.0 000000H.1 BIT    UNIT     BIT            ?BI?UART
000020H.1 000020H   000000H.7 ---    ---      **GAP**
000021H   000021H   000001H   BYTE   UNIT     IDATA          ?STACK

* * * * * * * * * * *   C O D E   M E M O R Y   * * * * * * * * * * * * *
000000H   000002H   000003H   ---    OFFS..   CODE           ?CO??C_STARTUP?0
000003H   000005H   000003H   BYTE   OFFS..   CODE           ?GLH_OVER_CURRENT_PROTECT?00003
000006H   00000AH   000005H   BYTE   UNIT     CODE           ?PR?GLHRGB_INIT?GLH_RGB
00000BH   00000DH   000003H   BYTE   OFFS..   CODE           ?GLH_SYS_TICK?0000B
00000EH   000032H   000025H   BYTE   UNIT     CODE           ?PR?GLHAPS_INIT?GLH_APP_PROCESS
000033H   000035H   000003H   BYTE   OFFS..   CODE           ?GLH_UART?00033
000036H   000042H   00000DH   BYTE   UNIT     CODE           ?PR?GLHLM_GETMODEISCOMPLETE?GLH_LED_MODE
000043H   000045H   000003H   BYTE   OFFS..   CODE           ?UART?00043
000046H   000BD7H   000B92H   BYTE   UNIT     CODE           ?C?LIB_CODE
000BD8H   001109H   000532H   BYTE   UNIT     CODE           ?PR?_IRF24GREMOTERDATAHANDLE?GLH_APP_PROCESS
00110AH   0014C4H   0003BBH   BYTE   UNIT     CODE           ?C_INITSEG
0014C5H   001846H   000382H   BYTE   UNIT     CODE           ?PR?GLH_LED_MODE
001847H   001B93H   00034DH   BYTE   UNIT     CODE           ?PR?GLH_APP_PROCESS
001B94H   001DF5H   000262H   BYTE   UNIT     CODE           ?PR?_IRF24GSYNCDATAHANDLE?GLH_APP_PROCESS
001DF6H   001FFBH   000206H   BYTE   UNIT     CODE           ?PR?_ISLECTSCENCE?GLH_APP_PROCESS
001FFCH   0021D4H   0001D9H   BYTE   UNIT     CODE           ?PR?IFADE?GLH_LED_MODE
0021D5H   002382H   0001AEH   BYTE   UNIT     CODE           ?PR?MODECOMEPLETESYNCSEND?GLH_APP_PROCESS
002383H   002508H   000186H   BYTE   UNIT     CODE           ?PR?IONEBREATHANDTHREEJUMP?GLH_LED_MODE
002509H   00268DH   000185H   BYTE   UNIT     CODE           ?PR?ISTATIC?GLH_LED_MODE
00268EH   0027D0H   000143H   BYTE   UNIT     CODE           ?PR?_ISAVESCENCE?GLH_APP_PROCESS
0027D1H   002901H   000131H   BYTE   UNIT     CODE           ?PR?_ISETTIMINGPOWEROFF?GLH_APP_PROCESS
002902H   002A15H   000114H   BYTE   UNIT     CODE           ?PR?IBNFADEMAINTHREAD?GLH_LED_MODE
002A16H   002B09H   0000F4H   BYTE   UNIT     CODE           ?PR?_IRGBFLASH?GLH_APP_PROCESS
002B0AH   002BD7H   0000CEH   BYTE   UNIT     CODE           ?PR?_GLHLM_SETSTEP?GLH_LED_MODE
002BD8H   002C99H   0000C2H   BYTE   UNIT     CODE           ?PR?IRF24GRECEIVEMAINTHREAD?GLH_APP_PROCESS
002C9AH   002D4CH   0000B3H   BYTE   UNIT     CODE           ?PR?IBTH?GLH_LED_MODE
002D4DH   002DEEH   0000A2H   BYTE   UNIT     CODE           ?PR?RF24G_ISWORKINGNOMALCHECKMAINTHREAD?GLH_LT8920L
002DEFH   002E87H   000099H   BYTE   UNIT     CODE           ?PR?_GLHPWM_SET?GLH_PWM
002E88H   002F1EH   000097H   BYTE   UNIT     CODE           ?PR?_GLHPWM_INIT?GLH_PWM
002F1FH   002FB5H   000097H   BYTE   UNIT     CODE           ?PR?_DATADECRYPTIONPROCESSING?GLH_APP_PROCESS
002FB6H   003041H   00008CH   BYTE   UNIT     CODE           ?C_C51STARTUP
003042H   0030CCH   00008BH   BYTE   UNIT     CODE           ?PR?IFLASH?GLH_LED_MODE
0030CDH   00314BH   00007FH   BYTE   UNIT     CODE           ?PR?IONOFFFADEMAINTHREAD?GLH_LED_MODE
00314CH   0031CAH   00007FH   BYTE   UNIT     CODE           ?PR?IJUMP?GLH_LED_MODE
0031CBH   003245H   00007BH   BYTE   UNIT     CODE           ?PR?RF24G_INIT?GLH_LT8920L
003246H   0032BDH   000078H   BYTE   UNIT     CODE           ?PR?GLH_LT8920L
0032BEH   003330H   000073H   BYTE   UNIT     CODE           ?PR?_RF24G_TX?GLH_LT8920L
003331H   00339EH   00006EH   BYTE   UNIT     CODE           ?PR?GLH_FLASH
00339FH   003409H   00006BH   BYTE   UNIT     CODE           ?PR?_GLHFLASH_ERASEBLOCK?GLH_FLASH
00340AH   003471H   000068H   BYTE   UNIT     CODE           ?PR?UART2_ISR?UART
LX51 LINKER/LOCATER V4.66.93.0                                                        04/07/2024  09:15:35  PAGE 4


003472H   0034D8H   000067H   BYTE   UNIT     CODE           ?PR?_IEXCUTESCENCE?GLH_APP_PROCESS
0034D9H   00353BH   000063H   BYTE   UNIT     CODE           ?PR?_RF24G_READRXDATA?GLH_LT8920L
00353CH   00359EH   000063H   BYTE   UNIT     CODE           ?PR?IRESETSCCONFIG?GLH_APP_PROCESS
00359FH   0035F5H   000057H   BYTE   UNIT     CODE           ?PR?_GLHRGB_SETCOLOR?GLH_RGB
0035F6H   003646H   000051H   BYTE   UNIT     CODE           ?PR?TIMER0_ISR?GLH_SYS_TICK
003647H   003697H   000051H   BYTE   UNIT     CODE           ?PR?_RF24G_WRITEREG?GLH_LT8920L
003698H   0036E1H   00004AH   BYTE   UNIT     CODE           ?PR?ISAVESCCONFIGMAINTHREAD?GLH_APP_PROCESS
0036E2H   003727H   000046H   BYTE   UNIT     CODE           ?PR?GLHAPS_MAINTHREAD?GLH_APP_PROCESS
003728H   00376BH   000044H   BYTE   UNIT     CODE           ?PR?_GLHFLASH_WRITEBYTES?GLH_FLASH
00376CH   0037ADH   000042H   BYTE   UNIT     CODE           ?PR?INT0_ISR?GLH_OVER_CURRENT_PROTECT
0037AEH   0037EDH   000040H   BYTE   UNIT     CODE           ?PR?_GLHLM_STATICMODE?GLH_LED_MODE
0037EEH   00382BH   00003EH   BYTE   UNIT     CODE           ?PR?_DATA_AREA_MASS_WRITE?FLASH
00382CH   003869H   00003EH   BYTE   UNIT     CODE           ?PR?IREFRESHASCONFIG?GLH_APP_PROCESS
00386AH   0038A7H   00003EH   BYTE   UNIT     CODE           ?PR?_GLHRGB_SETBN?GLH_RGB
0038A8H   0038E3H   00003CH   BYTE   UNIT     CODE           ?PR?GLHOCP_MAINTHREAD?GLH_OVER_CURRENT_PROTECT
0038E4H   00391FH   00003CH   BYTE   UNIT     CODE           ?PR?_GLHRGB_SETONOFFVALUE?GLH_RGB
003920H   00395AH   00003BH   BYTE   UNIT     CODE           ?PR?_DATA_AREA_MASS_READ?FLASH
00395BH   003995H   00003BH   BYTE   UNIT     CODE           ?PR?_IBNSET?GLH_APP_PROCESS
003996H   0039CFH   00003AH   BYTE   UNIT     CODE           ?PR?FLASH
0039D0H   003A05H   000036H   BYTE   UNIT     CODE           ?PR?GLH_PWM
003A06H   003A3AH   000035H   BYTE   UNIT     CODE           ?PR?_GLHLM_GETCURRRGBW?GLH_LED_MODE
003A3BH   003A6DH   000033H   BYTE   UNIT     CODE           ?PR?_GLHLM_SETCOLORBUFF?GLH_LED_MODE
003A6EH   003A9FH   000032H   BYTE   UNIT     CODE           ?PR?IINITSCCONFIG?GLH_APP_PROCESS
003AA0H   003ACDH   00002EH   BYTE   UNIT     CODE           ?PR?GLHOCP_INIT?GLH_OVER_CURRENT_PROTECT
003ACEH   003AF7H   00002AH   BYTE   UNIT     CODE           ?PR?UART1_ISR?GLH_UART
003AF8H   003B21H   00002AH   BYTE   UNIT     CODE           ?PR?GLH_RGB
003B22H   003B48H   000027H   BYTE   UNIT     CODE           ?PR?UART
003B49H   003B6FH   000027H   BYTE   UNIT     CODE           ?PR?_GLHLM_JUMPMODE?GLH_LED_MODE
003B70H   003B95H   000026H   BYTE   UNIT     CODE           ?PR?_RF24G_ENTERRXMODE?GLH_LT8920L
003B96H   003BBAH   000025H   BYTE   UNIT     CODE           ?PR?_GLHLM_FADEMODE?GLH_LED_MODE
003BBBH   003BDFH   000025H   BYTE   UNIT     CODE           ?PR?_GLHLM_SETBN?GLH_LED_MODE
003BE0H   003C03H   000024H   BYTE   UNIT     CODE           ?PR?_ISPIWRITEBYTE?GLH_LT8920L
003C04H   003C27H   000024H   BYTE   UNIT     CODE           ?PR?ITIMINGPOWEROFFMAINTHREAD?GLH_APP_PROCESS
003C28H   003C49H   000022H   BYTE   UNIT     CODE           ?PR?_GLHLM_FLASHMODE?GLH_LED_MODE
003C4AH   003C6AH   000021H   BYTE   UNIT     CODE           ?PR?ISPIREADBYTE?GLH_LT8920L
003C6BH   003C8BH   000021H   BYTE   UNIT     CODE           ?PR?RF24G_CHANGE_0X38?GLH_LT8920L
003C8CH   003CABH   000020H   BYTE   UNIT     CODE           ?PR?_DELAY_MS?DELAY
003CACH   003CC9H   00001EH   BYTE   UNIT     CODE           ?PR?_DATA_AREA_SECTOR_ERASE?FLASH
003CCAH   003CE6H   00001DH   BYTE   UNIT     CODE           ?PR?IRESETPARAMS?GLH_LED_MODE
003CE7H   003D02H   00001CH   BYTE   UNIT     CODE           ?PR?_GLHLM_ONEBTHANDTHREEJUMPMODE?GLH_LED_MODE
003D03H   003D1DH   00001BH   BYTE   UNIT     CODE           ?PR?IRF24G_REINIT?GLH_LT8920L
003D1EH   003D37H   00001AH   BYTE   UNIT     CODE           ?PR?_DELAY_50US?DELAY
003D38H   003D51H   00001AH   BYTE   UNIT     CODE           ?PR?_MYCROL?GLH_APP_PROCESS
003D52H   003D6BH   00001AH   BYTE   UNIT     CODE           ?PR?GLHLM_RENDERPROC?GLH_LED_MODE
003D6CH   003D85H   00001AH   BYTE   UNIT     CODE           ?PR?_GLHLM_BREATHMODE?GLH_LED_MODE
003D86H   003D9EH   000019H   BYTE   UNIT     CODE           ?PR?_RF24G_READREG?GLH_LT8920L
003D9FH   003DB7H   000019H   BYTE   UNIT     CODE           ?PR?ICHECKISCOMPLETE?GLH_LED_MODE
003DB8H   003DCFH   000018H   BYTE   UNIT     CODE           ?PR?_IWRITEBYTE?GLH_UART
003DD0H   003DE6H   000017H   BYTE   UNIT     CODE           ?PR?RF24G_ISTXORRXCOMPLETE?GLH_LT8920L
003DE7H   003DF8H   000012H   BYTE   UNIT     CODE           ?PR?ITIMERINIT?GLH_SYS_TICK
003DF9H   003E0AH   000012H   BYTE   UNIT     CODE           ?PR?_GLHFLASH_READBYTES?GLH_FLASH
003E0BH   003E1CH   000012H   BYTE   UNIT     CODE           ?PR?_GLHLM_SETCURRRGBW?GLH_LED_MODE
003E1DH   003E2AH   00000EH   BYTE   UNIT     CODE           ?PR?GLH_OVER_CURRENT_PROTECT
003E2BH   003E34H   00000AH   BYTE   UNIT     CODE           ?PR?GLHWD_INIT?GLH_WATCHDOG
003E35H   003E3CH   000008H   BYTE   UNIT     CODE           ?PR?MAIN?MAIN
003E3DH   003E43H   000007H   BYTE   UNIT     CODE           ?PR?GLHFLASH_INIT?GLH_FLASH
003E44H   003E4AH   000007H   BYTE   UNIT     CODE           ?PR?_GLHLM_SETSPEED?GLH_LED_MODE
003E4BH   003E50H   000006H   BYTE   UNIT     CODE           ?PR?ITIMINGPOWEROFFCANCEL?GLH_APP_PROCESS
003E51H   003E56H   000006H   BYTE   UNIT     CODE           ?PR?GLHLM_INIT?GLH_LED_MODE
003E57H   003E5CH   000006H   BYTE   UNIT     CODE           ?PR?_GLHLM_SETSWITCHSTATUS?GLH_LED_MODE
003E5DH   003E62H   000006H   BYTE   UNIT     CODE           ?PR?GLHLM_GETCURRCOLORINDEX?GLH_LED_MODE
003E63H   003E68H   000006H   BYTE   UNIT     CODE           ?PR?_GLHLM_SETCURRCOLORINDEX?GLH_LED_MODE
003E69H   003E6EH   000006H   BYTE   UNIT     CODE           ?PR?GLHLM_GETSTEP?GLH_LED_MODE
003E6FH   003E72H   000004H   BYTE   UNIT     CODE           ?PR?GLHWD_CLEAR?GLH_WATCHDOG
003E73H   003E75H   000003H   BYTE   UNIT     CODE           ?PR?GLHST_INIT?GLH_SYS_TICK
LX51 LINKER/LOCATER V4.66.93.0                                                        04/07/2024  09:15:35  PAGE 5


003E76H   003E76H   000001H   BYTE   UNIT     CODE           ?PR?IRF24GCHANNELCHANGEMAINTHREAD?GLH_APP_PROCESS
003E77H   003F8EH   000118H   BYTE   UNIT     CONST          ?CO?GLH_LED_MODE
003F8FH   003FA5H   000017H   BYTE   UNIT     CONST          ?CO?GLH_APP_PROCESS

* * * * * * * * * * *  X D A T A   M E M O R Y  * * * * * * * * * * * * *
000000H   0001FFH   000200H   BYTE   UNIT     XDATA          ?XD?GLH_APP_PROCESS
000200H   00027BH   00007CH   BYTE   UNIT     XDATA          ?XD?UART
00027CH   0002DFH   000064H   BYTE   UNIT     XDATA          ?XD?GLH_UART
0002E0H   000334H   000055H   BYTE   UNIT     XDATA          ?XD?GLH_LED_MODE
000335H   000369H   000035H   BYTE   UNIT     XDATA          _XDATA_GROUP_
00036AH   000371H   000008H   BYTE   UNIT     XDATA          ?XD?GLH_RGB
000372H   000378H   000007H   BYTE   UNIT     XDATA          ?XD?GLH_LT8920L
000379H   00037DH   000005H   BYTE   UNIT     XDATA          ?XD?GLH_OVER_CURRENT_PROTECT
00037EH   000381H   000004H   BYTE   UNIT     XDATA          ?XD?GLH_SYS_TICK
000382H   007FFFH   007C7EH   ---    ---      **GAP**
008000H   008000H   000001H   BYTE   OFFS..   XDATA          ?XD?MAIN?75
008001H   008001H   000001H   BYTE   OFFS..   XDATA          ?XD?MAIN?79
008002H   008002H   000001H   BYTE   OFFS..   XDATA          ?XD?MAIN?84
008003H   008003H   000001H   BYTE   OFFS..   XDATA          ?XD?MAIN?90
008004H   008004H   000001H   BYTE   OFFS..   XDATA          ?XD?MAIN?94
008005H   008005H   000001H   BYTE   OFFS..   XDATA          ?XD?MAIN?98
008006H   008006H   000001H   BYTE   OFFS..   XDATA          ?XD?MAIN?101
008007H   008007H   000001H   BYTE   OFFS..   XDATA          ?XD?MAIN?104
008008H   008008H   000001H   BYTE   OFFS..   XDATA          ?XD?MAIN?78
008009H   008009H   000001H   BYTE   OFFS..   XDATA          ?XD?MAIN?83
00800AH   00800AH   000001H   BYTE   OFFS..   XDATA          ?XD?MAIN?89
00800BH   00800BH   000001H   BYTE   OFFS..   XDATA          ?XD?MAIN?93
00800CH   00800CH   000001H   BYTE   OFFS..   XDATA          ?XD?MAIN?97
00800DH   00800DH   000001H   BYTE   OFFS..   XDATA          ?XD?MAIN?100
00800EH   00800EH   000001H   BYTE   OFFS..   XDATA          ?XD?MAIN?103
00800FH   00800FH   000001H   BYTE   OFFS..   XDATA          ?XD?MAIN?1
008010H   008010H   000001H   BYTE   OFFS..   XDATA          ?XD?MAIN?82
008011H   008017H   000007H   ---    ---      **GAP**
008018H   008018H   000001H   BYTE   OFFS..   XDATA          ?XD?MAIN?88
008019H   00807FH   000067H   ---    ---      **GAP**
008080H   008080H   000001H   BYTE   OFFS..   XDATA          ?XD?MAIN?61
008081H   008081H   000001H   BYTE   OFFS..   XDATA          ?XD?MAIN?66
008082H   008082H   000001H   BYTE   OFFS..   XDATA          ?XD?MAIN?62
008083H   008083H   000001H   BYTE   OFFS..   XDATA          ?XD?MAIN?31
008084H   008084H   000001H   BYTE   OFFS..   XDATA          ?XD?MAIN?26
008085H   008085H   000001H   BYTE   OFFS..   XDATA          ?XD?MAIN?33
008086H   008087H   000002H   ---    ---      **GAP**
008088H   008088H   000001H   BYTE   OFFS..   XDATA          ?XD?MAIN?22
008089H   008089H   000001H   BYTE   OFFS..   XDATA          ?XD?MAIN?21
00808AH   00808AH   000001H   BYTE   OFFS..   XDATA          ?XD?MAIN?32
00808BH   00808BH   000001H   BYTE   OFFS..   XDATA          ?XD?MAIN?30
00808CH   00808CH   000001H   BYTE   OFFS..   XDATA          ?XD?MAIN?29
00808DH   00808DH   000001H   BYTE   OFFS..   XDATA          ?XD?MAIN?24
00808EH   00808EH   000001H   ---    ---      **GAP**
00808FH   00808FH   000001H   BYTE   OFFS..   XDATA          ?XD?MAIN?57
008090H   008093H   000004H   ---    ---      **GAP**
008094H   008094H   000001H   BYTE   OFFS..   XDATA          ?XD?MAIN?51
008095H   008097H   000003H   ---    ---      **GAP**
008098H   008098H   000001H   BYTE   OFFS..   XDATA          ?XD?MAIN?18
008099H   008099H   000001H   BYTE   OFFS..   XDATA          ?XD?MAIN?13
00809AH   00809AH   000001H   BYTE   OFFS..   XDATA          ?XD?MAIN?37
00809BH   00809BH   000001H   BYTE   OFFS..   XDATA          ?XD?MAIN?46
00809CH   00809CH   000001H   BYTE   OFFS..   XDATA          ?XD?MAIN?45
00809DH   00809DH   000001H   BYTE   OFFS..   XDATA          ?XD?MAIN?96
00809EH   00809FH   000002H   ---    ---      **GAP**
0080A0H   0080A0H   000001H   BYTE   OFFS..   XDATA          ?XD?MAIN?34
0080A1H   0080A1H   000001H   BYTE   OFFS..   XDATA          ?XD?MAIN?87
0080A2H   0080A2H   000001H   BYTE   OFFS..   XDATA          ?XD?MAIN?53
0080A3H   0080A3H   000001H   BYTE   OFFS..   XDATA          ?XD?MAIN?56
0080A4H   0080A4H   000001H   BYTE   OFFS..   XDATA          ?XD?MAIN?54
LX51 LINKER/LOCATER V4.66.93.0                                                        04/07/2024  09:15:35  PAGE 6


0080A5H   0080A7H   000003H   ---    ---      **GAP**
0080A8H   0080A8H   000001H   BYTE   OFFS..   XDATA          ?XD?MAIN?2
0080A9H   0080A9H   000001H   BYTE   OFFS..   XDATA          ?XD?MAIN?17
0080AAH   0080AFH   000006H   ---    ---      **GAP**
0080B0H   0080B0H   000001H   BYTE   OFFS..   XDATA          ?XD?MAIN?49
0080B1H   0080B1H   000001H   BYTE   OFFS..   XDATA          ?XD?MAIN?44
0080B2H   0080B2H   000001H   BYTE   OFFS..   XDATA          ?XD?MAIN?52
0080B3H   0080B3H   000001H   BYTE   OFFS..   XDATA          ?XD?MAIN?60
0080B4H   0080B7H   000004H   ---    ---      **GAP**
0080B8H   0080B8H   000001H   BYTE   OFFS..   XDATA          ?XD?MAIN?36
0080B9H   0080B9H   000001H   BYTE   OFFS..   XDATA          ?XD?MAIN?38
0080BAH   0080BFH   000006H   ---    ---      **GAP**
0080C0H   0080C0H   000001H   BYTE   OFFS..   XDATA          ?XD?MAIN?102
0080C1H   0080C1H   000001H   BYTE   OFFS..   XDATA          ?XD?MAIN?43
0080C2H   0080C2H   000001H   BYTE   OFFS..   XDATA          ?XD?MAIN?41
0080C3H   0080C3H   000001H   BYTE   OFFS..   XDATA          ?XD?MAIN?50
0080C4H   0080C4H   000001H   BYTE   OFFS..   XDATA          ?XD?MAIN?47
0080C5H   0080CFH   00000BH   ---    ---      **GAP**
0080D0H   0080D0H   000001H   BYTE   OFFS..   XDATA          ?XD?MAIN?19
0080D1H   0080D1H   000001H   BYTE   OFFS..   XDATA          ?XD?MAIN?20
0080D2H   0080D2H   000001H   BYTE   OFFS..   XDATA          ?XD?MAIN?7
0080D3H   0080D3H   000001H   BYTE   OFFS..   XDATA          ?XD?MAIN?5
0080D4H   0080D4H   000001H   BYTE   OFFS..   XDATA          ?XD?MAIN?9
0080D5H   0080D5H   000001H   BYTE   OFFS..   XDATA          ?XD?MAIN?8
0080D6H   0080D6H   000001H   BYTE   OFFS..   XDATA          ?XD?MAIN?14
0080D7H   0080D7H   000001H   BYTE   OFFS..   XDATA          ?XD?MAIN?6
0080D8H   0080D8H   000001H   BYTE   OFFS..   XDATA          ?XD?MAIN?11
0080D9H   0080D9H   000001H   BYTE   OFFS..   XDATA          ?XD?MAIN?10
0080DAH   0080DAH   000001H   BYTE   OFFS..   XDATA          ?XD?MAIN?15
0080DBH   0080DBH   000001H   BYTE   OFFS..   XDATA          ?XD?MAIN?40
0080DCH   0080DCH   000001H   BYTE   OFFS..   XDATA          ?XD?MAIN?42
0080DDH   0080DDH   000001H   BYTE   OFFS..   XDATA          ?XD?MAIN?55
0080DEH   0080F7H   00001AH   ---    ---      **GAP**
0080F8H   0080F8H   000001H   BYTE   OFFS..   XDATA          ?XD?MAIN?99
0080F9H   0080F9H   000001H   BYTE   OFFS..   XDATA          ?XD?MAIN?12
0080FAH   0080FAH   000001H   BYTE   OFFS..   XDATA          ?XD?MAIN?16
0080FBH   0080FFH   000005H   ---    ---      **GAP**
008100H   008100H   000001H   BYTE   OFFS..   XDATA          ?XD?MAIN?4
008101H   008101H   000001H   BYTE   OFFS..   XDATA          ?XD?MAIN?25
008102H   008117H   000016H   ---    ---      **GAP**
008118H   008118H   000001H   BYTE   OFFS..   XDATA          ?XD?MAIN?27
008119H   008119H   000001H   BYTE   OFFS..   XDATA          ?XD?MAIN?28
00811AH   00811DH   000004H   ---    ---      **GAP**
00811EH   00811EH   000001H   BYTE   OFFS..   XDATA          ?XD?MAIN?0
00811FH   00811FH   000001H   BYTE   OFFS..   XDATA          ?XD?MAIN?3
008120H   008120H   000001H   BYTE   OFFS..   XDATA          ?XD?MAIN?65
008121H   008121H   000001H   BYTE   OFFS..   XDATA          ?XD?MAIN?68
008122H   008122H   000001H   BYTE   OFFS..   XDATA          ?XD?MAIN?71
008123H   008123H   000001H   BYTE   OFFS..   XDATA          ?XD?MAIN?74
008124H   008124H   000001H   BYTE   OFFS..   XDATA          ?XD?MAIN?77
008125H   008125H   000001H   BYTE   OFFS..   XDATA          ?XD?MAIN?81
008126H   008126H   000001H   BYTE   OFFS..   XDATA          ?XD?MAIN?86
008127H   008127H   000001H   BYTE   OFFS..   XDATA          ?XD?MAIN?92
008128H   008128H   000001H   BYTE   OFFS..   XDATA          ?XD?MAIN?67
008129H   008129H   000001H   BYTE   OFFS..   XDATA          ?XD?MAIN?70
00812AH   00812AH   000001H   BYTE   OFFS..   XDATA          ?XD?MAIN?73
00812BH   00812BH   000001H   BYTE   OFFS..   XDATA          ?XD?MAIN?76
00812CH   00812CH   000001H   BYTE   OFFS..   XDATA          ?XD?MAIN?80
00812DH   00812DH   000001H   BYTE   OFFS..   XDATA          ?XD?MAIN?85
00812EH   00812EH   000001H   BYTE   OFFS..   XDATA          ?XD?MAIN?91
00812FH   00812FH   000001H   BYTE   OFFS..   XDATA          ?XD?MAIN?95
008130H   008130H   000001H   BYTE   OFFS..   XDATA          ?XD?MAIN?69
008131H   008137H   000007H   ---    ---      **GAP**
008138H   008138H   000001H   BYTE   OFFS..   XDATA          ?XD?MAIN?72
008139H   00FBFFH   007AC7H   ---    ---      **GAP**
LX51 LINKER/LOCATER V4.66.93.0                                                        04/07/2024  09:15:35  PAGE 7


00FC00H   00FC00H   000001H   BYTE   OFFS..   XDATA          ?XD?MAIN?64
00FC01H   00FC01H   000001H   BYTE   OFFS..   XDATA          ?XD?MAIN?59
00FC02H   00FC02H   000001H   BYTE   OFFS..   XDATA          ?XD?MAIN?63
00FC03H   00FC03H   000001H   BYTE   OFFS..   XDATA          ?XD?MAIN?23
00FC04H   00FC04H   000001H   BYTE   OFFS..   XDATA          ?XD?MAIN?58
00FC05H   00FC05H   000001H   BYTE   OFFS..   XDATA          ?XD?MAIN?39
00FC06H   00FC06H   000001H   BYTE   OFFS..   XDATA          ?XD?MAIN?35
00FC07H   00FC07H   000001H   BYTE   OFFS..   XDATA          ?XD?MAIN?48

* * * * * * * * *   R E M O V E D     S E G M E N T S   * * * * * * * *
   *DEL*:           0000D6H   BYTE   UNIT     CODE           ?PR?_UART2_INITIAL?UART
   *DEL*:           000008H   BYTE   UNIT     XDATA          ?XD?_UART2_INITIAL?UART
   *DEL*:           000049H   BYTE   UNIT     CODE           ?PR?_UART2_PUTCHAR?UART
   *DEL*:           00002EH   BYTE   UNIT     CODE           ?PR?_UARTPUTSTR?UART
   *DEL*:           000003H   BYTE   UNIT     XDATA          ?XD?_UARTPUTSTR?UART
   *DEL*:           00004AH   BYTE   UNIT     CODE           ?PR?_UART_PRINTF?UART
   *DEL*:           00012EH   BYTE   UNIT     XDATA          ?XD?_UART_PRINTF?UART
   *DEL*:           000040H   BYTE   UNIT     CONST          ?CO?UART
   *DEL*:           00000DH   BYTE   UNIT     CODE           ?PR?SYS_CLK_SET_IRCH?SYSTEM_CLOCK
   *DEL*:           00000DH   BYTE   UNIT     CODE           ?PR?SYS_CLK_SET_IRCL?SYSTEM_CLOCK
   *DEL*:           000023H   BYTE   UNIT     CODE           ?PR?SYS_CLK_SET_XOSCH?SYSTEM_CLOCK
   *DEL*:           000013H   BYTE   UNIT     CODE           ?PR?SYS_CLK_SET_XCLK_IN?SYSTEM_CLOCK
   *DEL*:           000008H   BYTE   UNIT     CODE           ?PR?SYSTEM_CLOCK
   *DEL*:           000016H   BYTE   UNIT     CODE           ?PR?_DATA_AREA_WRITE_BYTE?FLASH
   *DEL*:           00000FH   BYTE   UNIT     CODE           ?PR?_DATA_AREA_READ_BYTE?FLASH
   *DEL*:           000001H   BYTE   UNIT     CODE           ?PR?IINITCLK?GLH_SYS_TICK
   *DEL*:           000001H   BYTE   UNIT     CODE           ?PR?GLHST_WAKEUP?GLH_SYS_TICK
   *DEL*:           000001H   BYTE   UNIT     CODE           ?PR?GLHST_PAUSE?GLH_SYS_TICK
   *DEL*:           000001H   BYTE   UNIT     CODE           ?PR?GLHST_START?GLH_SYS_TICK
   *DEL*:           000001H   BYTE   UNIT     CODE           ?PR?GLHWD_START?GLH_WATCHDOG
   *DEL*:           000001H   BYTE   UNIT     CODE           ?PR?GLHWD_STOP?GLH_WATCHDOG
   *DEL*:           00008FH   BYTE   UNIT     CODE           ?PR?_GLHFLASH_READDEVID?GLH_FLASH
   *DEL*:           000007H   BYTE   UNIT     XDATA          ?XD?_GLHFLASH_READDEVID?GLH_FLASH
   *DEL*:           00001EH   BYTE   UNIT     CODE           ?PR?GLHUART_INIT?GLH_UART
   *DEL*:           000011H   BYTE   UNIT     CODE           ?PR?_GLHUART_SENDBYTE?GLH_UART
   *DEL*:           000037H   BYTE   UNIT     CODE           ?PR?_GLHUART_SENDBUFF?GLH_UART
   *DEL*:           000003H   BYTE   UNIT     XDATA          ?XD?_GLHUART_SENDBUFF?GLH_UART
   *DEL*:           000013H   BYTE   UNIT     CODE           ?PR?GLHUART_MAINLOOP?GLH_UART
   *DEL*:           00000BH   BYTE   UNIT     CODE           ?PR?GLH_UART
   *DEL*:           00002EH   BYTE   UNIT     CODE           ?PR?IBNINC?GLH_APP_PROCESS
   *DEL*:           000024H   BYTE   UNIT     CODE           ?PR?IBNDEC?GLH_APP_PROCESS
   *DEL*:           000034H   BYTE   UNIT     CODE           ?PR?ISPEEDINC?GLH_APP_PROCESS
   *DEL*:           00002AH   BYTE   UNIT     CODE           ?PR?ISPEEDDEC?GLH_APP_PROCESS
   *DEL*:           000024H   BYTE   UNIT     CODE           ?PR?IMODEINC?GLH_APP_PROCESS
   *DEL*:           00003BH   BYTE   UNIT     CODE           ?PR?IMODEDEC?GLH_APP_PROCESS
   *DEL*:           0000CFH   BYTE   UNIT     CODE           ?PR?_ICOLORSET?GLH_APP_PROCESS
   *DEL*:           00025DH   BYTE   UNIT     CODE           ?PR?_HSVTORGB?GLH_APP_PROCESS
   *DEL*:           000039H   BYTE   UNIT     XDATA          ?XD?_HSVTORGB?GLH_APP_PROCESS
   *DEL*:           000059H   BYTE   UNIT     CODE           ?PR?_RETMAX?GLH_APP_PROCESS
   *DEL*:           000010H   BYTE   UNIT     XDATA          ?XD?_RETMAX?GLH_APP_PROCESS
   *DEL*:           00005DH   BYTE   UNIT     CODE           ?PR?_RETMIN?GLH_APP_PROCESS
   *DEL*:           000010H   BYTE   UNIT     XDATA          ?XD?_RETMIN?GLH_APP_PROCESS
   *DEL*:           0002C1H   BYTE   UNIT     CODE           ?PR?_RGBTOHSV?GLH_APP_PROCESS
   *DEL*:           00002CH   BYTE   UNIT     XDATA          ?XD?_RGBTOHSV?GLH_APP_PROCESS
   *DEL*:           00001AH   BYTE   UNIT     CODE           ?PR?_GLHOCP_EVENTCALLBACK?GLH_APP_PROCESS
   *DEL*:           000042H   BYTE   UNIT     CODE           ?PR?_GLHLM_STATICMODEIMMEDIATELY?GLH_LED_MODE
   *DEL*:           000005H   BYTE   UNIT     XDATA          ?XD?_GLHLM_STATICMODEIMMEDIATELY?GLH_LED_MODE
   *DEL*:           00005DH   BYTE   UNIT     CODE           ?PR?_GLHLM_SETONECHANNELIMMEDIATELY?GLH_LED_MODE
   *DEL*:           000001H   BYTE   UNIT     XDATA          ?XD?_GLHLM_SETONECHANNELIMMEDIATELY?GLH_LED_MODE
   *DEL*:           000093H   BYTE   UNIT     CODE           ?PR?IFIREWORKS?GLH_LED_MODE
   *DEL*:           000021H   BYTE   UNIT     CODE           ?PR?_GLHLM_FIREWORKSMODE?GLH_LED_MODE
   *DEL*:           00004AH   BYTE   UNIT     CODE           ?PR?_VSPRINTF?VSPRINTF
   *DEL*:           000006H   BYTE   UNIT     XDATA          ?XD?_VSPRINTF?VSPRINTF
   *DEL*:           000483H   BYTE   UNIT     CODE           ?PR?PRINTF?PRINTF
   *DEL*:           000005H   BYTE   UNIT     DATA           ?DT?PRINTF?PRINTF
LX51 LINKER/LOCATER V4.66.93.0                                                        04/07/2024  09:15:35  PAGE 8


   *DEL*:           000001H.1 BIT    UNIT     BIT            ?BI?PRINTF?PRINTF
   *DEL*:           000030H   BYTE   UNIT     XDATA          ?XD?PRINTF?PRINTF
   *DEL*:           000027H   BYTE   UNIT     CODE           ?PR?PUTCHAR?PUTCHAR



OVERLAY MAP OF MODULE:   .\output\ca51f003 (UART)


FUNCTION/MODULE                               XDATA_GROUP
--> CALLED FUNCTION/MODULE                    START  STOP
=========================================================
UART2_ISR/UART                                ----- -----
  +--> UART

UART                                          ----- -----

*** NEW ROOT ********************************

?C_C51STARTUP                                 ----- -----
  +--> MAIN/MAIN
  +--> ?C_INITSEG

MAIN/MAIN                                     ----- -----
  +--> GLHAPS_INIT/GLH_APP_PROCESS
  +--> GLHAPS_MAINTHREAD/GLH_APP_PROCESS

GLHAPS_INIT/GLH_APP_PROCESS                   ----- -----
  +--> GLHST_INIT/GLH_SYS_TICK
  +--> GLH_APP_PROCESS
  +--> GLHFLASH_INIT/GLH_FLASH
  +--> GLHLM_INIT/GLH_LED_MODE
  +--> RF24G_INIT/GLH_LT8920L
  +--> _RF24G_ENTERRXMODE/GLH_LT8920L
  +--> GLHWD_INIT/GLH_WATCHDOG
  +--> IINITSCCONFIG/GLH_APP_PROCESS
  +--> GLHOCP_INIT/GLH_OVER_CURRENT_PROTECT

GLHST_INIT/GLH_SYS_TICK                       ----- -----
  +--> ITIMERINIT/GLH_SYS_TICK

ITIMERINIT/GLH_SYS_TICK                       ----- -----

GLH_APP_PROCESS                               ----- -----

GLHFLASH_INIT/GLH_FLASH                       ----- -----

GLHLM_INIT/GLH_LED_MODE                       ----- -----
  +--> GLHRGB_INIT/GLH_RGB
  +--> IRESETPARAMS/GLH_LED_MODE

GLHRGB_INIT/GLH_RGB                           ----- -----
  +--> _GLHPWM_INIT/GLH_PWM

_GLHPWM_INIT/GLH_PWM                          ----- -----
  +--> GLH_PWM

GLH_PWM                                       ----- -----

IRESETPARAMS/GLH_LED_MODE                     ----- -----
  +--> GLH_LED_MODE

GLH_LED_MODE                                  ----- -----
  +--> IRESETPARAMS/GLH_LED_MODE

LX51 LINKER/LOCATER V4.66.93.0                                                        04/07/2024  09:15:35  PAGE 9


RF24G_INIT/GLH_LT8920L                        0335H 0338H
  +--> GLH_LT8920L
  +--> _RF24G_READREG/GLH_LT8920L
  +--> _RF24G_WRITEREG/GLH_LT8920L

GLH_LT8920L                                   ----- -----
  +--> _RF24G_READREG/GLH_LT8920L
  +--> _RF24G_WRITEREG/GLH_LT8920L

_RF24G_READREG/GLH_LT8920L                    ----- -----
  +--> _ISPIWRITEBYTE/GLH_LT8920L
  +--> ISPIREADBYTE/GLH_LT8920L

_ISPIWRITEBYTE/GLH_LT8920L                    ----- -----

ISPIREADBYTE/GLH_LT8920L                      ----- -----

_RF24G_WRITEREG/GLH_LT8920L                   ----- -----
  +--> _ISPIWRITEBYTE/GLH_LT8920L

_RF24G_ENTERRXMODE/GLH_LT8920L                ----- -----
  +--> _RF24G_WRITEREG/GLH_LT8920L
  +--> RF24G_CHANGE_0X38/GLH_LT8920L
  +--> GLH_LT8920L

RF24G_CHANGE_0X38/GLH_LT8920L                 ----- -----
  +--> _RF24G_WRITEREG/GLH_LT8920L

GLHWD_INIT/GLH_WATCHDOG                       ----- -----

IINITSCCONFIG/GLH_APP_PROCESS                 ----- -----
  +--> GLH_APP_PROCESS
  +--> _GLHFLASH_READBYTES/GLH_FLASH
  +--> IRESETSCCONFIG/GLH_APP_PROCESS
  +--> IREFRESHASCONFIG/GLH_APP_PROCESS

_GLHFLASH_READBYTES/GLH_FLASH                 0335H 033DH
  +--> _DATA_AREA_MASS_READ/FLASH

_DATA_AREA_MASS_READ/FLASH                    033EH 0344H
  +--> FLASH

FLASH                                         ----- -----

IRESETSCCONFIG/GLH_APP_PROCESS                0335H 0335H
  +--> GLH_APP_PROCESS

IREFRESHASCONFIG/GLH_APP_PROCESS              ----- -----
  +--> GLH_APP_PROCESS
  +--> _GLHLM_SETSWITCHSTATUS/GLH_LED_MODE
  +--> _GLHLM_SETBN/GLH_LED_MODE
  +--> _GLHLM_STATICMODE/GLH_LED_MODE
  +--> _GLHLM_SETSPEED/GLH_LED_MODE

_GLHLM_SETSWITCHSTATUS/GLH_LED_MODE           ----- -----

_GLHLM_SETBN/GLH_LED_MODE                     ----- -----

_GLHLM_STATICMODE/GLH_LED_MODE                0358H 035CH
  +--> GLH_LED_MODE
  +--> ISTATIC/GLH_LED_MODE

ISTATIC/GLH_LED_MODE                          ----- -----
  +--> GLH_LED_MODE
  +--> _GLHRGB_SETCOLOR/GLH_RGB
LX51 LINKER/LOCATER V4.66.93.0                                                        04/07/2024  09:15:35  PAGE 10


  +--> MODECOMEPLETESYNCSEND/GLH_APP_PROCESS

_GLHRGB_SETCOLOR/GLH_RGB                      035DH 035EH
  +--> GLH_RGB
  +--> _GLHPWM_SET/GLH_PWM

GLH_RGB                                       ----- -----

_GLHPWM_SET/GLH_PWM                           035FH 0363H
  +--> GLH_PWM

MODECOMEPLETESYNCSEND/GLH_APP_PROCESS         035DH 035DH
  +--> GLH_APP_PROCESS
  +--> _GLHLM_GETCURRRGBW/GLH_LED_MODE
  +--> GLHLM_GETCURRCOLORINDEX/GLH_LED_MODE
  +--> GLHLM_GETSTEP/GLH_LED_MODE
  +--> _RF24G_TX/GLH_LT8920L
  +--> RF24G_ISTXORRXCOMPLETE/GLH_LT8920L
  +--> _DELAY_MS/DELAY
  +--> _RF24G_ENTERRXMODE/GLH_LT8920L

_GLHLM_GETCURRRGBW/GLH_LED_MODE               035EH 0369H
  +--> GLH_LED_MODE

GLHLM_GETCURRCOLORINDEX/GLH_LED_MODE          ----- -----

GLHLM_GETSTEP/GLH_LED_MODE                    ----- -----

_RF24G_TX/GLH_LT8920L                         035EH 0362H
  +--> GLH_LT8920L
  +--> _RF24G_WRITEREG/GLH_LT8920L
  +--> _ISPIWRITEBYTE/GLH_LT8920L

RF24G_ISTXORRXCOMPLETE/GLH_LT8920L            ----- -----
  +--> _RF24G_READREG/GLH_LT8920L

_DELAY_MS/DELAY                               035EH 035FH
  +--> _DELAY_50US/DELAY

_DELAY_50US/DELAY                             ----- -----

_GLHLM_SETSPEED/GLH_LED_MODE                  ----- -----

GLHOCP_INIT/GLH_OVER_CURRENT_PROTECT          ----- -----

GLHAPS_MAINTHREAD/GLH_APP_PROCESS             ----- -----
  +--> GLHWD_CLEAR/GLH_WATCHDOG
  +--> GLHOCP_MAINTHREAD/GLH_OVER_CURRENT_PROTECT
  +--> ISAVESCCONFIGMAINTHREAD/GLH_APP_PROCESS
  +--> IRF24GRECEIVEMAINTHREAD/GLH_APP_PROCESS
  +--> ITIMINGPOWEROFFMAINTHREAD/GLH_APP_PROCESS
  +--> IRF24GCHANNELCHANGEMAINTHREAD/GLH_APP_PROCESS
  +--> GLHLM_RENDERPROC/GLH_LED_MODE
  +--> RF24G_ISWORKINGNOMALCHECKMAINTHREAD/GLH_LT8920L
  +--> GLHLM_GETMODEISCOMPLETE/GLH_LED_MODE
  +--> _ISLECTSCENCE/GLH_APP_PROCESS

GLHWD_CLEAR/GLH_WATCHDOG                      ----- -----

GLHOCP_MAINTHREAD/GLH_OVER_CURRENT_PROTE+     ----- -----
... CT
  +--> GLH_OVER_CURRENT_PROTECT

GLH_OVER_CURRENT_PROTECT                      ----- -----

LX51 LINKER/LOCATER V4.66.93.0                                                        04/07/2024  09:15:35  PAGE 11


ISAVESCCONFIGMAINTHREAD/GLH_APP_PROCESS       ----- -----
  +--> GLH_APP_PROCESS
  +--> _GLHFLASH_WRITEBYTES/GLH_FLASH

_GLHFLASH_WRITEBYTES/GLH_FLASH                0335H 033DH
  +--> GLH_FLASH
  +--> _GLHFLASH_ERASEBLOCK/GLH_FLASH
  +--> _DATA_AREA_MASS_WRITE/FLASH

GLH_FLASH                                     ----- -----

_GLHFLASH_ERASEBLOCK/GLH_FLASH                033EH 0344H
  +--> GLH_FLASH
  +--> _DATA_AREA_SECTOR_ERASE/FLASH

_DATA_AREA_SECTOR_ERASE/FLASH                 ----- -----
  +--> FLASH

_DATA_AREA_MASS_WRITE/FLASH                   033EH 0344H
  +--> FLASH

IRF24GRECEIVEMAINTHREAD/GLH_APP_PROCESS       0335H 0335H
  +--> RF24G_ISTXORRXCOMPLETE/GLH_LT8920L
  +--> GLH_APP_PROCESS
  +--> _RF24G_READRXDATA/GLH_LT8920L
  +--> _DATADECRYPTIONPROCESSING/GLH_APP_PROCESS
  +--> _IRF24GREMOTERDATAHANDLE/GLH_APP_PROCESS
  +--> _IRF24GSYNCDATAHANDLE/GLH_APP_PROCESS
  +--> _RF24G_ENTERRXMODE/GLH_LT8920L

_RF24G_READRXDATA/GLH_LT8920L                 0336H 033BH
  +--> _ISPIWRITEBYTE/GLH_LT8920L
  +--> ISPIREADBYTE/GLH_LT8920L
  +--> GLH_LT8920L

_DATADECRYPTIONPROCESSING/GLH_APP_PROCES+     0336H 0339H
... S
  +--> GLH_APP_PROCESS
  +--> _MYCROL/GLH_APP_PROCESS

_MYCROL/GLH_APP_PROCESS                       ----- -----

_IRF24GREMOTERDATAHANDLE/GLH_APP_PROCESS      0336H 0342H
  +--> GLH_APP_PROCESS
  +--> IREFRESHASCONFIG/GLH_APP_PROCESS
  +--> _DELAY_MS/DELAY
  +--> ITIMINGPOWEROFFCANCEL/GLH_APP_PROCESS
  +--> _RF24G_TX/GLH_LT8920L
  +--> RF24G_ISTXORRXCOMPLETE/GLH_LT8920L
  +--> _RF24G_ENTERRXMODE/GLH_LT8920L
  +--> _IBNSET/GLH_APP_PROCESS
  +--> _ISAVESCENCE/GLH_APP_PROCESS
  +--> _IEXCUTESCENCE/GLH_APP_PROCESS
  +--> _ISETTIMINGPOWEROFF/GLH_APP_PROCESS
  +--> _IRGBFLASH/GLH_APP_PROCESS

ITIMINGPOWEROFFCANCEL/GLH_APP_PROCESS         ----- -----

_IBNSET/GLH_APP_PROCESS                       ----- -----
  +--> GLH_APP_PROCESS
  +--> _GLHLM_SETBN/GLH_LED_MODE

_ISAVESCENCE/GLH_APP_PROCESS                  0343H 0348H
  +--> GLH_APP_PROCESS
  +--> _GLHPWM_SET/GLH_PWM
LX51 LINKER/LOCATER V4.66.93.0                                                        04/07/2024  09:15:35  PAGE 12


  +--> GLHWD_CLEAR/GLH_WATCHDOG
  +--> _GLHLM_SETBN/GLH_LED_MODE

_IEXCUTESCENCE/GLH_APP_PROCESS                0343H 0357H
  +--> GLH_APP_PROCESS
  +--> IREFRESHASCONFIG/GLH_APP_PROCESS

_ISETTIMINGPOWEROFF/GLH_APP_PROCESS           0343H 0347H
  +--> GLH_APP_PROCESS
  +--> _GLHPWM_SET/GLH_PWM
  +--> GLHWD_CLEAR/GLH_WATCHDOG
  +--> _GLHLM_SETBN/GLH_LED_MODE

_IRGBFLASH/GLH_APP_PROCESS                    0343H 034CH
  +--> _GLHPWM_SET/GLH_PWM
  +--> GLH_APP_PROCESS
  +--> GLHWD_CLEAR/GLH_WATCHDOG
  +--> IREFRESHASCONFIG/GLH_APP_PROCESS

_IRF24GSYNCDATAHANDLE/GLH_APP_PROCESS         0336H 0342H
  +--> GLH_APP_PROCESS
  +--> _GLHLM_SETCURRRGBW/GLH_LED_MODE
  +--> _GLHLM_SETCURRCOLORINDEX/GLH_LED_MODE
  +--> _GLHLM_SETSTEP/GLH_LED_MODE
  +--> IREFRESHASCONFIG/GLH_APP_PROCESS
  +--> _ISLECTSCENCE/GLH_APP_PROCESS

_GLHLM_SETCURRRGBW/GLH_LED_MODE               0343H 0346H
  +--> GLH_LED_MODE

_GLHLM_SETCURRCOLORINDEX/GLH_LED_MODE         ----- -----

_GLHLM_SETSTEP/GLH_LED_MODE                   ----- -----
  +--> GLH_LED_MODE
  +--> IFLASH/GLH_LED_MODE
  +--> IBTH/GLH_LED_MODE
  +--> IFADE/GLH_LED_MODE
  +--> IONEBREATHANDTHREEJUMP/GLH_LED_MODE

IFLASH/GLH_LED_MODE                           ----- -----
  +--> GLH_LED_MODE
  +--> MODECOMEPLETESYNCSEND/GLH_APP_PROCESS
  +--> ICHECKISCOMPLETE/GLH_LED_MODE
  +--> _GLHRGB_SETCOLOR/GLH_RGB

ICHECKISCOMPLETE/GLH_LED_MODE                 ----- -----
  +--> GLH_LED_MODE

IBTH/GLH_LED_MODE                             ----- -----
  +--> GLH_LED_MODE
  +--> ICHECKISCOMPLETE/GLH_LED_MODE
  +--> MODECOMEPLETESYNCSEND/GLH_APP_PROCESS
  +--> _GLHRGB_SETCOLOR/GLH_RGB

IFADE/GLH_LED_MODE                            ----- -----
  +--> GLH_LED_MODE
  +--> _GLHRGB_SETCOLOR/GLH_RGB
  +--> MODECOMEPLETESYNCSEND/GLH_APP_PROCESS
  +--> ICHECKISCOMPLETE/GLH_LED_MODE

IONEBREATHANDTHREEJUMP/GLH_LED_MODE           ----- -----
  +--> GLH_LED_MODE
  +--> MODECOMEPLETESYNCSEND/GLH_APP_PROCESS
  +--> _GLHRGB_SETCOLOR/GLH_RGB
  +--> ICHECKISCOMPLETE/GLH_LED_MODE
LX51 LINKER/LOCATER V4.66.93.0                                                        04/07/2024  09:15:35  PAGE 13



_ISLECTSCENCE/GLH_APP_PROCESS                 ----- -----
  +--> _GLHLM_JUMPMODE/GLH_LED_MODE
  +--> GLH_APP_PROCESS
  +--> _GLHLM_FLASHMODE/GLH_LED_MODE
  +--> _GLHLM_FADEMODE/GLH_LED_MODE
  +--> _GLHLM_SETCOLORBUFF/GLH_LED_MODE
  +--> _GLHLM_BREATHMODE/GLH_LED_MODE
  +--> _GLHLM_ONEBTHANDTHREEJUMPMODE/GLH_LED_MODE

_GLHLM_JUMPMODE/GLH_LED_MODE                  ----- -----
  +--> GLH_LED_MODE
  +--> IJUMP/GLH_LED_MODE

IJUMP/GLH_LED_MODE                            ----- -----
  +--> GLH_LED_MODE
  +--> _GLHRGB_SETCOLOR/GLH_RGB
  +--> MODECOMEPLETESYNCSEND/GLH_APP_PROCESS

_GLHLM_FLASHMODE/GLH_LED_MODE                 ----- -----
  +--> GLH_LED_MODE
  +--> IFLASH/GLH_LED_MODE

_GLHLM_FADEMODE/GLH_LED_MODE                  ----- -----
  +--> GLH_LED_MODE
  +--> IRESETPARAMS/GLH_LED_MODE
  +--> IFADE/GLH_LED_MODE
  +--> MODECOMEPLETESYNCSEND/GLH_APP_PROCESS

_GLHLM_SETCOLORBUFF/GLH_LED_MODE              0343H 0348H
  +--> GLH_LED_MODE

_GLHLM_BREATHMODE/GLH_LED_MODE                ----- -----
  +--> GLH_LED_MODE
  +--> IBTH/GLH_LED_MODE

_GLHLM_ONEBTHANDTHREEJUMPMODE/GLH_LED_MO+     ----- -----
... DE
  +--> GLH_LED_MODE
  +--> IONEBREATHANDTHREEJUMP/GLH_LED_MODE

ITIMINGPOWEROFFMAINTHREAD/GLH_APP_PROCES+     ----- -----
... S
  +--> GLH_APP_PROCESS
  +--> IREFRESHASCONFIG/GLH_APP_PROCESS

IRF24GCHANNELCHANGEMAINTHREAD/GLH_APP_PR+     ----- -----
... OCESS

GLHLM_RENDERPROC/GLH_LED_MODE                 ----- -----
  +--> GLH_LED_MODE
  +--> IONOFFFADEMAINTHREAD/GLH_LED_MODE
  +--> IBNFADEMAINTHREAD/GLH_LED_MODE

IONOFFFADEMAINTHREAD/GLH_LED_MODE             ----- -----
  +--> GLH_LED_MODE
  +--> _GLHRGB_SETBN/GLH_RGB
  +--> _GLHRGB_SETONOFFVALUE/GLH_RGB

_GLHRGB_SETBN/GLH_RGB                         ----- -----
  +--> GLH_RGB
  +--> _GLHPWM_SET/GLH_PWM

_GLHRGB_SETONOFFVALUE/GLH_RGB                 ----- -----
  +--> GLH_RGB
LX51 LINKER/LOCATER V4.66.93.0                                                        04/07/2024  09:15:35  PAGE 14


  +--> _GLHPWM_SET/GLH_PWM

IBNFADEMAINTHREAD/GLH_LED_MODE                0335H 0337H
  +--> GLH_LED_MODE
  +--> _GLHRGB_SETBN/GLH_RGB

RF24G_ISWORKINGNOMALCHECKMAINTHREAD/GLH_+     0335H 0337H
... LT8920L
  +--> GLH_LT8920L
  +--> IRF24G_REINIT/GLH_LT8920L
  +--> _RF24G_ENTERRXMODE/GLH_LT8920L

IRF24G_REINIT/GLH_LT8920L                     ----- -----
  +--> _RF24G_WRITEREG/GLH_LT8920L
  +--> GLH_LT8920L

GLHLM_GETMODEISCOMPLETE/GLH_LED_MODE          ----- -----

?C_INITSEG                                    ----- -----

*** NEW ROOT ********************************

TIMER0_ISR/GLH_SYS_TICK                       ----- -----

*** NEW ROOT ********************************

UART1_ISR/GLH_UART                            ----- -----
  +--> _IWRITEBYTE/GLH_UART

_IWRITEBYTE/GLH_UART                          ----- -----

*** NEW ROOT ********************************

INT0_ISR/GLH_OVER_CURRENT_PROTECT             ----- -----
  +--> GLH_OVER_CURRENT_PROTECT



PUBLIC SYMBOLS OF MODULE:  .\output\ca51f003 (UART)


      VALUE       CLASS    TYPE      PUBLIC SYMBOL NAME
      =================================================
      0200033EH   XDATA    BYTE      ?_Data_Area_Mass_Read?BYTE
      0200033EH   XDATA    BYTE      ?_Data_Area_Mass_Write?BYTE
      0200033EH   XDATA    BYTE      ?_GLHFLASH_EraseBlock?BYTE
      02000335H   XDATA    BYTE      ?_GLHFLASH_ReadBytes?BYTE
      02000335H   XDATA    BYTE      ?_GLHFLASH_WriteBytes?BYTE
      0200035EH   XDATA    BYTE      ?_GLHLM_GetCurrRgbw?BYTE
      02000343H   XDATA    BYTE      ?_GLHLM_SetColorBuff?BYTE
      02000343H   XDATA    BYTE      ?_GLHLM_SetCurrRgbw?BYTE
      02000358H   XDATA    BYTE      ?_GLHLM_StaticMode?BYTE
*DEL*:00000000H   XDATA    BYTE      ?_GLHLM_StaticModeImmediately?BYTE
      0200035FH   XDATA    BYTE      ?_GLHPWM_Set?BYTE
*DEL*:00000000H   XDATA    BYTE      ?_HsvToRgb?BYTE
*DEL*:00000000H   XDATA    ---       ?_PRINTF?BYTE
*DEL*:00000000H   XDATA    BYTE      ?_RetMax?BYTE
*DEL*:00000000H   XDATA    BYTE      ?_RetMin?BYTE
      02000336H   XDATA    BYTE      ?_RF24G_ReadRxData?BYTE
      0200035EH   XDATA    BYTE      ?_RF24G_Tx?BYTE
*DEL*:00000000H   XDATA    BYTE      ?_RgbToHsv?BYTE
*DEL*:00000000H   XDATA    ---       ?_SPRINTF?BYTE
*DEL*:00000000H   XDATA    BYTE      ?_uart_printf?BYTE
*DEL*:0000FFFDH   XDATA    ---       ?_VSPRINTF?BYTE
      0100039BH   CODE     ---       ?C?CASTF
LX51 LINKER/LOCATER V4.66.93.0                                                        04/07/2024  09:15:35  PAGE 15


      010009A9H   CODE     ---       ?C?CCASE
      010006DDH   CODE     ---       ?C?CLDOPTR
      010006C4H   CODE     ---       ?C?CLDPTR
      00000000H   NUMBER   ---       ?C?CODESEG
      0100069EH   CODE     ---       ?C?COPY
      0100071CH   CODE     ---       ?C?CSTOPTR
      0100070AH   CODE     ---       ?C?CSTPTR
      01000367H   CODE     ---       ?C?FCASTC
      01000362H   CODE     ---       ?C?FCASTI
      0100035DH   CODE     ---       ?C?FCASTL
      0100004DH   CODE     ---       ?C?FPADD
      010002E6H   CODE     ---       ?C?FPCMP
      010002E4H   CODE     ---       ?C?FPCMP3
      01000459H   CODE     ---       ?C?FPCONVERT
      01000247H   CODE     ---       ?C?FPDIV
      010003D2H   CODE     ---       ?C?FPGETOPN2
      0100013EH   CODE     ---       ?C?FPMUL
      01000407H   CODE     ---       ?C?FPNANRESULT
      01000411H   CODE     ---       ?C?FPOVERFLOW
      010003E9H   CODE     ---       ?C?FPRESULT
      010003FDH   CODE     ---       ?C?FPRESULT2
      0100041CH   CODE     ---       ?C?FPROUND
      01000049H   CODE     ---       ?C?FPSUB
      0100040EH   CODE     ---       ?C?FPUNDERFLOW
      0100058EH   CODE     ---       ?C?FTNPWR
      010009CFH   CODE     ---       ?C?ICALL
      010009D3H   CODE     ---       ?C?ICALL2
      010007A5H   CODE     ---       ?C?ILDIX
      0100073EH   CODE     ---       ?C?IMUL
      010007BBH   CODE     ---       ?C?ISTPTR
      010009D5H   CODE     ---       ?C?LIMUL
      0100093CH   CODE     ---       ?C?LLDCODE
      010007DAH   CODE     ---       ?C?LMUL
      010008F7H   CODE     ---       ?C?LNEG
      01000929H   CODE     ---       ?C?LSHL
      01000958H   CODE     ---       ?C?LSTKXDATA
      0100094CH   CODE     ---       ?C?LSTXDATA
      01000B88H   CODE     ---       ?C?MEMCMP
      01000BACH   CODE     ---       ?C?MEMSET
      01000989H   CODE     ---       ?C?PLDIXDATA
      010009A0H   CODE     ---       ?C?PSTXDATA
      01000750H   CODE     ---       ?C?UIDIV
      01000905H   CODE     ---       ?C?ULCMP
      01000865H   CODE     ---       ?C?ULDIV
      01000916H   CODE     ---       ?C?ULSHR
      00000000H   NUMBER   ---       ?C?XDATASEG
      01002FFDH   CODE     ---       ?C_START
      01000000H   CODE     ---       ?C_STARTUP
      01003920H   CODE     ---       _Data_Area_Mass_Read
      010037EEH   CODE     ---       _Data_Area_Mass_Write
*DEL*:00000000H   CODE     ---       _Data_Area_Read_Byte
      01003CACH   CODE     ---       _Data_Area_Sector_Erase
*DEL*:00000000H   CODE     ---       _Data_Area_Write_Byte
      01002F1FH   CODE     ---       _DataDecryptionProcessing
      01003D1EH   CODE     ---       _Delay_50us
      01003C8CH   CODE     ---       _Delay_ms
      0100339FH   CODE     ---       _GLHFLASH_EraseBlock
      01003DF9H   CODE     ---       _GLHFLASH_ReadBytes
*DEL*:00000000H   CODE     ---       _GLHFLASH_ReadDevId
      01003728H   CODE     ---       _GLHFLASH_WriteBytes
      01003D6CH   CODE     ---       _GLHLM_BreathMode
      01003B96H   CODE     ---       _GLHLM_FadeMode
*DEL*:00000000H   CODE     ---       _GLHLM_FireWorksMode
      01003C28H   CODE     ---       _GLHLM_FlashMode
      01003A06H   CODE     ---       _GLHLM_GetCurrRgbw
LX51 LINKER/LOCATER V4.66.93.0                                                        04/07/2024  09:15:35  PAGE 16


      01003B49H   CODE     ---       _GLHLM_JumpMode
      01003CE7H   CODE     ---       _GLHLM_OneBthAndThreeJumpMode
      01003BBBH   CODE     ---       _GLHLM_SetBn
      01003A3BH   CODE     ---       _GLHLM_SetColorBuff
      01003E63H   CODE     ---       _GLHLM_SetCurrColorIndex
      01003E0BH   CODE     ---       _GLHLM_SetCurrRgbw
*DEL*:00000000H   CODE     ---       _GLHLM_SetOneChannelImmediately
      01003E44H   CODE     ---       _GLHLM_SetSpeed
      01002B0AH   CODE     ---       _GLHLM_SetStep
      01003E57H   CODE     ---       _GLHLM_SetSwitchStatus
      010037AEH   CODE     ---       _GLHLM_StaticMode
*DEL*:00000000H   CODE     ---       _GLHLM_StaticModeImmediately
*DEL*:00000000H   CODE     ---       _GLHOCP_EventCallBack
      01002E88H   CODE     ---       _GLHPWM_Init
      01002DEFH   CODE     ---       _GLHPWM_Set
      0100386AH   CODE     ---       _GLHRGB_SetBn
      0100359FH   CODE     ---       _GLHRGB_SetColor
      010038E4H   CODE     ---       _GLHRGB_SetOnOffValue
*DEL*:00000000H   CODE     ---       _GLHUART_SendBuff
*DEL*:00000000H   CODE     ---       _GLHUART_SendByte
*DEL*:00000000H   CODE     ---       _HsvToRgb
      01003D38H   CODE     ---       _MyCrol
*DEL*:0000006BH   CODE     ---       _PRINTF
*DEL*:00000000H   CODE     ---       _PUTCHAR
*DEL*:00000000H   CODE     ---       _RetMax
*DEL*:00000000H   CODE     ---       _RetMin
      01003B70H   CODE     ---       _RF24G_EnterRxMode
      01003D86H   CODE     ---       _RF24G_ReadReg
      010034D9H   CODE     ---       _RF24G_ReadRxData
      010032BEH   CODE     ---       _RF24G_Tx
      01003686H   CODE     ---       _RF24G_WriteReg
*DEL*:00000000H   CODE     ---       _RgbToHsv
*DEL*:00000065H   CODE     ---       _SPRINTF
*DEL*:00000000H   CODE     ---       _Uart2_Initial
*DEL*:00000000H   CODE     ---       _Uart2_PutChar
*DEL*:00000000H   CODE     ---       _uart_printf
*DEL*:00000000H   CODE     ---       _UartPutStr
*DEL*:00000000H   CODE     ---       _VSPRINTF
*SFR* 000000D0H.6 DATA     BIT       AC
*SFR* 000000E0H   DATA     BYTE      ACC
      02008094H   XDATA    BYTE      ACPBC
      0200808DH   XDATA    BYTE      ACPDHH
      0200808CH   XDATA    BYTE      ACPDHL
      0200808BH   XDATA    BYTE      ACPDLH
      0200808AH   XDATA    BYTE      ACPDLL
      02008089H   XDATA    BYTE      ADCALH
      02008088H   XDATA    BYTE      ADCALL
*SFR* 000000BDH   DATA     BYTE      ADCDH
*SFR* 000000BCH   DATA     BYTE      ADCDL
*SFR* 000000BBH   DATA     BYTE      ADCFGH
*SFR* 000000BAH   DATA     BYTE      ADCFGL
*SFR* 000000B9H   DATA     BYTE      ADCON
      0200808FH   XDATA    BYTE      ADOPC
      020080B9H   XDATA    BYTE      AMPAOS
      020080B8H   XDATA    BYTE      AMPCON
      01003F8FH   CONST    ---       au8ChannelTable
*SFR* 000000F0H   DATA     BYTE      B
*DEL*:00000020H   CONST    ---       BR_SET_TAB
*DEL*:00000000H   CONST    ---       BR_TAB
      020080C0H   XDATA    BYTE      BZCON
      020080C2H   XDATA    BYTE      BZDIVH
      020080C1H   XDATA    BYTE      BZDIVL
      020080C4H   XDATA    BYTE      BZDUTH
      020080C3H   XDATA    BYTE      BZDUTL
      02008080H   XDATA    BYTE      CKCON
LX51 LINKER/LOCATER V4.66.93.0                                                        04/07/2024  09:15:35  PAGE 17


      02008082H   XDATA    BYTE      CKDIV
      02008081H   XDATA    BYTE      CKSEL
*SFR* 000000D0H.7 DATA     BIT       CY
      020080D3H   XDATA    BYTE      DCB0HH
      020080D4H   XDATA    BYTE      DCB0HL
      020080D5H   XDATA    BYTE      DCB0LH
      020080D6H   XDATA    BYTE      DCB0LL
      020080D7H   XDATA    BYTE      DCB1HH
      020080D8H   XDATA    BYTE      DCB1HL
      020080D9H   XDATA    BYTE      DCB1LH
      020080DAH   XDATA    BYTE      DCB1LL
      020080D0H   XDATA    BYTE      DCCR
      020080D2H   XDATA    BYTE      DCDB
      020080D1H   XDATA    BYTE      DCDS
      020080DDH   XDATA    BYTE      DCFCR
      020080DBH   XDATA    BYTE      DCOVRH
      020080DCH   XDATA    BYTE      DCOVRL
*SFR* 00000083H   DATA     BYTE      DP0H
*SFR* 00000082H   DATA     BYTE      DP0L
*SFR* 00000085H   DATA     BYTE      DP1H
*SFR* 00000084H   DATA     BYTE      DP1L
*SFR* 000000D0H.1 DATA     BIT       DPS
*SFR* 000000A8H.7 DATA     BIT       EA
*SFR* 000000FBH   DATA     BYTE      EPCON
*SFR* 000000F9H   DATA     BYTE      EPIE
*SFR* 000000FAH   DATA     BYTE      EPIF
*SFR* 000000A8H.4 DATA     BIT       ES0
*SFR* 000000A8H.6 DATA     BIT       ES1
*SFR* 000000A8H.1 DATA     BIT       ET0
*SFR* 000000A8H.3 DATA     BIT       ET1
*SFR* 000000A8H.5 DATA     BIT       ET2
*SFR* 000000A8H.0 DATA     BIT       EX0
*SFR* 000000A8H.2 DATA     BIT       EX1
*SFR* 000000E8H   DATA     BYTE      EXIE
*SFR* 000000F8H   DATA     BYTE      EXIP
*SFR* 000000D0H.5 DATA     BIT       F0
      0200FC01H   XDATA    BYTE      FSCMD
      0200FC02H   XDATA    BYTE      FSDAT
      0200811EH   XDATA    BYTE      FTCTL
      0100000EH   CODE     ---       GLHAPS_Init
      010036E2H   CODE     ---       GLHAPS_MainThread
      01003E3DH   CODE     ---       GLHFLASH_Init
      01003E5DH   CODE     ---       GLHLM_GetCurrColorIndex
      01000036H   CODE     ---       GLHLM_GetModeIsComplete
      01003E69H   CODE     ---       GLHLM_GetStep
      01003E51H   CODE     ---       GLHLM_Init
      01003D52H   CODE     ---       GLHLM_RenderProc
      01003AA0H   CODE     ---       GLHOCP_Init
      010038A8H   CODE     ---       GLHOCP_MainThread
      01000006H   CODE     ---       GLHRGB_Init
      01003E73H   CODE     ---       GLHST_Init
*DEL*:00000000H   CODE     ---       GLHST_Pause
*DEL*:00000000H   CODE     ---       GLHST_Start
*DEL*:00000000H   CODE     ---       GLHST_Wakeup
*DEL*:00000000H   CODE     ---       GLHUART_Init
*DEL*:00000000H   CODE     ---       GLHUART_MainLoop
      01003E6FH   CODE     ---       GLHWD_Clear
      01003E2BH   CODE     ---       GLHWD_Init
*DEL*:00000000H   CODE     ---       GLHWD_Start
*DEL*:00000000H   CODE     ---       GLHWD_Stop
      0200037EH   XDATA    DWORD     GulSystickCount
*SFR* 000000B3H   DATA     BYTE      I2CADM
*SFR* 000000B2H   DATA     BYTE      I2CADR
*SFR* 000000B1H   DATA     BYTE      I2CCON
*SFR* 000000B4H   DATA     BYTE      I2CCR
LX51 LINKER/LOCATER V4.66.93.0                                                        04/07/2024  09:15:35  PAGE 18


*SFR* 000000B5H   DATA     BYTE      I2CDAT
*SFR* 000000B7H   DATA     BYTE      I2CFLG
      02008101H   XDATA    BYTE      I2CIOS
*SFR* 000000B6H   DATA     BYTE      I2CSTA
*SFR* 000000FDH   DATA     BYTE      IDLSTH
*SFR* 000000FCH   DATA     BYTE      IDLSTL
*SFR* 000000A8H   DATA     BYTE      IE
*SFR* 00000088H.1 DATA     BIT       IE0
*SFR* 00000088H.3 DATA     BIT       IE1
      02008084H   XDATA    BYTE      IHCFGH
      02008083H   XDATA    BYTE      IHCFGL
      02008085H   XDATA    BYTE      ILCFGL
*SFR* 000000F7H   DATA     BYTE      INDEX
      0100376CH   CODE     ---       INT0_ISR
*SFR* 000000E8H.0 DATA     BIT       INT2EN
*SFR* 000000E8H.1 DATA     BIT       INT3EN
*SFR* 000000E8H.2 DATA     BIT       INT4EN
*SFR* 000000E8H.3 DATA     BIT       INT5EN
*SFR* 000000E8H.4 DATA     BIT       INT6EN
*SFR* 000000E8H.5 DATA     BIT       INT7EN
*SFR* 000000E8H.6 DATA     BIT       INT8EN
*SFR* 000000E8H.7 DATA     BIT       INT9EN
*SFR* 000000B8H   DATA     BYTE      IP
      01002509H   CODE     ---       iStatic
*SFR* 00000088H.0 DATA     BIT       IT0
*SFR* 0000008FH   DATA     BYTE      IT0CON
*SFR* 00000088H.2 DATA     BIT       IT1
*SFR* 0000008EH   DATA     BYTE      IT1CON
      0200FC03H   XDATA    BYTE      LOCK
*SFR* 000000EFH   DATA     BYTE      LVDCON
      01003E35H   CODE     ---       main
*SFR* 000000E6H   DATA     BYTE      MDUCON
*SFR* 000000E7H   DATA     BYTE      MDUDAT
      0200FC00H   XDATA    BYTE      MECON
      010021D5H   CODE     ---       ModeComepleteSyncSend
*SFR* 000000D0H.2 DATA     BIT       OV
*SFR* 000000D0H.0 DATA     BIT       P
*SFR* 00000080H   DATA     BYTE      P0
*SFR* 00000080H.0 DATA     BIT       P00
      02008120H   XDATA    BYTE      P00C
      02008000H   XDATA    BYTE      P00F
*SFR* 00000080H.1 DATA     BIT       P01
      02008121H   XDATA    BYTE      P01C
      02008001H   XDATA    BYTE      P01F
*SFR* 00000080H.2 DATA     BIT       P02
      02008122H   XDATA    BYTE      P02C
      02008002H   XDATA    BYTE      P02F
*SFR* 00000080H.3 DATA     BIT       P03
      02008123H   XDATA    BYTE      P03C
      02008003H   XDATA    BYTE      P03F
*SFR* 00000080H.4 DATA     BIT       P04
      02008124H   XDATA    BYTE      P04C
      02008004H   XDATA    BYTE      P04F
*SFR* 00000080H.5 DATA     BIT       P05
      02008125H   XDATA    BYTE      P05C
      02008005H   XDATA    BYTE      P05F
*SFR* 00000080H.6 DATA     BIT       P06
      02008126H   XDATA    BYTE      P06C
      02008006H   XDATA    BYTE      P06F
*SFR* 00000080H.7 DATA     BIT       P07
      02008127H   XDATA    BYTE      P07C
      02008007H   XDATA    BYTE      P07F
*SFR* 00000090H   DATA     BYTE      P1
*SFR* 00000090H.0 DATA     BIT       P10
      02008128H   XDATA    BYTE      P10C
LX51 LINKER/LOCATER V4.66.93.0                                                        04/07/2024  09:15:35  PAGE 19


      02008008H   XDATA    BYTE      P10F
*SFR* 00000090H.1 DATA     BIT       P11
      02008129H   XDATA    BYTE      P11C
      02008009H   XDATA    BYTE      P11F
*SFR* 00000090H.2 DATA     BIT       P12
      0200812AH   XDATA    BYTE      P12C
      0200800AH   XDATA    BYTE      P12F
*SFR* 00000090H.3 DATA     BIT       P13
      0200812BH   XDATA    BYTE      P13C
      0200800BH   XDATA    BYTE      P13F
*SFR* 00000090H.4 DATA     BIT       P14
      0200812CH   XDATA    BYTE      P14C
      0200800CH   XDATA    BYTE      P14F
*SFR* 00000090H.5 DATA     BIT       P15
      0200812DH   XDATA    BYTE      P15C
      0200800DH   XDATA    BYTE      P15F
*SFR* 00000090H.6 DATA     BIT       P16
      0200812EH   XDATA    BYTE      P16C
      0200800EH   XDATA    BYTE      P16F
*SFR* 00000090H.7 DATA     BIT       P17
      0200812FH   XDATA    BYTE      P17C
      0200800FH   XDATA    BYTE      P17F
*SFR* 000000A0H   DATA     BYTE      P2
*SFR* 000000A0H.0 DATA     BIT       P20
      02008130H   XDATA    BYTE      P20C
      02008010H   XDATA    BYTE      P20F
*SFR* 000000B0H   DATA     BYTE      P3
*SFR* 000000B0H.0 DATA     BIT       P30
      02008138H   XDATA    BYTE      P30C
      02008018H   XDATA    BYTE      P30F
      0200FC04H   XDATA    BYTE      PADRD
*SFR* 00000087H   DATA     BYTE      PCON
*SFR* 000000B8H.4 DATA     BIT       PS0
*SFR* 000000B8H.6 DATA     BIT       PS1
*SFR* 000000D0H   DATA     BYTE      PSW
*SFR* 000000B8H.1 DATA     BIT       PT0
*SFR* 000000B8H.3 DATA     BIT       PT1
*SFR* 000000B8H.5 DATA     BIT       PT2
      0200FC06H   XDATA    BYTE      PTSH
      0200FC05H   XDATA    BYTE      PTSL
*SFR* 00000086H   DATA     BYTE      PWCON
*SFR* 000000D4H   DATA     BYTE      PWMAIF
      0200809DH   XDATA    BYTE      PWMBD
*SFR* 000000D5H   DATA     BYTE      PWMBIF
*SFR* 000000DEH   DATA     BYTE      PWMCFG
*SFR* 000000D6H   DATA     BYTE      PWMCIF
*SFR* 000000DCH   DATA     BYTE      PWMCMAX
*SFR* 000000DDH   DATA     BYTE      PWMCON
*SFR* 000000D7H   DATA     BYTE      PWMDIF
*SFR* 000000D1H   DATA     BYTE      PWMDIVH
*SFR* 000000DFH   DATA     BYTE      PWMDIVL
*SFR* 000000D3H   DATA     BYTE      PWMDUTH
*SFR* 000000D2H   DATA     BYTE      PWMDUTL
*SFR* 000000DAH   DATA     BYTE      PWMEN
      0200809AH   XDATA    BYTE      PWMFBC
      0200809BH   XDATA    BYTE      PWMFBS
      02008099H   XDATA    BYTE      PWMHS
      02008098H   XDATA    BYTE      PWMPS
      0200809CH   XDATA    BYTE      PWMSBC
*SFR* 000000DBH   DATA     BYTE      PWMUPD
*SFR* 000000B8H.0 DATA     BIT       PX0
*SFR* 000000B8H.2 DATA     BIT       PX1
      020001F3H   XDATA    ---       RemoterDataTemp
      0200FC07H   XDATA    BYTE      REPSET
      01003C6BH   CODE     ---       RF24G_Change_0x38
LX51 LINKER/LOCATER V4.66.93.0                                                        04/07/2024  09:15:35  PAGE 20


      010031CBH   CODE     ---       RF24G_Init
      01003DD0H   CODE     ---       RF24G_IsTxOrRxComplete
      01002D4DH   CODE     ---       RF24G_IsWorkingNomalCheckMainThread
*SFR* 000000D0H.3 DATA     BIT       RS0
*SFR* 000000D0H.4 DATA     BIT       RS1
*SFR* 0000009BH   DATA     BYTE      S1BUF
*SFR* 0000009AH   DATA     BYTE      S1CON
*SFR* 0000009DH   DATA     BYTE      S1RELH
*SFR* 0000009CH   DATA     BYTE      S1RELL
*SFR* 000000A2H   DATA     BYTE      S2BUF
*SFR* 000000A1H   DATA     BYTE      S2CON
*SFR* 000000A4H   DATA     BYTE      S2RELH
*SFR* 000000A3H   DATA     BYTE      S2RELL
*SFR* 00000081H   DATA     BYTE      SP
*SFR* 000000A5H   DATA     BYTE      SPCON
*SFR* 000000A6H   DATA     BYTE      SPDAT
      02008100H   XDATA    BYTE      SPMAX
*SFR* 000000A7H   DATA     BYTE      SPSTA
*SFR* 000000FFH   DATA     BYTE      STPSTH
*SFR* 000000FEH   DATA     BYTE      STPSTL
      020080B0H   XDATA    BYTE      SWICON
      020080B1H   XDATA    BYTE      SWIDAT
      020080B3H   XDATA    BYTE      SWIOVT
      020080B2H   XDATA    BYTE      SWISTA
*DEL*:00000000H   CODE     ---       Sys_Clk_Set_IRCH
*DEL*:00000000H   CODE     ---       Sys_Clk_Set_IRCL
*DEL*:00000000H   CODE     ---       Sys_Clk_Set_XCLK_IN
*DEL*:00000000H   CODE     ---       Sys_Clk_Set_XOSCH
*SFR* 000000CBH   DATA     BYTE      T2CH
*SFR* 000000CAH   DATA     BYTE      T2CL
*SFR* 000000C8H   DATA     BYTE      T2CON
      020080A1H   XDATA    BYTE      T2CPCHS
      020080A2H   XDATA    BYTE      T2CPF
      020080A4H   XDATA    BYTE      T2CPH
      020080A3H   XDATA    BYTE      T2CPL
      020080A0H   XDATA    BYTE      T2CPPS
*SFR* 000000C8H.3 DATA     BIT       T2IE
*SFR* 000000C9H   DATA     BYTE      T2MOD
*SFR* 000000C8H.0 DATA     BIT       T2P0
*SFR* 000000C8H.1 DATA     BIT       T2P1
*SFR* 000000C8H.4 DATA     BIT       T2R0
*SFR* 000000C8H.5 DATA     BIT       T2R1
*SFR* 00000088H   DATA     BYTE      TCON
*SFR* 00000088H.5 DATA     BIT       TF0
*SFR* 00000088H.7 DATA     BIT       TF1
*SFR* 000000C8H.7 DATA     BIT       TF2
*SFR* 0000008CH   DATA     BYTE      TH0
*SFR* 0000008DH   DATA     BYTE      TH1
*SFR* 000000CDH   DATA     BYTE      TH2
      010035F6H   CODE     ---       TIMER0_ISR
*SFR* 0000008AH   DATA     BYTE      TL0
*SFR* 0000008BH   DATA     BYTE      TL1
*SFR* 000000CCH   DATA     BYTE      TL2
      020080A8H   XDATA    BYTE      TMCON
*SFR* 00000089H   DATA     BYTE      TMOD
      020080A9H   XDATA    BYTE      TMSNU
      0200811FH   XDATA    BYTE      TPCTL
*SFR* 00000088H.4 DATA     BIT       TR0
*SFR* 00000088H.6 DATA     BIT       TR1
*SFR* 000000C8H.6 DATA     BIT       TR2
      020080F8H   XDATA    BYTE      TSCMD
      020080F9H   XDATA    BYTE      TSSTA
      020080FAH   XDATA    BYTE      TSSWC
      01003EC7H   CONST    ---       u16BnTable
      01003ACEH   CODE     ---       UART1_ISR
LX51 LINKER/LOCATER V4.66.93.0                                                        04/07/2024  09:15:35  PAGE 21


      0100340AH   CODE     ---       UART2_ISR
      02000200H   XDATA    ---       uart2_rev
      02000202H   XDATA    ---       uart2_rx_buf
      0200027AH   XDATA    ---       uart2_send
      02000266H   XDATA    ---       uart2_tx_buf
      00000020H.0 BIT      BIT       uart2_tx_flag
*SFR* 000000C8H.2 DATA     BIT       UCKS
      02008118H   XDATA    BYTE      UDCKS1
      02008119H   XDATA    BYTE      UDCKS2
*SFR* 000000AAH   DATA     BYTE      WDCON
*SFR* 000000ABH   DATA     BYTE      WDFLG
*SFR* 000000ADH   DATA     BYTE      WDVTHH
*SFR* 000000ACH   DATA     BYTE      WDVTHL



SYMBOL TABLE OF MODULE:  .\output\ca51f003 (UART)

      VALUE       REP       CLASS    TYPE      SYMBOL NAME
      ====================================================
      ---         MODULE    ---      ---       UART
      0200027AH   PUBLIC    XDATA    ---       uart2_send
      02000266H   PUBLIC    XDATA    ---       uart2_tx_buf
      02000202H   PUBLIC    XDATA    ---       uart2_rx_buf
      00000020H.0 PUBLIC    BIT      BIT       uart2_tx_flag
      02000200H   PUBLIC    XDATA    ---       uart2_rev
      0100340AH   PUBLIC    CODE     ---       UART2_ISR
      00000080H   SFRSYM    DATA     BYTE      P0
      00000090H   SFRSYM    DATA     BYTE      P1
      000000A0H   SFRSYM    DATA     BYTE      P2
      000000B0H   SFRSYM    DATA     BYTE      P3
      000000D0H.6 SFRSYM    DATA     BIT       AC
      000000A5H   SFRSYM    DATA     BYTE      SPCON
      000000A8H.7 SFRSYM    DATA     BIT       EA
      000000C8H.0 SFRSYM    DATA     BIT       T2P0
      000000C8H.1 SFRSYM    DATA     BIT       T2P1
      000000C8H.4 SFRSYM    DATA     BIT       T2R0
      000000DAH   SFRSYM    DATA     BYTE      PWMEN
      00000086H   SFRSYM    DATA     BYTE      PWCON
      000000C8H.5 SFRSYM    DATA     BIT       T2R1
      000000A7H   SFRSYM    DATA     BYTE      SPSTA
      00000083H   SFRSYM    DATA     BYTE      DP0H
      000000A8H   SFRSYM    DATA     BYTE      IE
      00000085H   SFRSYM    DATA     BYTE      DP1H
      00000082H   SFRSYM    DATA     BYTE      DP0L
      000000CBH   SFRSYM    DATA     BYTE      T2CH
      000000B3H   SFRSYM    DATA     BYTE      I2CADM
      00000084H   SFRSYM    DATA     BYTE      DP1L
      000000C8H.3 SFRSYM    DATA     BIT       T2IE
      000000CAH   SFRSYM    DATA     BYTE      T2CL
      000000B2H   SFRSYM    DATA     BYTE      I2CADR
      000000B8H   SFRSYM    DATA     BYTE      IP
      000000B7H   SFRSYM    DATA     BYTE      I2CFLG
      000000B5H   SFRSYM    DATA     BYTE      I2CDAT
      000000D0H.7 SFRSYM    DATA     BIT       CY
      000000BBH   SFRSYM    DATA     BYTE      ADCFGH
      000000DCH   SFRSYM    DATA     BYTE      PWMCMAX
      000000B1H   SFRSYM    DATA     BYTE      I2CCON
      000000D1H   SFRSYM    DATA     BYTE      PWMDIVH
      000000BAH   SFRSYM    DATA     BYTE      ADCFGL
      00000081H   SFRSYM    DATA     BYTE      SP
      000000F9H   SFRSYM    DATA     BYTE      EPIE
      000000D0H.2 SFRSYM    DATA     BIT       OV
      000000FAH   SFRSYM    DATA     BYTE      EPIF
      000000DFH   SFRSYM    DATA     BYTE      PWMDIVL
LX51 LINKER/LOCATER V4.66.93.0                                                        04/07/2024  09:15:35  PAGE 22


      000000B6H   SFRSYM    DATA     BYTE      I2CSTA
      000000E8H   SFRSYM    DATA     BYTE      EXIE
      000000D3H   SFRSYM    DATA     BYTE      PWMDUTH
      0000008FH   SFRSYM    DATA     BYTE      IT0CON
      00000080H.0 SFRSYM    DATA     BIT       P00
      000000D2H   SFRSYM    DATA     BYTE      PWMDUTL
      0000008EH   SFRSYM    DATA     BYTE      IT1CON
      00000090H.0 SFRSYM    DATA     BIT       P10
      00000080H.1 SFRSYM    DATA     BIT       P01
      0000009DH   SFRSYM    DATA     BYTE      S1RELH
      00000087H   SFRSYM    DATA     BYTE      PCON
      000000A0H.0 SFRSYM    DATA     BIT       P20
      00000090H.1 SFRSYM    DATA     BIT       P11
      00000080H.2 SFRSYM    DATA     BIT       P02
      000000E8H.0 SFRSYM    DATA     BIT       INT2EN
      000000A4H   SFRSYM    DATA     BYTE      S2RELH
      000000B0H.0 SFRSYM    DATA     BIT       P30
      00000090H.2 SFRSYM    DATA     BIT       P12
      00000080H.3 SFRSYM    DATA     BIT       P03
      000000E8H.1 SFRSYM    DATA     BIT       INT3EN
      00000090H.3 SFRSYM    DATA     BIT       P13
      00000080H.4 SFRSYM    DATA     BIT       P04
      000000E8H.2 SFRSYM    DATA     BIT       INT4EN
      00000090H.4 SFRSYM    DATA     BIT       P14
      00000080H.5 SFRSYM    DATA     BIT       P05
      000000E8H.3 SFRSYM    DATA     BIT       INT5EN
      0000009CH   SFRSYM    DATA     BYTE      S1RELL
      00000089H   SFRSYM    DATA     BYTE      TMOD
      00000088H   SFRSYM    DATA     BYTE      TCON
      00000090H.5 SFRSYM    DATA     BIT       P15
      00000080H.6 SFRSYM    DATA     BIT       P06
      000000E8H.4 SFRSYM    DATA     BIT       INT6EN
      000000A3H   SFRSYM    DATA     BYTE      S2RELL
      00000090H.6 SFRSYM    DATA     BIT       P16
      00000080H.7 SFRSYM    DATA     BIT       P07
      000000E8H.5 SFRSYM    DATA     BIT       INT7EN
      000000C8H.2 SFRSYM    DATA     BIT       UCKS
      000000F8H   SFRSYM    DATA     BYTE      EXIP
      00000090H.7 SFRSYM    DATA     BIT       P17
      000000E8H.6 SFRSYM    DATA     BIT       INT8EN
      000000E8H.7 SFRSYM    DATA     BIT       INT9EN
      00000088H.1 SFRSYM    DATA     BIT       IE0
      00000088H.3 SFRSYM    DATA     BIT       IE1
      000000F0H   SFRSYM    DATA     BYTE      B
      000000E7H   SFRSYM    DATA     BYTE      MDUDAT
      000000DEH   SFRSYM    DATA     BYTE      PWMCFG
      000000D4H   SFRSYM    DATA     BYTE      PWMAIF
      000000E0H   SFRSYM    DATA     BYTE      ACC
      000000D5H   SFRSYM    DATA     BYTE      PWMBIF
      000000A8H.4 SFRSYM    DATA     BIT       ES0
      000000EFH   SFRSYM    DATA     BYTE      LVDCON
      000000E6H   SFRSYM    DATA     BYTE      MDUCON
      000000D6H   SFRSYM    DATA     BYTE      PWMCIF
      000000A8H.1 SFRSYM    DATA     BIT       ET0
      000000A8H.6 SFRSYM    DATA     BIT       ES1
      000000D7H   SFRSYM    DATA     BYTE      PWMDIF
      000000A8H.3 SFRSYM    DATA     BIT       ET1
      00000088H.5 SFRSYM    DATA     BIT       TF0
      000000FDH   SFRSYM    DATA     BYTE      IDLSTH
      000000A8H.5 SFRSYM    DATA     BIT       ET2
      00000088H.7 SFRSYM    DATA     BIT       TF1
      000000C8H.7 SFRSYM    DATA     BIT       TF2
      0000008CH   SFRSYM    DATA     BYTE      TH0
      000000A8H.0 SFRSYM    DATA     BIT       EX0
      00000088H.0 SFRSYM    DATA     BIT       IT0
LX51 LINKER/LOCATER V4.66.93.0                                                        04/07/2024  09:15:35  PAGE 23


      0000008DH   SFRSYM    DATA     BYTE      TH1
      000000A8H.2 SFRSYM    DATA     BIT       EX1
      00000088H.2 SFRSYM    DATA     BIT       IT1
      000000FCH   SFRSYM    DATA     BYTE      IDLSTL
      000000CDH   SFRSYM    DATA     BYTE      TH2
      000000D0H.0 SFRSYM    DATA     BIT       P
      0000008AH   SFRSYM    DATA     BYTE      TL0
      0000008BH   SFRSYM    DATA     BYTE      TL1
      000000CCH   SFRSYM    DATA     BYTE      TL2
      000000B8H.4 SFRSYM    DATA     BIT       PS0
      000000B8H.1 SFRSYM    DATA     BIT       PT0
      000000B8H.6 SFRSYM    DATA     BIT       PS1
      000000B4H   SFRSYM    DATA     BYTE      I2CCR
      000000B8H.3 SFRSYM    DATA     BIT       PT1
      000000D0H.3 SFRSYM    DATA     BIT       RS0
      000000BDH   SFRSYM    DATA     BYTE      ADCDH
      000000B8H.5 SFRSYM    DATA     BIT       PT2
      00000088H.4 SFRSYM    DATA     BIT       TR0
      000000D0H.4 SFRSYM    DATA     BIT       RS1
      000000DDH   SFRSYM    DATA     BYTE      PWMCON
      00000088H.6 SFRSYM    DATA     BIT       TR1
      000000ADH   SFRSYM    DATA     BYTE      WDVTHH
      000000C8H.6 SFRSYM    DATA     BIT       TR2
      000000B8H.0 SFRSYM    DATA     BIT       PX0
      000000B8H.2 SFRSYM    DATA     BIT       PX1
      000000BCH   SFRSYM    DATA     BYTE      ADCDL
      000000ACH   SFRSYM    DATA     BYTE      WDVTHL
      000000DBH   SFRSYM    DATA     BYTE      PWMUPD
      0000009BH   SFRSYM    DATA     BYTE      S1BUF
      000000A2H   SFRSYM    DATA     BYTE      S2BUF
      0000009AH   SFRSYM    DATA     BYTE      S1CON
      000000B9H   SFRSYM    DATA     BYTE      ADCON
      000000A1H   SFRSYM    DATA     BYTE      S2CON
      000000D0H.1 SFRSYM    DATA     BIT       DPS
      000000C9H   SFRSYM    DATA     BYTE      T2MOD
      000000C8H   SFRSYM    DATA     BYTE      T2CON
      000000FFH   SFRSYM    DATA     BYTE      STPSTH
      000000FEH   SFRSYM    DATA     BYTE      STPSTL
      000000D0H.5 SFRSYM    DATA     BIT       F0
      000000ABH   SFRSYM    DATA     BYTE      WDFLG
      000000FBH   SFRSYM    DATA     BYTE      EPCON
      000000F7H   SFRSYM    DATA     BYTE      INDEX
      000000D0H   SFRSYM    DATA     BYTE      PSW
      000000AAH   SFRSYM    DATA     BYTE      WDCON
      000000A6H   SFRSYM    DATA     BYTE      SPDAT

      01003B22H   BLOCK     CODE     ---       LVL=0
      ---         BLOCKEND  ---      ---       LVL=0
      00000007H   SYMBOL    DATA     BYTE      bdat
      00000006H   SYMBOL    DATA     BYTE      free_space
      00000005H   SYMBOL    DATA     BYTE      tail_tmp

      0100340AH   BLOCK     CODE     ---       LVL=0
      0100340AH   LINE      CODE     ---       #203
      01003419H   LINE      CODE     ---       #205
      0100341EH   LINE      CODE     ---       #206
      0100341EH   LINE      CODE     ---       #207
      01003426H   LINE      CODE     ---       #208
      0100342CH   LINE      CODE     ---       #209
      01003434H   LINE      CODE     ---       #210
      01003441H   LINE      CODE     ---       #211
      01003441H   LINE      CODE     ---       #212
      01003446H   LINE      CODE     ---       #213
      01003446H   LINE      CODE     ---       #214
      0100344EH   LINE      CODE     ---       #215
LX51 LINKER/LOCATER V4.66.93.0                                                        04/07/2024  09:15:35  PAGE 24


      0100345AH   LINE      CODE     ---       #216
      0100345AH   LINE      CODE     ---       #217
      0100345BH   LINE      CODE     ---       #218
      0100345BH   LINE      CODE     ---       #219
      01003461H   LINE      CODE     ---       #220
      01003463H   LINE      CODE     ---       #222
      01003463H   LINE      CODE     ---       #223
      01003465H   LINE      CODE     ---       #224
      01003465H   LINE      CODE     ---       #225
      01003465H   LINE      CODE     ---       #226
      ---         BLOCKEND  ---      ---       LVL=0

      ---         MODULE    ---      ---       MAIN
      02008007H   PUBLIC    XDATA    BYTE      P07F
      0200800EH   PUBLIC    XDATA    BYTE      P16F
      020080C0H   PUBLIC    XDATA    BYTE      BZCON
      02008006H   PUBLIC    XDATA    BYTE      P06F
      0200800DH   PUBLIC    XDATA    BYTE      P15F
      020080F8H   PUBLIC    XDATA    BYTE      TSCMD
      02008005H   PUBLIC    XDATA    BYTE      P05F
      0200800CH   PUBLIC    XDATA    BYTE      P14F
      0200809DH   PUBLIC    XDATA    BYTE      PWMBD
      0200812FH   PUBLIC    XDATA    BYTE      P17C
      02008004H   PUBLIC    XDATA    BYTE      P04F
      0200800BH   PUBLIC    XDATA    BYTE      P13F
      02008127H   PUBLIC    XDATA    BYTE      P07C
      0200812EH   PUBLIC    XDATA    BYTE      P16C
      02008003H   PUBLIC    XDATA    BYTE      P03F
      0200800AH   PUBLIC    XDATA    BYTE      P12F
      02008018H   PUBLIC    XDATA    BYTE      P30F
      020080A1H   PUBLIC    XDATA    BYTE      T2CPCHS
      02008126H   PUBLIC    XDATA    BYTE      P06C
      0200812DH   PUBLIC    XDATA    BYTE      P15C
      02008002H   PUBLIC    XDATA    BYTE      P02F
      02008009H   PUBLIC    XDATA    BYTE      P11F
      02008010H   PUBLIC    XDATA    BYTE      P20F
      02008125H   PUBLIC    XDATA    BYTE      P05C
      0200812CH   PUBLIC    XDATA    BYTE      P14C
      02008001H   PUBLIC    XDATA    BYTE      P01F
      02008008H   PUBLIC    XDATA    BYTE      P10F
      02008124H   PUBLIC    XDATA    BYTE      P04C
      0200812BH   PUBLIC    XDATA    BYTE      P13C
      02008000H   PUBLIC    XDATA    BYTE      P00F
      02008123H   PUBLIC    XDATA    BYTE      P03C
      0200812AH   PUBLIC    XDATA    BYTE      P12C
      02008138H   PUBLIC    XDATA    BYTE      P30C
      02008122H   PUBLIC    XDATA    BYTE      P02C
      02008129H   PUBLIC    XDATA    BYTE      P11C
      02008130H   PUBLIC    XDATA    BYTE      P20C
      02008121H   PUBLIC    XDATA    BYTE      P01C
      02008128H   PUBLIC    XDATA    BYTE      P10C
      02008081H   PUBLIC    XDATA    BYTE      CKSEL
      02008120H   PUBLIC    XDATA    BYTE      P00C
      0200FC00H   PUBLIC    XDATA    BYTE      MECON
      0200FC02H   PUBLIC    XDATA    BYTE      FSDAT
      02008082H   PUBLIC    XDATA    BYTE      CKDIV
      02008080H   PUBLIC    XDATA    BYTE      CKCON
      020080B3H   PUBLIC    XDATA    BYTE      SWIOVT
      0200FC01H   PUBLIC    XDATA    BYTE      FSCMD
      0200FC04H   PUBLIC    XDATA    BYTE      PADRD
      0200808FH   PUBLIC    XDATA    BYTE      ADOPC
      020080A3H   PUBLIC    XDATA    BYTE      T2CPL
      020080DDH   PUBLIC    XDATA    BYTE      DCFCR
      020080A4H   PUBLIC    XDATA    BYTE      T2CPH
      020080A2H   PUBLIC    XDATA    BYTE      T2CPF
LX51 LINKER/LOCATER V4.66.93.0                                                        04/07/2024  09:15:35  PAGE 25


      020080B2H   PUBLIC    XDATA    BYTE      SWISTA
      02008094H   PUBLIC    XDATA    BYTE      ACPBC
      020080C3H   PUBLIC    XDATA    BYTE      BZDUTL
      020080B0H   PUBLIC    XDATA    BYTE      SWICON
      0200FC07H   PUBLIC    XDATA    BYTE      REPSET
      020080C4H   PUBLIC    XDATA    BYTE      BZDUTH
      0200809BH   PUBLIC    XDATA    BYTE      PWMFBS
      0200809CH   PUBLIC    XDATA    BYTE      PWMSBC
      020080B1H   PUBLIC    XDATA    BYTE      SWIDAT
      020080C1H   PUBLIC    XDATA    BYTE      BZDIVL
      020080DCH   PUBLIC    XDATA    BYTE      DCOVRL
      020080C2H   PUBLIC    XDATA    BYTE      BZDIVH
      020080DBH   PUBLIC    XDATA    BYTE      DCOVRH
      0200FC05H   PUBLIC    XDATA    BYTE      PTSL
      020080B9H   PUBLIC    XDATA    BYTE      AMPAOS
      0200809AH   PUBLIC    XDATA    BYTE      PWMFBC
      020080B8H   PUBLIC    XDATA    BYTE      AMPCON
      0200FC06H   PUBLIC    XDATA    BYTE      PTSH
      020080A0H   PUBLIC    XDATA    BYTE      T2CPPS
      02008085H   PUBLIC    XDATA    BYTE      ILCFGL
      0200808AH   PUBLIC    XDATA    BYTE      ACPDLL
      02008083H   PUBLIC    XDATA    BYTE      IHCFGL
      0200808BH   PUBLIC    XDATA    BYTE      ACPDLH
      0200808CH   PUBLIC    XDATA    BYTE      ACPDHL
      02008119H   PUBLIC    XDATA    BYTE      UDCKS2
      02008118H   PUBLIC    XDATA    BYTE      UDCKS1
      02008084H   PUBLIC    XDATA    BYTE      IHCFGH
      02008101H   PUBLIC    XDATA    BYTE      I2CIOS
      0200808DH   PUBLIC    XDATA    BYTE      ACPDHH
      0200FC03H   PUBLIC    XDATA    BYTE      LOCK
      02008088H   PUBLIC    XDATA    BYTE      ADCALL
      02008089H   PUBLIC    XDATA    BYTE      ADCALH
      020080D1H   PUBLIC    XDATA    BYTE      DCDS
      020080D0H   PUBLIC    XDATA    BYTE      DCCR
      02008098H   PUBLIC    XDATA    BYTE      PWMPS
      020080A9H   PUBLIC    XDATA    BYTE      TMSNU
      020080FAH   PUBLIC    XDATA    BYTE      TSSWC
      020080DAH   PUBLIC    XDATA    BYTE      DCB1LL
      020080D6H   PUBLIC    XDATA    BYTE      DCB0LL
      02008099H   PUBLIC    XDATA    BYTE      PWMHS
      020080F9H   PUBLIC    XDATA    BYTE      TSSTA
      020080D8H   PUBLIC    XDATA    BYTE      DCB1HL
      020080D9H   PUBLIC    XDATA    BYTE      DCB1LH
      020080D4H   PUBLIC    XDATA    BYTE      DCB0HL
      020080D5H   PUBLIC    XDATA    BYTE      DCB0LH
      020080D2H   PUBLIC    XDATA    BYTE      DCDB
      020080D7H   PUBLIC    XDATA    BYTE      DCB1HH
      020080D3H   PUBLIC    XDATA    BYTE      DCB0HH
      02008100H   PUBLIC    XDATA    BYTE      SPMAX
      0200811FH   PUBLIC    XDATA    BYTE      TPCTL
      020080A8H   PUBLIC    XDATA    BYTE      TMCON
      0200800FH   PUBLIC    XDATA    BYTE      P17F
      0200811EH   PUBLIC    XDATA    BYTE      FTCTL
      01003E35H   PUBLIC    CODE     ---       main
      00000080H   SFRSYM    DATA     BYTE      P0
      00000090H   SFRSYM    DATA     BYTE      P1
      000000A0H   SFRSYM    DATA     BYTE      P2
      000000B0H   SFRSYM    DATA     BYTE      P3
      000000D0H.6 SFRSYM    DATA     BIT       AC
      000000A5H   SFRSYM    DATA     BYTE      SPCON
      000000A8H.7 SFRSYM    DATA     BIT       EA
      000000C8H.0 SFRSYM    DATA     BIT       T2P0
      000000C8H.1 SFRSYM    DATA     BIT       T2P1
      000000C8H.4 SFRSYM    DATA     BIT       T2R0
      000000DAH   SFRSYM    DATA     BYTE      PWMEN
LX51 LINKER/LOCATER V4.66.93.0                                                        04/07/2024  09:15:35  PAGE 26


      00000086H   SFRSYM    DATA     BYTE      PWCON
      000000C8H.5 SFRSYM    DATA     BIT       T2R1
      000000A7H   SFRSYM    DATA     BYTE      SPSTA
      00000083H   SFRSYM    DATA     BYTE      DP0H
      000000A8H   SFRSYM    DATA     BYTE      IE
      00000085H   SFRSYM    DATA     BYTE      DP1H
      00000082H   SFRSYM    DATA     BYTE      DP0L
      000000CBH   SFRSYM    DATA     BYTE      T2CH
      000000B3H   SFRSYM    DATA     BYTE      I2CADM
      00000084H   SFRSYM    DATA     BYTE      DP1L
      000000C8H.3 SFRSYM    DATA     BIT       T2IE
      000000CAH   SFRSYM    DATA     BYTE      T2CL
      000000B2H   SFRSYM    DATA     BYTE      I2CADR
      000000B8H   SFRSYM    DATA     BYTE      IP
      000000B7H   SFRSYM    DATA     BYTE      I2CFLG
      000000B5H   SFRSYM    DATA     BYTE      I2CDAT
      000000D0H.7 SFRSYM    DATA     BIT       CY
      000000BBH   SFRSYM    DATA     BYTE      ADCFGH
      000000DCH   SFRSYM    DATA     BYTE      PWMCMAX
      000000B1H   SFRSYM    DATA     BYTE      I2CCON
      000000D1H   SFRSYM    DATA     BYTE      PWMDIVH
      000000BAH   SFRSYM    DATA     BYTE      ADCFGL
      00000081H   SFRSYM    DATA     BYTE      SP
      000000F9H   SFRSYM    DATA     BYTE      EPIE
      000000D0H.2 SFRSYM    DATA     BIT       OV
      000000FAH   SFRSYM    DATA     BYTE      EPIF
      000000DFH   SFRSYM    DATA     BYTE      PWMDIVL
      000000B6H   SFRSYM    DATA     BYTE      I2CSTA
      000000E8H   SFRSYM    DATA     BYTE      EXIE
      000000D3H   SFRSYM    DATA     BYTE      PWMDUTH
      0000008FH   SFRSYM    DATA     BYTE      IT0CON
      00000080H.0 SFRSYM    DATA     BIT       P00
      000000D2H   SFRSYM    DATA     BYTE      PWMDUTL
      0000008EH   SFRSYM    DATA     BYTE      IT1CON
      00000090H.0 SFRSYM    DATA     BIT       P10
      00000080H.1 SFRSYM    DATA     BIT       P01
      0000009DH   SFRSYM    DATA     BYTE      S1RELH
      00000087H   SFRSYM    DATA     BYTE      PCON
      000000A0H.0 SFRSYM    DATA     BIT       P20
      00000090H.1 SFRSYM    DATA     BIT       P11
      00000080H.2 SFRSYM    DATA     BIT       P02
      000000E8H.0 SFRSYM    DATA     BIT       INT2EN
      000000A4H   SFRSYM    DATA     BYTE      S2RELH
      000000B0H.0 SFRSYM    DATA     BIT       P30
      00000090H.2 SFRSYM    DATA     BIT       P12
      00000080H.3 SFRSYM    DATA     BIT       P03
      000000E8H.1 SFRSYM    DATA     BIT       INT3EN
      00000090H.3 SFRSYM    DATA     BIT       P13
      00000080H.4 SFRSYM    DATA     BIT       P04
      000000E8H.2 SFRSYM    DATA     BIT       INT4EN
      00000090H.4 SFRSYM    DATA     BIT       P14
      00000080H.5 SFRSYM    DATA     BIT       P05
      000000E8H.3 SFRSYM    DATA     BIT       INT5EN
      0000009CH   SFRSYM    DATA     BYTE      S1RELL
      00000089H   SFRSYM    DATA     BYTE      TMOD
      00000088H   SFRSYM    DATA     BYTE      TCON
      00000090H.5 SFRSYM    DATA     BIT       P15
      00000080H.6 SFRSYM    DATA     BIT       P06
      000000E8H.4 SFRSYM    DATA     BIT       INT6EN
      000000A3H   SFRSYM    DATA     BYTE      S2RELL
      00000090H.6 SFRSYM    DATA     BIT       P16
      00000080H.7 SFRSYM    DATA     BIT       P07
      000000E8H.5 SFRSYM    DATA     BIT       INT7EN
      000000C8H.2 SFRSYM    DATA     BIT       UCKS
      000000F8H   SFRSYM    DATA     BYTE      EXIP
LX51 LINKER/LOCATER V4.66.93.0                                                        04/07/2024  09:15:35  PAGE 27


      00000090H.7 SFRSYM    DATA     BIT       P17
      000000E8H.6 SFRSYM    DATA     BIT       INT8EN
      000000E8H.7 SFRSYM    DATA     BIT       INT9EN
      00000088H.1 SFRSYM    DATA     BIT       IE0
      00000088H.3 SFRSYM    DATA     BIT       IE1
      000000F0H   SFRSYM    DATA     BYTE      B
      000000E7H   SFRSYM    DATA     BYTE      MDUDAT
      000000DEH   SFRSYM    DATA     BYTE      PWMCFG
      000000D4H   SFRSYM    DATA     BYTE      PWMAIF
      000000E0H   SFRSYM    DATA     BYTE      ACC
      000000D5H   SFRSYM    DATA     BYTE      PWMBIF
      000000A8H.4 SFRSYM    DATA     BIT       ES0
      000000EFH   SFRSYM    DATA     BYTE      LVDCON
      000000E6H   SFRSYM    DATA     BYTE      MDUCON
      000000D6H   SFRSYM    DATA     BYTE      PWMCIF
      000000A8H.1 SFRSYM    DATA     BIT       ET0
      000000A8H.6 SFRSYM    DATA     BIT       ES1
      000000D7H   SFRSYM    DATA     BYTE      PWMDIF
      000000A8H.3 SFRSYM    DATA     BIT       ET1
      00000088H.5 SFRSYM    DATA     BIT       TF0
      000000FDH   SFRSYM    DATA     BYTE      IDLSTH
      000000A8H.5 SFRSYM    DATA     BIT       ET2
      00000088H.7 SFRSYM    DATA     BIT       TF1
      000000C8H.7 SFRSYM    DATA     BIT       TF2
      0000008CH   SFRSYM    DATA     BYTE      TH0
      000000A8H.0 SFRSYM    DATA     BIT       EX0
      00000088H.0 SFRSYM    DATA     BIT       IT0
      0000008DH   SFRSYM    DATA     BYTE      TH1
      000000A8H.2 SFRSYM    DATA     BIT       EX1
      00000088H.2 SFRSYM    DATA     BIT       IT1
      000000FCH   SFRSYM    DATA     BYTE      IDLSTL
      000000CDH   SFRSYM    DATA     BYTE      TH2
      000000D0H.0 SFRSYM    DATA     BIT       P
      0000008AH   SFRSYM    DATA     BYTE      TL0
      0000008BH   SFRSYM    DATA     BYTE      TL1
      000000CCH   SFRSYM    DATA     BYTE      TL2
      000000B8H.4 SFRSYM    DATA     BIT       PS0
      000000B8H.1 SFRSYM    DATA     BIT       PT0
      000000B8H.6 SFRSYM    DATA     BIT       PS1
      000000B4H   SFRSYM    DATA     BYTE      I2CCR
      000000B8H.3 SFRSYM    DATA     BIT       PT1
      000000D0H.3 SFRSYM    DATA     BIT       RS0
      000000BDH   SFRSYM    DATA     BYTE      ADCDH
      000000B8H.5 SFRSYM    DATA     BIT       PT2
      00000088H.4 SFRSYM    DATA     BIT       TR0
      000000D0H.4 SFRSYM    DATA     BIT       RS1
      000000DDH   SFRSYM    DATA     BYTE      PWMCON
      00000088H.6 SFRSYM    DATA     BIT       TR1
      000000ADH   SFRSYM    DATA     BYTE      WDVTHH
      000000C8H.6 SFRSYM    DATA     BIT       TR2
      000000B8H.0 SFRSYM    DATA     BIT       PX0
      000000B8H.2 SFRSYM    DATA     BIT       PX1
      000000BCH   SFRSYM    DATA     BYTE      ADCDL
      000000ACH   SFRSYM    DATA     BYTE      WDVTHL
      000000DBH   SFRSYM    DATA     BYTE      PWMUPD
      0000009BH   SFRSYM    DATA     BYTE      S1BUF
      000000A2H   SFRSYM    DATA     BYTE      S2BUF
      0000009AH   SFRSYM    DATA     BYTE      S1CON
      000000B9H   SFRSYM    DATA     BYTE      ADCON
      000000A1H   SFRSYM    DATA     BYTE      S2CON
      000000D0H.1 SFRSYM    DATA     BIT       DPS
      000000C9H   SFRSYM    DATA     BYTE      T2MOD
      000000C8H   SFRSYM    DATA     BYTE      T2CON
      000000FFH   SFRSYM    DATA     BYTE      STPSTH
      000000FEH   SFRSYM    DATA     BYTE      STPSTL
LX51 LINKER/LOCATER V4.66.93.0                                                        04/07/2024  09:15:35  PAGE 28


      000000D0H.5 SFRSYM    DATA     BIT       F0
      000000ABH   SFRSYM    DATA     BYTE      WDFLG
      000000FBH   SFRSYM    DATA     BYTE      EPCON
      000000F7H   SFRSYM    DATA     BYTE      INDEX
      000000D0H   SFRSYM    DATA     BYTE      PSW
      000000AAH   SFRSYM    DATA     BYTE      WDCON
      000000A6H   SFRSYM    DATA     BYTE      SPDAT

      01003E35H   BLOCK     CODE     ---       LVL=0
      01003E35H   LINE      CODE     ---       #18
      01003E35H   LINE      CODE     ---       #19
      01003E35H   LINE      CODE     ---       #20
      01003E38H   LINE      CODE     ---       #22
      01003E38H   LINE      CODE     ---       #23
      01003E38H   LINE      CODE     ---       #24
      01003E3BH   LINE      CODE     ---       #25
      ---         BLOCKEND  ---      ---       LVL=0

      ---         MODULE    ---      ---       DELAY
      01003C8CH   PUBLIC    CODE     ---       _Delay_ms
      01003D1EH   PUBLIC    CODE     ---       _Delay_50us

      01003D1EH   BLOCK     CODE     ---       LVL=0
      00000006H   SYMBOL    DATA     WORD      n
      01003D1EH   BLOCK     CODE     NEAR LAB  LVL=1
      00000005H   SYMBOL    DATA     BYTE      i
      ---         BLOCKEND  ---      ---       LVL=1
      01003D1EH   LINE      CODE     ---       #4
      01003D1EH   LINE      CODE     ---       #5
      01003D1EH   LINE      CODE     ---       #8
      01003D28H   LINE      CODE     ---       #9
      01003D28H   LINE      CODE     ---       #10
      01003D37H   LINE      CODE     ---       #11
      01003D37H   LINE      CODE     ---       #12
      ---         BLOCKEND  ---      ---       LVL=0

      01003C8CH   BLOCK     CODE     ---       LVL=0
      0200035EH   SYMBOL    XDATA    WORD      delay_nms
      01003C8CH   LINE      CODE     ---       #13
      01003C94H   LINE      CODE     ---       #14
      01003C94H   LINE      CODE     ---       #15
      01003CA2H   LINE      CODE     ---       #16
      01003CA2H   LINE      CODE     ---       #17
      01003CA9H   LINE      CODE     ---       #18
      01003CABH   LINE      CODE     ---       #19
      ---         BLOCKEND  ---      ---       LVL=0

      ---         MODULE    ---      ---       SYSTEM_CLOCK
      00000080H   SFRSYM    DATA     BYTE      P0
      00000090H   SFRSYM    DATA     BYTE      P1
      000000A0H   SFRSYM    DATA     BYTE      P2
      000000B0H   SFRSYM    DATA     BYTE      P3
      000000D0H.6 SFRSYM    DATA     BIT       AC
      000000A5H   SFRSYM    DATA     BYTE      SPCON
      000000A8H.7 SFRSYM    DATA     BIT       EA
      000000C8H.0 SFRSYM    DATA     BIT       T2P0
      000000C8H.1 SFRSYM    DATA     BIT       T2P1
      000000C8H.4 SFRSYM    DATA     BIT       T2R0
      000000DAH   SFRSYM    DATA     BYTE      PWMEN
      00000086H   SFRSYM    DATA     BYTE      PWCON
      000000C8H.5 SFRSYM    DATA     BIT       T2R1
      000000A7H   SFRSYM    DATA     BYTE      SPSTA
      00000083H   SFRSYM    DATA     BYTE      DP0H
      000000A8H   SFRSYM    DATA     BYTE      IE
      00000085H   SFRSYM    DATA     BYTE      DP1H
LX51 LINKER/LOCATER V4.66.93.0                                                        04/07/2024  09:15:35  PAGE 29


      00000082H   SFRSYM    DATA     BYTE      DP0L
      000000CBH   SFRSYM    DATA     BYTE      T2CH
      000000B3H   SFRSYM    DATA     BYTE      I2CADM
      00000084H   SFRSYM    DATA     BYTE      DP1L
      000000C8H.3 SFRSYM    DATA     BIT       T2IE
      000000CAH   SFRSYM    DATA     BYTE      T2CL
      000000B2H   SFRSYM    DATA     BYTE      I2CADR
      000000B8H   SFRSYM    DATA     BYTE      IP
      000000B7H   SFRSYM    DATA     BYTE      I2CFLG
      000000B5H   SFRSYM    DATA     BYTE      I2CDAT
      000000D0H.7 SFRSYM    DATA     BIT       CY
      000000BBH   SFRSYM    DATA     BYTE      ADCFGH
      000000DCH   SFRSYM    DATA     BYTE      PWMCMAX
      000000B1H   SFRSYM    DATA     BYTE      I2CCON
      000000D1H   SFRSYM    DATA     BYTE      PWMDIVH
      000000BAH   SFRSYM    DATA     BYTE      ADCFGL
      00000081H   SFRSYM    DATA     BYTE      SP
      000000F9H   SFRSYM    DATA     BYTE      EPIE
      000000D0H.2 SFRSYM    DATA     BIT       OV
      000000FAH   SFRSYM    DATA     BYTE      EPIF
      000000DFH   SFRSYM    DATA     BYTE      PWMDIVL
      000000B6H   SFRSYM    DATA     BYTE      I2CSTA
      000000E8H   SFRSYM    DATA     BYTE      EXIE
      000000D3H   SFRSYM    DATA     BYTE      PWMDUTH
      0000008FH   SFRSYM    DATA     BYTE      IT0CON
      00000080H.0 SFRSYM    DATA     BIT       P00
      000000D2H   SFRSYM    DATA     BYTE      PWMDUTL
      0000008EH   SFRSYM    DATA     BYTE      IT1CON
      00000090H.0 SFRSYM    DATA     BIT       P10
      00000080H.1 SFRSYM    DATA     BIT       P01
      0000009DH   SFRSYM    DATA     BYTE      S1RELH
      00000087H   SFRSYM    DATA     BYTE      PCON
      000000A0H.0 SFRSYM    DATA     BIT       P20
      00000090H.1 SFRSYM    DATA     BIT       P11
      00000080H.2 SFRSYM    DATA     BIT       P02
      000000E8H.0 SFRSYM    DATA     BIT       INT2EN
      000000A4H   SFRSYM    DATA     BYTE      S2RELH
      000000B0H.0 SFRSYM    DATA     BIT       P30
      00000090H.2 SFRSYM    DATA     BIT       P12
      00000080H.3 SFRSYM    DATA     BIT       P03
      000000E8H.1 SFRSYM    DATA     BIT       INT3EN
      00000090H.3 SFRSYM    DATA     BIT       P13
      00000080H.4 SFRSYM    DATA     BIT       P04
      000000E8H.2 SFRSYM    DATA     BIT       INT4EN
      00000090H.4 SFRSYM    DATA     BIT       P14
      00000080H.5 SFRSYM    DATA     BIT       P05
      000000E8H.3 SFRSYM    DATA     BIT       INT5EN
      0000009CH   SFRSYM    DATA     BYTE      S1RELL
      00000089H   SFRSYM    DATA     BYTE      TMOD
      00000088H   SFRSYM    DATA     BYTE      TCON
      00000090H.5 SFRSYM    DATA     BIT       P15
      00000080H.6 SFRSYM    DATA     BIT       P06
      000000E8H.4 SFRSYM    DATA     BIT       INT6EN
      000000A3H   SFRSYM    DATA     BYTE      S2RELL
      00000090H.6 SFRSYM    DATA     BIT       P16
      00000080H.7 SFRSYM    DATA     BIT       P07
      000000E8H.5 SFRSYM    DATA     BIT       INT7EN
      000000C8H.2 SFRSYM    DATA     BIT       UCKS
      000000F8H   SFRSYM    DATA     BYTE      EXIP
      00000090H.7 SFRSYM    DATA     BIT       P17
      000000E8H.6 SFRSYM    DATA     BIT       INT8EN
      000000E8H.7 SFRSYM    DATA     BIT       INT9EN
      00000088H.1 SFRSYM    DATA     BIT       IE0
      00000088H.3 SFRSYM    DATA     BIT       IE1
      000000F0H   SFRSYM    DATA     BYTE      B
LX51 LINKER/LOCATER V4.66.93.0                                                        04/07/2024  09:15:35  PAGE 30


      000000E7H   SFRSYM    DATA     BYTE      MDUDAT
      000000DEH   SFRSYM    DATA     BYTE      PWMCFG
      000000D4H   SFRSYM    DATA     BYTE      PWMAIF
      000000E0H   SFRSYM    DATA     BYTE      ACC
      000000D5H   SFRSYM    DATA     BYTE      PWMBIF
      000000A8H.4 SFRSYM    DATA     BIT       ES0
      000000EFH   SFRSYM    DATA     BYTE      LVDCON
      000000E6H   SFRSYM    DATA     BYTE      MDUCON
      000000D6H   SFRSYM    DATA     BYTE      PWMCIF
      000000A8H.1 SFRSYM    DATA     BIT       ET0
      000000A8H.6 SFRSYM    DATA     BIT       ES1
      000000D7H   SFRSYM    DATA     BYTE      PWMDIF
      000000A8H.3 SFRSYM    DATA     BIT       ET1
      00000088H.5 SFRSYM    DATA     BIT       TF0
      000000FDH   SFRSYM    DATA     BYTE      IDLSTH
      000000A8H.5 SFRSYM    DATA     BIT       ET2
      00000088H.7 SFRSYM    DATA     BIT       TF1
      000000C8H.7 SFRSYM    DATA     BIT       TF2
      0000008CH   SFRSYM    DATA     BYTE      TH0
      000000A8H.0 SFRSYM    DATA     BIT       EX0
      00000088H.0 SFRSYM    DATA     BIT       IT0
      0000008DH   SFRSYM    DATA     BYTE      TH1
      000000A8H.2 SFRSYM    DATA     BIT       EX1
      00000088H.2 SFRSYM    DATA     BIT       IT1
      000000FCH   SFRSYM    DATA     BYTE      IDLSTL
      000000CDH   SFRSYM    DATA     BYTE      TH2
      000000D0H.0 SFRSYM    DATA     BIT       P
      0000008AH   SFRSYM    DATA     BYTE      TL0
      0000008BH   SFRSYM    DATA     BYTE      TL1
      000000CCH   SFRSYM    DATA     BYTE      TL2
      000000B8H.4 SFRSYM    DATA     BIT       PS0
      000000B8H.1 SFRSYM    DATA     BIT       PT0
      000000B8H.6 SFRSYM    DATA     BIT       PS1
      000000B4H   SFRSYM    DATA     BYTE      I2CCR
      000000B8H.3 SFRSYM    DATA     BIT       PT1
      000000D0H.3 SFRSYM    DATA     BIT       RS0
      000000BDH   SFRSYM    DATA     BYTE      ADCDH
      000000B8H.5 SFRSYM    DATA     BIT       PT2
      00000088H.4 SFRSYM    DATA     BIT       TR0
      000000D0H.4 SFRSYM    DATA     BIT       RS1
      000000DDH   SFRSYM    DATA     BYTE      PWMCON
      00000088H.6 SFRSYM    DATA     BIT       TR1
      000000ADH   SFRSYM    DATA     BYTE      WDVTHH
      000000C8H.6 SFRSYM    DATA     BIT       TR2
      000000B8H.0 SFRSYM    DATA     BIT       PX0
      000000B8H.2 SFRSYM    DATA     BIT       PX1
      000000BCH   SFRSYM    DATA     BYTE      ADCDL
      000000ACH   SFRSYM    DATA     BYTE      WDVTHL
      000000DBH   SFRSYM    DATA     BYTE      PWMUPD
      0000009BH   SFRSYM    DATA     BYTE      S1BUF
      000000A2H   SFRSYM    DATA     BYTE      S2BUF
      0000009AH   SFRSYM    DATA     BYTE      S1CON
      000000B9H   SFRSYM    DATA     BYTE      ADCON
      000000A1H   SFRSYM    DATA     BYTE      S2CON
      000000D0H.1 SFRSYM    DATA     BIT       DPS
      000000C9H   SFRSYM    DATA     BYTE      T2MOD
      000000C8H   SFRSYM    DATA     BYTE      T2CON
      000000FFH   SFRSYM    DATA     BYTE      STPSTH
      000000FEH   SFRSYM    DATA     BYTE      STPSTL
      000000D0H.5 SFRSYM    DATA     BIT       F0
      000000ABH   SFRSYM    DATA     BYTE      WDFLG
      000000FBH   SFRSYM    DATA     BYTE      EPCON
      000000F7H   SFRSYM    DATA     BYTE      INDEX
      000000D0H   SFRSYM    DATA     BYTE      PSW
      000000AAH   SFRSYM    DATA     BYTE      WDCON
LX51 LINKER/LOCATER V4.66.93.0                                                        04/07/2024  09:15:35  PAGE 31


      000000A6H   SFRSYM    DATA     BYTE      SPDAT

      ---         MODULE    ---      ---       FLASH
      0200033EH   PUBLIC    XDATA    BYTE      ?_Data_Area_Mass_Read?BYTE
      01003920H   PUBLIC    CODE     ---       _Data_Area_Mass_Read
      0200033EH   PUBLIC    XDATA    BYTE      ?_Data_Area_Mass_Write?BYTE
      010037EEH   PUBLIC    CODE     ---       _Data_Area_Mass_Write
      01003CACH   PUBLIC    CODE     ---       _Data_Area_Sector_Erase
      00000080H   SFRSYM    DATA     BYTE      P0
      00000090H   SFRSYM    DATA     BYTE      P1
      000000A0H   SFRSYM    DATA     BYTE      P2
      000000B0H   SFRSYM    DATA     BYTE      P3
      000000D0H.6 SFRSYM    DATA     BIT       AC
      000000A5H   SFRSYM    DATA     BYTE      SPCON
      000000A8H.7 SFRSYM    DATA     BIT       EA
      000000C8H.0 SFRSYM    DATA     BIT       T2P0
      000000C8H.1 SFRSYM    DATA     BIT       T2P1
      000000C8H.4 SFRSYM    DATA     BIT       T2R0
      000000DAH   SFRSYM    DATA     BYTE      PWMEN
      00000086H   SFRSYM    DATA     BYTE      PWCON
      000000C8H.5 SFRSYM    DATA     BIT       T2R1
      000000A7H   SFRSYM    DATA     BYTE      SPSTA
      00000083H   SFRSYM    DATA     BYTE      DP0H
      000000A8H   SFRSYM    DATA     BYTE      IE
      00000085H   SFRSYM    DATA     BYTE      DP1H
      00000082H   SFRSYM    DATA     BYTE      DP0L
      000000CBH   SFRSYM    DATA     BYTE      T2CH
      000000B3H   SFRSYM    DATA     BYTE      I2CADM
      00000084H   SFRSYM    DATA     BYTE      DP1L
      000000C8H.3 SFRSYM    DATA     BIT       T2IE
      000000CAH   SFRSYM    DATA     BYTE      T2CL
      000000B2H   SFRSYM    DATA     BYTE      I2CADR
      000000B8H   SFRSYM    DATA     BYTE      IP
      000000B7H   SFRSYM    DATA     BYTE      I2CFLG
      000000B5H   SFRSYM    DATA     BYTE      I2CDAT
      000000D0H.7 SFRSYM    DATA     BIT       CY
      000000BBH   SFRSYM    DATA     BYTE      ADCFGH
      000000DCH   SFRSYM    DATA     BYTE      PWMCMAX
      000000B1H   SFRSYM    DATA     BYTE      I2CCON
      000000D1H   SFRSYM    DATA     BYTE      PWMDIVH
      000000BAH   SFRSYM    DATA     BYTE      ADCFGL
      00000081H   SFRSYM    DATA     BYTE      SP
      000000F9H   SFRSYM    DATA     BYTE      EPIE
      000000D0H.2 SFRSYM    DATA     BIT       OV
      000000FAH   SFRSYM    DATA     BYTE      EPIF
      000000DFH   SFRSYM    DATA     BYTE      PWMDIVL
      000000B6H   SFRSYM    DATA     BYTE      I2CSTA
      000000E8H   SFRSYM    DATA     BYTE      EXIE
      000000D3H   SFRSYM    DATA     BYTE      PWMDUTH
      0000008FH   SFRSYM    DATA     BYTE      IT0CON
      00000080H.0 SFRSYM    DATA     BIT       P00
      000000D2H   SFRSYM    DATA     BYTE      PWMDUTL
      0000008EH   SFRSYM    DATA     BYTE      IT1CON
      00000090H.0 SFRSYM    DATA     BIT       P10
      00000080H.1 SFRSYM    DATA     BIT       P01
      0000009DH   SFRSYM    DATA     BYTE      S1RELH
      00000087H   SFRSYM    DATA     BYTE      PCON
      000000A0H.0 SFRSYM    DATA     BIT       P20
      00000090H.1 SFRSYM    DATA     BIT       P11
      00000080H.2 SFRSYM    DATA     BIT       P02
      000000E8H.0 SFRSYM    DATA     BIT       INT2EN
      000000A4H   SFRSYM    DATA     BYTE      S2RELH
      000000B0H.0 SFRSYM    DATA     BIT       P30
      00000090H.2 SFRSYM    DATA     BIT       P12
      00000080H.3 SFRSYM    DATA     BIT       P03
LX51 LINKER/LOCATER V4.66.93.0                                                        04/07/2024  09:15:35  PAGE 32


      000000E8H.1 SFRSYM    DATA     BIT       INT3EN
      00000090H.3 SFRSYM    DATA     BIT       P13
      00000080H.4 SFRSYM    DATA     BIT       P04
      000000E8H.2 SFRSYM    DATA     BIT       INT4EN
      00000090H.4 SFRSYM    DATA     BIT       P14
      00000080H.5 SFRSYM    DATA     BIT       P05
      000000E8H.3 SFRSYM    DATA     BIT       INT5EN
      0000009CH   SFRSYM    DATA     BYTE      S1RELL
      00000089H   SFRSYM    DATA     BYTE      TMOD
      00000088H   SFRSYM    DATA     BYTE      TCON
      00000090H.5 SFRSYM    DATA     BIT       P15
      00000080H.6 SFRSYM    DATA     BIT       P06
      000000E8H.4 SFRSYM    DATA     BIT       INT6EN
      000000A3H   SFRSYM    DATA     BYTE      S2RELL
      00000090H.6 SFRSYM    DATA     BIT       P16
      00000080H.7 SFRSYM    DATA     BIT       P07
      000000E8H.5 SFRSYM    DATA     BIT       INT7EN
      000000C8H.2 SFRSYM    DATA     BIT       UCKS
      000000F8H   SFRSYM    DATA     BYTE      EXIP
      00000090H.7 SFRSYM    DATA     BIT       P17
      000000E8H.6 SFRSYM    DATA     BIT       INT8EN
      000000E8H.7 SFRSYM    DATA     BIT       INT9EN
      00000088H.1 SFRSYM    DATA     BIT       IE0
      00000088H.3 SFRSYM    DATA     BIT       IE1
      000000F0H   SFRSYM    DATA     BYTE      B
      000000E7H   SFRSYM    DATA     BYTE      MDUDAT
      000000DEH   SFRSYM    DATA     BYTE      PWMCFG
      000000D4H   SFRSYM    DATA     BYTE      PWMAIF
      000000E0H   SFRSYM    DATA     BYTE      ACC
      000000D5H   SFRSYM    DATA     BYTE      PWMBIF
      000000A8H.4 SFRSYM    DATA     BIT       ES0
      000000EFH   SFRSYM    DATA     BYTE      LVDCON
      000000E6H   SFRSYM    DATA     BYTE      MDUCON
      000000D6H   SFRSYM    DATA     BYTE      PWMCIF
      000000A8H.1 SFRSYM    DATA     BIT       ET0
      000000A8H.6 SFRSYM    DATA     BIT       ES1
      000000D7H   SFRSYM    DATA     BYTE      PWMDIF
      000000A8H.3 SFRSYM    DATA     BIT       ET1
      00000088H.5 SFRSYM    DATA     BIT       TF0
      000000FDH   SFRSYM    DATA     BYTE      IDLSTH
      000000A8H.5 SFRSYM    DATA     BIT       ET2
      00000088H.7 SFRSYM    DATA     BIT       TF1
      000000C8H.7 SFRSYM    DATA     BIT       TF2
      0000008CH   SFRSYM    DATA     BYTE      TH0
      000000A8H.0 SFRSYM    DATA     BIT       EX0
      00000088H.0 SFRSYM    DATA     BIT       IT0
      0000008DH   SFRSYM    DATA     BYTE      TH1
      000000A8H.2 SFRSYM    DATA     BIT       EX1
      00000088H.2 SFRSYM    DATA     BIT       IT1
      000000FCH   SFRSYM    DATA     BYTE      IDLSTL
      000000CDH   SFRSYM    DATA     BYTE      TH2
      000000D0H.0 SFRSYM    DATA     BIT       P
      0000008AH   SFRSYM    DATA     BYTE      TL0
      0000008BH   SFRSYM    DATA     BYTE      TL1
      000000CCH   SFRSYM    DATA     BYTE      TL2
      000000B8H.4 SFRSYM    DATA     BIT       PS0
      000000B8H.1 SFRSYM    DATA     BIT       PT0
      000000B8H.6 SFRSYM    DATA     BIT       PS1
      000000B4H   SFRSYM    DATA     BYTE      I2CCR
      000000B8H.3 SFRSYM    DATA     BIT       PT1
      000000D0H.3 SFRSYM    DATA     BIT       RS0
      000000BDH   SFRSYM    DATA     BYTE      ADCDH
      000000B8H.5 SFRSYM    DATA     BIT       PT2
      00000088H.4 SFRSYM    DATA     BIT       TR0
      000000D0H.4 SFRSYM    DATA     BIT       RS1
LX51 LINKER/LOCATER V4.66.93.0                                                        04/07/2024  09:15:35  PAGE 33


      000000DDH   SFRSYM    DATA     BYTE      PWMCON
      00000088H.6 SFRSYM    DATA     BIT       TR1
      000000ADH   SFRSYM    DATA     BYTE      WDVTHH
      000000C8H.6 SFRSYM    DATA     BIT       TR2
      000000B8H.0 SFRSYM    DATA     BIT       PX0
      000000B8H.2 SFRSYM    DATA     BIT       PX1
      000000BCH   SFRSYM    DATA     BYTE      ADCDL
      000000ACH   SFRSYM    DATA     BYTE      WDVTHL
      000000DBH   SFRSYM    DATA     BYTE      PWMUPD
      0000009BH   SFRSYM    DATA     BYTE      S1BUF
      000000A2H   SFRSYM    DATA     BYTE      S2BUF
      0000009AH   SFRSYM    DATA     BYTE      S1CON
      000000B9H   SFRSYM    DATA     BYTE      ADCON
      000000A1H   SFRSYM    DATA     BYTE      S2CON
      000000D0H.1 SFRSYM    DATA     BIT       DPS
      000000C9H   SFRSYM    DATA     BYTE      T2MOD
      000000C8H   SFRSYM    DATA     BYTE      T2CON
      000000FFH   SFRSYM    DATA     BYTE      STPSTH
      000000FEH   SFRSYM    DATA     BYTE      STPSTL
      000000D0H.5 SFRSYM    DATA     BIT       F0
      000000ABH   SFRSYM    DATA     BYTE      WDFLG
      000000FBH   SFRSYM    DATA     BYTE      EPCON
      000000F7H   SFRSYM    DATA     BYTE      INDEX
      000000D0H   SFRSYM    DATA     BYTE      PSW
      000000AAH   SFRSYM    DATA     BYTE      WDCON
      000000A6H   SFRSYM    DATA     BYTE      SPDAT

      01003996H   BLOCK     CODE     ---       LVL=0
      ---         BLOCKEND  ---      ---       LVL=0

      01003CACH   BLOCK     CODE     ---       LVL=0
      00000007H   SYMBOL    DATA     BYTE      SectorNumber
      01003CACH   BLOCK     CODE     NEAR LAB  LVL=1
      00000004H   SYMBOL    DATA     WORD      SectorAddress
      ---         BLOCKEND  ---      ---       LVL=1
      01003CACH   LINE      CODE     ---       #17
      01003CACH   LINE      CODE     ---       #18
      01003CACH   LINE      CODE     ---       #20
      01003CB1H   LINE      CODE     ---       #21
      01003CB5H   LINE      CODE     ---       #22
      01003CBBH   LINE      CODE     ---       #23
      01003CC0H   LINE      CODE     ---       #24
      01003CC1H   LINE      CODE     ---       #25
      01003CC6H   LINE      CODE     ---       #26
      01003CC9H   LINE      CODE     ---       #27
      ---         BLOCKEND  ---      ---       LVL=0
      00000002H   SYMBOL    DATA     WORD      Address
      00000005H   SYMBOL    DATA     BYTE      Data

      010037EEH   BLOCK     CODE     ---       LVL=0
      00000004H   SYMBOL    DATA     WORD      Address
      02000340H   SYMBOL    XDATA    ---       pData
      02000343H   SYMBOL    XDATA    WORD      Length
      010037FBH   BLOCK     CODE     NEAR LAB  LVL=1
      00000006H   SYMBOL    DATA     WORD      i
      ---         BLOCKEND  ---      ---       LVL=1
      010037EEH   LINE      CODE     ---       #59
      010037FBH   LINE      CODE     ---       #60
      010037FBH   LINE      CODE     ---       #62
      010037FBH   LINE      CODE     ---       #63
      010037FEH   LINE      CODE     ---       #64
      010037FEH   LINE      CODE     ---       #65
      010037FEH   LINE      CODE     ---       #66
      01003804H   LINE      CODE     ---       #67
      01003814H   LINE      CODE     ---       #68
LX51 LINKER/LOCATER V4.66.93.0                                                        04/07/2024  09:15:35  PAGE 34


      01003814H   LINE      CODE     ---       #69
      01003821H   LINE      CODE     ---       #70
      01003828H   LINE      CODE     ---       #71
      01003828H   LINE      CODE     ---       #72
      0100382BH   LINE      CODE     ---       #73
      ---         BLOCKEND  ---      ---       LVL=0
      00000004H   SYMBOL    DATA     WORD      Address
      00000007H   SYMBOL    DATA     BYTE      Data_Temp

      01003920H   BLOCK     CODE     ---       LVL=0
      00000004H   SYMBOL    DATA     WORD      Address
      02000340H   SYMBOL    XDATA    ---       pData
      02000343H   SYMBOL    XDATA    WORD      Length
      0100392BH   BLOCK     CODE     NEAR LAB  LVL=1
      00000006H   SYMBOL    DATA     WORD      i
      ---         BLOCKEND  ---      ---       LVL=1
      01003920H   LINE      CODE     ---       #106
      0100392BH   LINE      CODE     ---       #107
      0100392BH   LINE      CODE     ---       #109
      0100392BH   LINE      CODE     ---       #110
      0100392BH   LINE      CODE     ---       #111
      0100392BH   LINE      CODE     ---       #112
      01003931H   LINE      CODE     ---       #113
      01003941H   LINE      CODE     ---       #114
      01003941H   LINE      CODE     ---       #115
      01003950H   LINE      CODE     ---       #116
      01003957H   LINE      CODE     ---       #117
      01003957H   LINE      CODE     ---       #118
      0100395AH   LINE      CODE     ---       #119
      ---         BLOCKEND  ---      ---       LVL=0

      ---         MODULE    ---      ---       ?C_STARTUP
      01000000H   PUBLIC    CODE     ---       ?C_STARTUP
      000000E0H   SYMBOL    DATA     ---       ACC
      000000F0H   SYMBOL    DATA     ---       B
      00000083H   SYMBOL    DATA     ---       DPH
      00000082H   SYMBOL    DATA     ---       DPL
      00000000H   SYMBOL    NUMBER   ---       IBPSTACK
      00000100H   SYMBOL    NUMBER   ---       IBPSTACKTOP
      00000080H   SYMBOL    NUMBER   ---       IDATALEN
      01002FB9H   SYMBOL    CODE     ---       IDATALOOP
      00000000H   SYMBOL    NUMBER   ---       PBPSTACK
      00000100H   SYMBOL    NUMBER   ---       PBPSTACKTOP
      00000000H   SYMBOL    NUMBER   ---       PDATALEN
      00000000H   SYMBOL    NUMBER   ---       PDATASTART
      00000000H   SYMBOL    NUMBER   ---       PPAGE
      00000000H   SYMBOL    NUMBER   ---       PPAGEENABLE
      000000A0H   SYMBOL    DATA     ---       PPAGE_SFR
      00000081H   SYMBOL    DATA     ---       SP
      01002FB6H   SYMBOL    CODE     ---       STARTUP1
      00000000H   SYMBOL    NUMBER   ---       XBPSTACK
      00000000H   SYMBOL    NUMBER   ---       XBPSTACKTOP
      00000000H   SYMBOL    NUMBER   ---       XDATALEN
      00000000H   SYMBOL    NUMBER   ---       XDATASTART
      01000000H   LINE      CODE     ---       #126
      01002FB6H   LINE      CODE     ---       #133
      01002FB8H   LINE      CODE     ---       #134
      01002FB9H   LINE      CODE     ---       #135
      01002FBAH   LINE      CODE     ---       #136
      01002FBCH   LINE      CODE     ---       #185
      01002FBFH   LINE      CODE     ---       #196

      ---         MODULE    ---      ---       GLH_PWM
      0200035FH   PUBLIC    XDATA    BYTE      ?_GLHPWM_Set?BYTE
      01002DEFH   PUBLIC    CODE     ---       _GLHPWM_Set
LX51 LINKER/LOCATER V4.66.93.0                                                        04/07/2024  09:15:35  PAGE 35


      01002E88H   PUBLIC    CODE     ---       _GLHPWM_Init
      00000080H   SFRSYM    DATA     BYTE      P0
      00000090H   SFRSYM    DATA     BYTE      P1
      000000A0H   SFRSYM    DATA     BYTE      P2
      000000B0H   SFRSYM    DATA     BYTE      P3
      000000D0H.6 SFRSYM    DATA     BIT       AC
      000000A5H   SFRSYM    DATA     BYTE      SPCON
      000000A8H.7 SFRSYM    DATA     BIT       EA
      000000C8H.0 SFRSYM    DATA     BIT       T2P0
      000000C8H.1 SFRSYM    DATA     BIT       T2P1
      000000C8H.4 SFRSYM    DATA     BIT       T2R0
      000000DAH   SFRSYM    DATA     BYTE      PWMEN
      00000086H   SFRSYM    DATA     BYTE      PWCON
      000000C8H.5 SFRSYM    DATA     BIT       T2R1
      000000A7H   SFRSYM    DATA     BYTE      SPSTA
      00000083H   SFRSYM    DATA     BYTE      DP0H
      000000A8H   SFRSYM    DATA     BYTE      IE
      00000085H   SFRSYM    DATA     BYTE      DP1H
      00000082H   SFRSYM    DATA     BYTE      DP0L
      000000CBH   SFRSYM    DATA     BYTE      T2CH
      000000B3H   SFRSYM    DATA     BYTE      I2CADM
      00000084H   SFRSYM    DATA     BYTE      DP1L
      000000C8H.3 SFRSYM    DATA     BIT       T2IE
      000000CAH   SFRSYM    DATA     BYTE      T2CL
      000000B2H   SFRSYM    DATA     BYTE      I2CADR
      000000B8H   SFRSYM    DATA     BYTE      IP
      000000B7H   SFRSYM    DATA     BYTE      I2CFLG
      000000B5H   SFRSYM    DATA     BYTE      I2CDAT
      000000D0H.7 SFRSYM    DATA     BIT       CY
      000000BBH   SFRSYM    DATA     BYTE      ADCFGH
      000000DCH   SFRSYM    DATA     BYTE      PWMCMAX
      000000B1H   SFRSYM    DATA     BYTE      I2CCON
      000000D1H   SFRSYM    DATA     BYTE      PWMDIVH
      000000BAH   SFRSYM    DATA     BYTE      ADCFGL
      00000081H   SFRSYM    DATA     BYTE      SP
      000000F9H   SFRSYM    DATA     BYTE      EPIE
      000000D0H.2 SFRSYM    DATA     BIT       OV
      000000FAH   SFRSYM    DATA     BYTE      EPIF
      000000DFH   SFRSYM    DATA     BYTE      PWMDIVL
      000000B6H   SFRSYM    DATA     BYTE      I2CSTA
      000000E8H   SFRSYM    DATA     BYTE      EXIE
      000000D3H   SFRSYM    DATA     BYTE      PWMDUTH
      0000008FH   SFRSYM    DATA     BYTE      IT0CON
      00000080H.0 SFRSYM    DATA     BIT       P00
      000000D2H   SFRSYM    DATA     BYTE      PWMDUTL
      0000008EH   SFRSYM    DATA     BYTE      IT1CON
      00000090H.0 SFRSYM    DATA     BIT       P10
      00000080H.1 SFRSYM    DATA     BIT       P01
      0000009DH   SFRSYM    DATA     BYTE      S1RELH
      00000087H   SFRSYM    DATA     BYTE      PCON
      000000A0H.0 SFRSYM    DATA     BIT       P20
      00000090H.1 SFRSYM    DATA     BIT       P11
      00000080H.2 SFRSYM    DATA     BIT       P02
      000000E8H.0 SFRSYM    DATA     BIT       INT2EN
      000000A4H   SFRSYM    DATA     BYTE      S2RELH
      000000B0H.0 SFRSYM    DATA     BIT       P30
      00000090H.2 SFRSYM    DATA     BIT       P12
      00000080H.3 SFRSYM    DATA     BIT       P03
      000000E8H.1 SFRSYM    DATA     BIT       INT3EN
      00000090H.3 SFRSYM    DATA     BIT       P13
      00000080H.4 SFRSYM    DATA     BIT       P04
      000000E8H.2 SFRSYM    DATA     BIT       INT4EN
      00000090H.4 SFRSYM    DATA     BIT       P14
      00000080H.5 SFRSYM    DATA     BIT       P05
      000000E8H.3 SFRSYM    DATA     BIT       INT5EN
LX51 LINKER/LOCATER V4.66.93.0                                                        04/07/2024  09:15:35  PAGE 36


      0000009CH   SFRSYM    DATA     BYTE      S1RELL
      00000089H   SFRSYM    DATA     BYTE      TMOD
      00000088H   SFRSYM    DATA     BYTE      TCON
      00000090H.5 SFRSYM    DATA     BIT       P15
      00000080H.6 SFRSYM    DATA     BIT       P06
      000000E8H.4 SFRSYM    DATA     BIT       INT6EN
      000000A3H   SFRSYM    DATA     BYTE      S2RELL
      00000090H.6 SFRSYM    DATA     BIT       P16
      00000080H.7 SFRSYM    DATA     BIT       P07
      000000E8H.5 SFRSYM    DATA     BIT       INT7EN
      000000C8H.2 SFRSYM    DATA     BIT       UCKS
      000000F8H   SFRSYM    DATA     BYTE      EXIP
      00000090H.7 SFRSYM    DATA     BIT       P17
      000000E8H.6 SFRSYM    DATA     BIT       INT8EN
      000000E8H.7 SFRSYM    DATA     BIT       INT9EN
      00000088H.1 SFRSYM    DATA     BIT       IE0
      00000088H.3 SFRSYM    DATA     BIT       IE1
      000000F0H   SFRSYM    DATA     BYTE      B
      000000E7H   SFRSYM    DATA     BYTE      MDUDAT
      000000DEH   SFRSYM    DATA     BYTE      PWMCFG
      000000D4H   SFRSYM    DATA     BYTE      PWMAIF
      000000E0H   SFRSYM    DATA     BYTE      ACC
      000000D5H   SFRSYM    DATA     BYTE      PWMBIF
      000000A8H.4 SFRSYM    DATA     BIT       ES0
      000000EFH   SFRSYM    DATA     BYTE      LVDCON
      000000E6H   SFRSYM    DATA     BYTE      MDUCON
      000000D6H   SFRSYM    DATA     BYTE      PWMCIF
      000000A8H.1 SFRSYM    DATA     BIT       ET0
      000000A8H.6 SFRSYM    DATA     BIT       ES1
      000000D7H   SFRSYM    DATA     BYTE      PWMDIF
      000000A8H.3 SFRSYM    DATA     BIT       ET1
      00000088H.5 SFRSYM    DATA     BIT       TF0
      000000FDH   SFRSYM    DATA     BYTE      IDLSTH
      000000A8H.5 SFRSYM    DATA     BIT       ET2
      00000088H.7 SFRSYM    DATA     BIT       TF1
      000000C8H.7 SFRSYM    DATA     BIT       TF2
      0000008CH   SFRSYM    DATA     BYTE      TH0
      000000A8H.0 SFRSYM    DATA     BIT       EX0
      00000088H.0 SFRSYM    DATA     BIT       IT0
      0000008DH   SFRSYM    DATA     BYTE      TH1
      000000A8H.2 SFRSYM    DATA     BIT       EX1
      00000088H.2 SFRSYM    DATA     BIT       IT1
      000000FCH   SFRSYM    DATA     BYTE      IDLSTL
      000000CDH   SFRSYM    DATA     BYTE      TH2
      000000D0H.0 SFRSYM    DATA     BIT       P
      0000008AH   SFRSYM    DATA     BYTE      TL0
      0000008BH   SFRSYM    DATA     BYTE      TL1
      000000CCH   SFRSYM    DATA     BYTE      TL2
      000000B8H.4 SFRSYM    DATA     BIT       PS0
      000000B8H.1 SFRSYM    DATA     BIT       PT0
      000000B8H.6 SFRSYM    DATA     BIT       PS1
      000000B4H   SFRSYM    DATA     BYTE      I2CCR
      000000B8H.3 SFRSYM    DATA     BIT       PT1
      000000D0H.3 SFRSYM    DATA     BIT       RS0
      000000BDH   SFRSYM    DATA     BYTE      ADCDH
      000000B8H.5 SFRSYM    DATA     BIT       PT2
      00000088H.4 SFRSYM    DATA     BIT       TR0
      000000D0H.4 SFRSYM    DATA     BIT       RS1
      000000DDH   SFRSYM    DATA     BYTE      PWMCON
      00000088H.6 SFRSYM    DATA     BIT       TR1
      000000ADH   SFRSYM    DATA     BYTE      WDVTHH
      000000C8H.6 SFRSYM    DATA     BIT       TR2
      000000B8H.0 SFRSYM    DATA     BIT       PX0
      000000B8H.2 SFRSYM    DATA     BIT       PX1
      000000BCH   SFRSYM    DATA     BYTE      ADCDL
LX51 LINKER/LOCATER V4.66.93.0                                                        04/07/2024  09:15:35  PAGE 37


      000000ACH   SFRSYM    DATA     BYTE      WDVTHL
      000000DBH   SFRSYM    DATA     BYTE      PWMUPD
      0000009BH   SFRSYM    DATA     BYTE      S1BUF
      000000A2H   SFRSYM    DATA     BYTE      S2BUF
      0000009AH   SFRSYM    DATA     BYTE      S1CON
      000000B9H   SFRSYM    DATA     BYTE      ADCON
      000000A1H   SFRSYM    DATA     BYTE      S2CON
      000000D0H.1 SFRSYM    DATA     BIT       DPS
      000000C9H   SFRSYM    DATA     BYTE      T2MOD
      000000C8H   SFRSYM    DATA     BYTE      T2CON
      000000FFH   SFRSYM    DATA     BYTE      STPSTH
      000000FEH   SFRSYM    DATA     BYTE      STPSTL
      000000D0H.5 SFRSYM    DATA     BIT       F0
      000000ABH   SFRSYM    DATA     BYTE      WDFLG
      000000FBH   SFRSYM    DATA     BYTE      EPCON
      000000F7H   SFRSYM    DATA     BYTE      INDEX
      000000D0H   SFRSYM    DATA     BYTE      PSW
      000000AAH   SFRSYM    DATA     BYTE      WDCON
      000000A6H   SFRSYM    DATA     BYTE      SPDAT

      010039D0H   BLOCK     CODE     ---       LVL=0
      ---         BLOCKEND  ---      ---       LVL=0

      01002E88H   BLOCK     CODE     ---       LVL=0
      00000005H   SYMBOL    DATA     BYTE      u8Ch
      01002E88H   LINE      CODE     ---       #27
      01002E8AH   LINE      CODE     ---       #28
      01002E8AH   LINE      CODE     ---       #29
      01002E91H   LINE      CODE     ---       #31
      01002E95H   LINE      CODE     ---       #32
      01002E95H   LINE      CODE     ---       #33
      01002E98H   LINE      CODE     ---       #34
      01002E9BH   LINE      CODE     ---       #36
      01002E9DH   LINE      CODE     ---       #37
      01002EA3H   LINE      CODE     ---       #38
      01002EA6H   LINE      CODE     ---       #41
      01002EA6H   LINE      CODE     ---       #42
      01002EA6H   LINE      CODE     ---       #43
      01002EA6H   LINE      CODE     ---       #44
      01002EA9H   LINE      CODE     ---       #46
      01002EACH   LINE      CODE     ---       #47
      01002EB0H   LINE      CODE     ---       #48
      01002EB3H   LINE      CODE     ---       #49
      01002EB3H   LINE      CODE     ---       #51
      01002EB7H   LINE      CODE     ---       #52
      01002EB7H   LINE      CODE     ---       #53
      01002EBAH   LINE      CODE     ---       #54
      01002EBDH   LINE      CODE     ---       #56
      01002EC0H   LINE      CODE     ---       #57
      01002EC2H   LINE      CODE     ---       #58
      01002EC8H   LINE      CODE     ---       #59
      01002ECBH   LINE      CODE     ---       #62
      01002ECBH   LINE      CODE     ---       #63
      01002ECBH   LINE      CODE     ---       #64
      01002ECBH   LINE      CODE     ---       #65
      01002ECEH   LINE      CODE     ---       #67
      01002ED1H   LINE      CODE     ---       #68
      01002ED5H   LINE      CODE     ---       #69
      01002ED8H   LINE      CODE     ---       #70
      01002ED8H   LINE      CODE     ---       #72
      01002EDCH   LINE      CODE     ---       #73
      01002EDCH   LINE      CODE     ---       #74
      01002EDFH   LINE      CODE     ---       #75
      01002EE2H   LINE      CODE     ---       #77
      01002EE5H   LINE      CODE     ---       #78
LX51 LINKER/LOCATER V4.66.93.0                                                        04/07/2024  09:15:35  PAGE 38


      01002EE9H   LINE      CODE     ---       #79
      01002EECH   LINE      CODE     ---       #82
      01002EECH   LINE      CODE     ---       #83
      01002EECH   LINE      CODE     ---       #84
      01002EECH   LINE      CODE     ---       #85
      01002EEFH   LINE      CODE     ---       #87
      01002EF2H   LINE      CODE     ---       #88
      01002EF6H   LINE      CODE     ---       #89
      01002EF9H   LINE      CODE     ---       #90
      01002EF9H   LINE      CODE     ---       #92
      01002EFDH   LINE      CODE     ---       #93
      01002EFDH   LINE      CODE     ---       #94
      01002F00H   LINE      CODE     ---       #95
      01002F03H   LINE      CODE     ---       #97
      01002F06H   LINE      CODE     ---       #98
      01002F09H   LINE      CODE     ---       #99
      01002F0EH   LINE      CODE     ---       #100
      01002F11H   LINE      CODE     ---       #103
      01002F11H   LINE      CODE     ---       #104
      01002F11H   LINE      CODE     ---       #105
      01002F11H   LINE      CODE     ---       #106
      01002F14H   LINE      CODE     ---       #108
      01002F17H   LINE      CODE     ---       #109
      01002F1BH   LINE      CODE     ---       #110
      01002F1EH   LINE      CODE     ---       #111
      01002F1EH   LINE      CODE     ---       #112
      ---         BLOCKEND  ---      ---       LVL=0

      01002DEFH   BLOCK     CODE     ---       LVL=0
      0200035FH   SYMBOL    XDATA    BYTE      eCh
      02000360H   SYMBOL    XDATA    DWORD     u32Duty
      01002DEFH   LINE      CODE     ---       #114
      01002DF4H   LINE      CODE     ---       #115
      01002DF4H   LINE      CODE     ---       #116
      01002DF7H   LINE      CODE     ---       #117
      01002DF7H   LINE      CODE     ---       #118
      01002DFAH   LINE      CODE     ---       #119
      01002DFCH   LINE      CODE     ---       #120
      01002E04H   LINE      CODE     ---       #121
      01002E04H   LINE      CODE     ---       #122
      01002E07H   LINE      CODE     ---       #123
      01002E09H   LINE      CODE     ---       #124
      01002E0DH   LINE      CODE     ---       #125
      01002E0DH   LINE      CODE     ---       #126
      01002E10H   LINE      CODE     ---       #127
      01002E12H   LINE      CODE     ---       #128
      01002E16H   LINE      CODE     ---       #129
      01002E16H   LINE      CODE     ---       #130
      01002E19H   LINE      CODE     ---       #131
      01002E1BH   LINE      CODE     ---       #132
      01002E1FH   LINE      CODE     ---       #133
      01002E1FH   LINE      CODE     ---       #134
      01002E22H   LINE      CODE     ---       #135
      01002E24H   LINE      CODE     ---       #136
      01002E28H   LINE      CODE     ---       #137
      01002E28H   LINE      CODE     ---       #138
      01002E2BH   LINE      CODE     ---       #139
      01002E2BH   LINE      CODE     ---       #141
      01002E3DH   LINE      CODE     ---       #142
      01002E45H   LINE      CODE     ---       #144
      01002E54H   LINE      CODE     ---       #145
      01002E5CH   LINE      CODE     ---       #146
      01002E5CH   LINE      CODE     ---       #147
      01002E5FH   LINE      CODE     ---       #148
      01002E60H   LINE      CODE     ---       #149
LX51 LINKER/LOCATER V4.66.93.0                                                        04/07/2024  09:15:35  PAGE 39


      01002E64H   LINE      CODE     ---       #150
      01002E64H   LINE      CODE     ---       #151
      01002E67H   LINE      CODE     ---       #152
      01002E68H   LINE      CODE     ---       #153
      01002E6CH   LINE      CODE     ---       #154
      01002E6CH   LINE      CODE     ---       #155
      01002E6FH   LINE      CODE     ---       #156
      01002E70H   LINE      CODE     ---       #157
      01002E74H   LINE      CODE     ---       #158
      01002E74H   LINE      CODE     ---       #159
      01002E77H   LINE      CODE     ---       #160
      01002E78H   LINE      CODE     ---       #161
      01002E7CH   LINE      CODE     ---       #162
      01002E7CH   LINE      CODE     ---       #163
      01002E7FH   LINE      CODE     ---       #164
      01002E80H   LINE      CODE     ---       #165
      01002E84H   LINE      CODE     ---       #166
      01002E84H   LINE      CODE     ---       #167
      01002E87H   LINE      CODE     ---       #168
      01002E87H   LINE      CODE     ---       #170
      ---         BLOCKEND  ---      ---       LVL=0

      ---         MODULE    ---      ---       GLH_SYS_TICK
      0200037EH   PUBLIC    XDATA    DWORD     GulSystickCount
      010035F6H   PUBLIC    CODE     ---       TIMER0_ISR
      01003E73H   PUBLIC    CODE     ---       GLHST_Init
      00000080H   SFRSYM    DATA     BYTE      P0
      00000090H   SFRSYM    DATA     BYTE      P1
      000000A0H   SFRSYM    DATA     BYTE      P2
      000000B0H   SFRSYM    DATA     BYTE      P3
      000000D0H.6 SFRSYM    DATA     BIT       AC
      000000A5H   SFRSYM    DATA     BYTE      SPCON
      000000A8H.7 SFRSYM    DATA     BIT       EA
      000000C8H.0 SFRSYM    DATA     BIT       T2P0
      000000C8H.1 SFRSYM    DATA     BIT       T2P1
      000000C8H.4 SFRSYM    DATA     BIT       T2R0
      000000DAH   SFRSYM    DATA     BYTE      PWMEN
      00000086H   SFRSYM    DATA     BYTE      PWCON
      000000C8H.5 SFRSYM    DATA     BIT       T2R1
      000000A7H   SFRSYM    DATA     BYTE      SPSTA
      00000083H   SFRSYM    DATA     BYTE      DP0H
      000000A8H   SFRSYM    DATA     BYTE      IE
      00000085H   SFRSYM    DATA     BYTE      DP1H
      00000082H   SFRSYM    DATA     BYTE      DP0L
      000000CBH   SFRSYM    DATA     BYTE      T2CH
      000000B3H   SFRSYM    DATA     BYTE      I2CADM
      00000084H   SFRSYM    DATA     BYTE      DP1L
      000000C8H.3 SFRSYM    DATA     BIT       T2IE
      000000CAH   SFRSYM    DATA     BYTE      T2CL
      000000B2H   SFRSYM    DATA     BYTE      I2CADR
      000000B8H   SFRSYM    DATA     BYTE      IP
      000000B7H   SFRSYM    DATA     BYTE      I2CFLG
      000000B5H   SFRSYM    DATA     BYTE      I2CDAT
      000000D0H.7 SFRSYM    DATA     BIT       CY
      000000BBH   SFRSYM    DATA     BYTE      ADCFGH
      000000DCH   SFRSYM    DATA     BYTE      PWMCMAX
      000000B1H   SFRSYM    DATA     BYTE      I2CCON
      000000D1H   SFRSYM    DATA     BYTE      PWMDIVH
      000000BAH   SFRSYM    DATA     BYTE      ADCFGL
      00000081H   SFRSYM    DATA     BYTE      SP
      000000F9H   SFRSYM    DATA     BYTE      EPIE
      000000D0H.2 SFRSYM    DATA     BIT       OV
      000000FAH   SFRSYM    DATA     BYTE      EPIF
      000000DFH   SFRSYM    DATA     BYTE      PWMDIVL
      000000B6H   SFRSYM    DATA     BYTE      I2CSTA
LX51 LINKER/LOCATER V4.66.93.0                                                        04/07/2024  09:15:35  PAGE 40


      000000E8H   SFRSYM    DATA     BYTE      EXIE
      000000D3H   SFRSYM    DATA     BYTE      PWMDUTH
      0000008FH   SFRSYM    DATA     BYTE      IT0CON
      00000080H.0 SFRSYM    DATA     BIT       P00
      000000D2H   SFRSYM    DATA     BYTE      PWMDUTL
      0000008EH   SFRSYM    DATA     BYTE      IT1CON
      00000090H.0 SFRSYM    DATA     BIT       P10
      00000080H.1 SFRSYM    DATA     BIT       P01
      0000009DH   SFRSYM    DATA     BYTE      S1RELH
      00000087H   SFRSYM    DATA     BYTE      PCON
      000000A0H.0 SFRSYM    DATA     BIT       P20
      00000090H.1 SFRSYM    DATA     BIT       P11
      00000080H.2 SFRSYM    DATA     BIT       P02
      000000E8H.0 SFRSYM    DATA     BIT       INT2EN
      000000A4H   SFRSYM    DATA     BYTE      S2RELH
      000000B0H.0 SFRSYM    DATA     BIT       P30
      00000090H.2 SFRSYM    DATA     BIT       P12
      00000080H.3 SFRSYM    DATA     BIT       P03
      000000E8H.1 SFRSYM    DATA     BIT       INT3EN
      00000090H.3 SFRSYM    DATA     BIT       P13
      00000080H.4 SFRSYM    DATA     BIT       P04
      000000E8H.2 SFRSYM    DATA     BIT       INT4EN
      00000090H.4 SFRSYM    DATA     BIT       P14
      00000080H.5 SFRSYM    DATA     BIT       P05
      000000E8H.3 SFRSYM    DATA     BIT       INT5EN
      0000009CH   SFRSYM    DATA     BYTE      S1RELL
      00000089H   SFRSYM    DATA     BYTE      TMOD
      00000088H   SFRSYM    DATA     BYTE      TCON
      00000090H.5 SFRSYM    DATA     BIT       P15
      00000080H.6 SFRSYM    DATA     BIT       P06
      000000E8H.4 SFRSYM    DATA     BIT       INT6EN
      000000A3H   SFRSYM    DATA     BYTE      S2RELL
      00000090H.6 SFRSYM    DATA     BIT       P16
      00000080H.7 SFRSYM    DATA     BIT       P07
      000000E8H.5 SFRSYM    DATA     BIT       INT7EN
      000000C8H.2 SFRSYM    DATA     BIT       UCKS
      000000F8H   SFRSYM    DATA     BYTE      EXIP
      00000090H.7 SFRSYM    DATA     BIT       P17
      000000E8H.6 SFRSYM    DATA     BIT       INT8EN
      000000E8H.7 SFRSYM    DATA     BIT       INT9EN
      00000088H.1 SFRSYM    DATA     BIT       IE0
      00000088H.3 SFRSYM    DATA     BIT       IE1
      000000F0H   SFRSYM    DATA     BYTE      B
      000000E7H   SFRSYM    DATA     BYTE      MDUDAT
      000000DEH   SFRSYM    DATA     BYTE      PWMCFG
      000000D4H   SFRSYM    DATA     BYTE      PWMAIF
      000000E0H   SFRSYM    DATA     BYTE      ACC
      000000D5H   SFRSYM    DATA     BYTE      PWMBIF
      000000A8H.4 SFRSYM    DATA     BIT       ES0
      000000EFH   SFRSYM    DATA     BYTE      LVDCON
      000000E6H   SFRSYM    DATA     BYTE      MDUCON
      000000D6H   SFRSYM    DATA     BYTE      PWMCIF
      000000A8H.1 SFRSYM    DATA     BIT       ET0
      000000A8H.6 SFRSYM    DATA     BIT       ES1
      000000D7H   SFRSYM    DATA     BYTE      PWMDIF
      000000A8H.3 SFRSYM    DATA     BIT       ET1
      00000088H.5 SFRSYM    DATA     BIT       TF0
      000000FDH   SFRSYM    DATA     BYTE      IDLSTH
      000000A8H.5 SFRSYM    DATA     BIT       ET2
      00000088H.7 SFRSYM    DATA     BIT       TF1
      000000C8H.7 SFRSYM    DATA     BIT       TF2
      0000008CH   SFRSYM    DATA     BYTE      TH0
      000000A8H.0 SFRSYM    DATA     BIT       EX0
      00000088H.0 SFRSYM    DATA     BIT       IT0
      0000008DH   SFRSYM    DATA     BYTE      TH1
LX51 LINKER/LOCATER V4.66.93.0                                                        04/07/2024  09:15:35  PAGE 41


      000000A8H.2 SFRSYM    DATA     BIT       EX1
      00000088H.2 SFRSYM    DATA     BIT       IT1
      000000FCH   SFRSYM    DATA     BYTE      IDLSTL
      000000CDH   SFRSYM    DATA     BYTE      TH2
      000000D0H.0 SFRSYM    DATA     BIT       P
      0000008AH   SFRSYM    DATA     BYTE      TL0
      0000008BH   SFRSYM    DATA     BYTE      TL1
      000000CCH   SFRSYM    DATA     BYTE      TL2
      000000B8H.4 SFRSYM    DATA     BIT       PS0
      000000B8H.1 SFRSYM    DATA     BIT       PT0
      000000B8H.6 SFRSYM    DATA     BIT       PS1
      000000B4H   SFRSYM    DATA     BYTE      I2CCR
      000000B8H.3 SFRSYM    DATA     BIT       PT1
      000000D0H.3 SFRSYM    DATA     BIT       RS0
      000000BDH   SFRSYM    DATA     BYTE      ADCDH
      000000B8H.5 SFRSYM    DATA     BIT       PT2
      00000088H.4 SFRSYM    DATA     BIT       TR0
      000000D0H.4 SFRSYM    DATA     BIT       RS1
      000000DDH   SFRSYM    DATA     BYTE      PWMCON
      00000088H.6 SFRSYM    DATA     BIT       TR1
      000000ADH   SFRSYM    DATA     BYTE      WDVTHH
      000000C8H.6 SFRSYM    DATA     BIT       TR2
      000000B8H.0 SFRSYM    DATA     BIT       PX0
      000000B8H.2 SFRSYM    DATA     BIT       PX1
      000000BCH   SFRSYM    DATA     BYTE      ADCDL
      000000ACH   SFRSYM    DATA     BYTE      WDVTHL
      000000DBH   SFRSYM    DATA     BYTE      PWMUPD
      0000009BH   SFRSYM    DATA     BYTE      S1BUF
      000000A2H   SFRSYM    DATA     BYTE      S2BUF
      0000009AH   SFRSYM    DATA     BYTE      S1CON
      000000B9H   SFRSYM    DATA     BYTE      ADCON
      000000A1H   SFRSYM    DATA     BYTE      S2CON
      000000D0H.1 SFRSYM    DATA     BIT       DPS
      000000C9H   SFRSYM    DATA     BYTE      T2MOD
      000000C8H   SFRSYM    DATA     BYTE      T2CON
      000000FFH   SFRSYM    DATA     BYTE      STPSTH
      000000FEH   SFRSYM    DATA     BYTE      STPSTL
      000000D0H.5 SFRSYM    DATA     BIT       F0
      000000ABH   SFRSYM    DATA     BYTE      WDFLG
      000000FBH   SFRSYM    DATA     BYTE      EPCON
      000000F7H   SFRSYM    DATA     BYTE      INDEX
      000000D0H   SFRSYM    DATA     BYTE      PSW
      000000AAH   SFRSYM    DATA     BYTE      WDCON
      000000A6H   SFRSYM    DATA     BYTE      SPDAT
      01003DE7H   SYMBOL    CODE     ---       iTimerInit

      01003DE7H   BLOCK     CODE     ---       LVL=0
      01003DE7H   LINE      CODE     ---       #31
      01003DE7H   LINE      CODE     ---       #32
      01003DE7H   LINE      CODE     ---       #33
      01003DE9H   LINE      CODE     ---       #35
      01003DECH   LINE      CODE     ---       #36
      01003DEFH   LINE      CODE     ---       #37
      01003DF2H   LINE      CODE     ---       #39
      01003DF4H   LINE      CODE     ---       #40
      01003DF6H   LINE      CODE     ---       #41
      01003DF8H   LINE      CODE     ---       #42
      ---         BLOCKEND  ---      ---       LVL=0

      01003E73H   BLOCK     CODE     ---       LVL=0
      01003E73H   LINE      CODE     ---       #44
      01003E73H   LINE      CODE     ---       #45
      01003E73H   LINE      CODE     ---       #46
      ---         BLOCKEND  ---      ---       LVL=0

LX51 LINKER/LOCATER V4.66.93.0                                                        04/07/2024  09:15:35  PAGE 42


      010035F6H   BLOCK     CODE     ---       LVL=0
      010035F6H   LINE      CODE     ---       #64
      0100360DH   LINE      CODE     ---       #66
      01003610H   LINE      CODE     ---       #67
      01003613H   LINE      CODE     ---       #69
      01003632H   LINE      CODE     ---       #70
      ---         BLOCKEND  ---      ---       LVL=0

      ---         MODULE    ---      ---       GLH_WATCHDOG
      01003E6FH   PUBLIC    CODE     ---       GLHWD_Clear
      01003E2BH   PUBLIC    CODE     ---       GLHWD_Init
      00000080H   SFRSYM    DATA     BYTE      P0
      00000090H   SFRSYM    DATA     BYTE      P1
      000000A0H   SFRSYM    DATA     BYTE      P2
      000000B0H   SFRSYM    DATA     BYTE      P3
      000000D0H.6 SFRSYM    DATA     BIT       AC
      000000A5H   SFRSYM    DATA     BYTE      SPCON
      000000A8H.7 SFRSYM    DATA     BIT       EA
      000000C8H.0 SFRSYM    DATA     BIT       T2P0
      000000C8H.1 SFRSYM    DATA     BIT       T2P1
      000000C8H.4 SFRSYM    DATA     BIT       T2R0
      000000DAH   SFRSYM    DATA     BYTE      PWMEN
      00000086H   SFRSYM    DATA     BYTE      PWCON
      000000C8H.5 SFRSYM    DATA     BIT       T2R1
      000000A7H   SFRSYM    DATA     BYTE      SPSTA
      00000083H   SFRSYM    DATA     BYTE      DP0H
      000000A8H   SFRSYM    DATA     BYTE      IE
      00000085H   SFRSYM    DATA     BYTE      DP1H
      00000082H   SFRSYM    DATA     BYTE      DP0L
      000000CBH   SFRSYM    DATA     BYTE      T2CH
      000000B3H   SFRSYM    DATA     BYTE      I2CADM
      00000084H   SFRSYM    DATA     BYTE      DP1L
      000000C8H.3 SFRSYM    DATA     BIT       T2IE
      000000CAH   SFRSYM    DATA     BYTE      T2CL
      000000B2H   SFRSYM    DATA     BYTE      I2CADR
      000000B8H   SFRSYM    DATA     BYTE      IP
      000000B7H   SFRSYM    DATA     BYTE      I2CFLG
      000000B5H   SFRSYM    DATA     BYTE      I2CDAT
      000000D0H.7 SFRSYM    DATA     BIT       CY
      000000BBH   SFRSYM    DATA     BYTE      ADCFGH
      000000DCH   SFRSYM    DATA     BYTE      PWMCMAX
      000000B1H   SFRSYM    DATA     BYTE      I2CCON
      000000D1H   SFRSYM    DATA     BYTE      PWMDIVH
      000000BAH   SFRSYM    DATA     BYTE      ADCFGL
      00000081H   SFRSYM    DATA     BYTE      SP
      000000F9H   SFRSYM    DATA     BYTE      EPIE
      000000D0H.2 SFRSYM    DATA     BIT       OV
      000000FAH   SFRSYM    DATA     BYTE      EPIF
      000000DFH   SFRSYM    DATA     BYTE      PWMDIVL
      000000B6H   SFRSYM    DATA     BYTE      I2CSTA
      000000E8H   SFRSYM    DATA     BYTE      EXIE
      000000D3H   SFRSYM    DATA     BYTE      PWMDUTH
      0000008FH   SFRSYM    DATA     BYTE      IT0CON
      00000080H.0 SFRSYM    DATA     BIT       P00
      000000D2H   SFRSYM    DATA     BYTE      PWMDUTL
      0000008EH   SFRSYM    DATA     BYTE      IT1CON
      00000090H.0 SFRSYM    DATA     BIT       P10
      00000080H.1 SFRSYM    DATA     BIT       P01
      0000009DH   SFRSYM    DATA     BYTE      S1RELH
      00000087H   SFRSYM    DATA     BYTE      PCON
      000000A0H.0 SFRSYM    DATA     BIT       P20
      00000090H.1 SFRSYM    DATA     BIT       P11
      00000080H.2 SFRSYM    DATA     BIT       P02
      000000E8H.0 SFRSYM    DATA     BIT       INT2EN
      000000A4H   SFRSYM    DATA     BYTE      S2RELH
LX51 LINKER/LOCATER V4.66.93.0                                                        04/07/2024  09:15:35  PAGE 43


      000000B0H.0 SFRSYM    DATA     BIT       P30
      00000090H.2 SFRSYM    DATA     BIT       P12
      00000080H.3 SFRSYM    DATA     BIT       P03
      000000E8H.1 SFRSYM    DATA     BIT       INT3EN
      00000090H.3 SFRSYM    DATA     BIT       P13
      00000080H.4 SFRSYM    DATA     BIT       P04
      000000E8H.2 SFRSYM    DATA     BIT       INT4EN
      00000090H.4 SFRSYM    DATA     BIT       P14
      00000080H.5 SFRSYM    DATA     BIT       P05
      000000E8H.3 SFRSYM    DATA     BIT       INT5EN
      0000009CH   SFRSYM    DATA     BYTE      S1RELL
      00000089H   SFRSYM    DATA     BYTE      TMOD
      00000088H   SFRSYM    DATA     BYTE      TCON
      00000090H.5 SFRSYM    DATA     BIT       P15
      00000080H.6 SFRSYM    DATA     BIT       P06
      000000E8H.4 SFRSYM    DATA     BIT       INT6EN
      000000A3H   SFRSYM    DATA     BYTE      S2RELL
      00000090H.6 SFRSYM    DATA     BIT       P16
      00000080H.7 SFRSYM    DATA     BIT       P07
      000000E8H.5 SFRSYM    DATA     BIT       INT7EN
      000000C8H.2 SFRSYM    DATA     BIT       UCKS
      000000F8H   SFRSYM    DATA     BYTE      EXIP
      00000090H.7 SFRSYM    DATA     BIT       P17
      000000E8H.6 SFRSYM    DATA     BIT       INT8EN
      000000E8H.7 SFRSYM    DATA     BIT       INT9EN
      00000088H.1 SFRSYM    DATA     BIT       IE0
      00000088H.3 SFRSYM    DATA     BIT       IE1
      000000F0H   SFRSYM    DATA     BYTE      B
      000000E7H   SFRSYM    DATA     BYTE      MDUDAT
      000000DEH   SFRSYM    DATA     BYTE      PWMCFG
      000000D4H   SFRSYM    DATA     BYTE      PWMAIF
      000000E0H   SFRSYM    DATA     BYTE      ACC
      000000D5H   SFRSYM    DATA     BYTE      PWMBIF
      000000A8H.4 SFRSYM    DATA     BIT       ES0
      000000EFH   SFRSYM    DATA     BYTE      LVDCON
      000000E6H   SFRSYM    DATA     BYTE      MDUCON
      000000D6H   SFRSYM    DATA     BYTE      PWMCIF
      000000A8H.1 SFRSYM    DATA     BIT       ET0
      000000A8H.6 SFRSYM    DATA     BIT       ES1
      000000D7H   SFRSYM    DATA     BYTE      PWMDIF
      000000A8H.3 SFRSYM    DATA     BIT       ET1
      00000088H.5 SFRSYM    DATA     BIT       TF0
      000000FDH   SFRSYM    DATA     BYTE      IDLSTH
      000000A8H.5 SFRSYM    DATA     BIT       ET2
      00000088H.7 SFRSYM    DATA     BIT       TF1
      000000C8H.7 SFRSYM    DATA     BIT       TF2
      0000008CH   SFRSYM    DATA     BYTE      TH0
      000000A8H.0 SFRSYM    DATA     BIT       EX0
      00000088H.0 SFRSYM    DATA     BIT       IT0
      0000008DH   SFRSYM    DATA     BYTE      TH1
      000000A8H.2 SFRSYM    DATA     BIT       EX1
      00000088H.2 SFRSYM    DATA     BIT       IT1
      000000FCH   SFRSYM    DATA     BYTE      IDLSTL
      000000CDH   SFRSYM    DATA     BYTE      TH2
      000000D0H.0 SFRSYM    DATA     BIT       P
      0000008AH   SFRSYM    DATA     BYTE      TL0
      0000008BH   SFRSYM    DATA     BYTE      TL1
      000000CCH   SFRSYM    DATA     BYTE      TL2
      000000B8H.4 SFRSYM    DATA     BIT       PS0
      000000B8H.1 SFRSYM    DATA     BIT       PT0
      000000B8H.6 SFRSYM    DATA     BIT       PS1
      000000B4H   SFRSYM    DATA     BYTE      I2CCR
      000000B8H.3 SFRSYM    DATA     BIT       PT1
      000000D0H.3 SFRSYM    DATA     BIT       RS0
      000000BDH   SFRSYM    DATA     BYTE      ADCDH
LX51 LINKER/LOCATER V4.66.93.0                                                        04/07/2024  09:15:35  PAGE 44


      000000B8H.5 SFRSYM    DATA     BIT       PT2
      00000088H.4 SFRSYM    DATA     BIT       TR0
      000000D0H.4 SFRSYM    DATA     BIT       RS1
      000000DDH   SFRSYM    DATA     BYTE      PWMCON
      00000088H.6 SFRSYM    DATA     BIT       TR1
      000000ADH   SFRSYM    DATA     BYTE      WDVTHH
      000000C8H.6 SFRSYM    DATA     BIT       TR2
      000000B8H.0 SFRSYM    DATA     BIT       PX0
      000000B8H.2 SFRSYM    DATA     BIT       PX1
      000000BCH   SFRSYM    DATA     BYTE      ADCDL
      000000ACH   SFRSYM    DATA     BYTE      WDVTHL
      000000DBH   SFRSYM    DATA     BYTE      PWMUPD
      0000009BH   SFRSYM    DATA     BYTE      S1BUF
      000000A2H   SFRSYM    DATA     BYTE      S2BUF
      0000009AH   SFRSYM    DATA     BYTE      S1CON
      000000B9H   SFRSYM    DATA     BYTE      ADCON
      000000A1H   SFRSYM    DATA     BYTE      S2CON
      000000D0H.1 SFRSYM    DATA     BIT       DPS
      000000C9H   SFRSYM    DATA     BYTE      T2MOD
      000000C8H   SFRSYM    DATA     BYTE      T2CON
      000000FFH   SFRSYM    DATA     BYTE      STPSTH
      000000FEH   SFRSYM    DATA     BYTE      STPSTL
      000000D0H.5 SFRSYM    DATA     BIT       F0
      000000ABH   SFRSYM    DATA     BYTE      WDFLG
      000000FBH   SFRSYM    DATA     BYTE      EPCON
      000000F7H   SFRSYM    DATA     BYTE      INDEX
      000000D0H   SFRSYM    DATA     BYTE      PSW
      000000AAH   SFRSYM    DATA     BYTE      WDCON
      000000A6H   SFRSYM    DATA     BYTE      SPDAT

      01003E2BH   BLOCK     CODE     ---       LVL=0
      01003E2BH   LINE      CODE     ---       #18
      01003E2BH   LINE      CODE     ---       #19
      01003E2BH   LINE      CODE     ---       #25
      01003E2EH   LINE      CODE     ---       #26
      01003E31H   LINE      CODE     ---       #27
      01003E34H   LINE      CODE     ---       #44
      ---         BLOCKEND  ---      ---       LVL=0

      01003E6FH   BLOCK     CODE     ---       LVL=0
      01003E6FH   LINE      CODE     ---       #56
      01003E6FH   LINE      CODE     ---       #57
      01003E6FH   LINE      CODE     ---       #58
      01003E72H   LINE      CODE     ---       #59
      ---         BLOCKEND  ---      ---       LVL=0

      ---         MODULE    ---      ---       GLH_FLASH
      02000335H   PUBLIC    XDATA    BYTE      ?_GLHFLASH_WriteBytes?BYTE
      01003728H   PUBLIC    CODE     ---       _GLHFLASH_WriteBytes
      02000335H   PUBLIC    XDATA    BYTE      ?_GLHFLASH_ReadBytes?BYTE
      01003DF9H   PUBLIC    CODE     ---       _GLHFLASH_ReadBytes
      0200033EH   PUBLIC    XDATA    BYTE      ?_GLHFLASH_EraseBlock?BYTE
      0100339FH   PUBLIC    CODE     ---       _GLHFLASH_EraseBlock
      01003E3DH   PUBLIC    CODE     ---       GLHFLASH_Init

      01003331H   BLOCK     CODE     ---       LVL=0
      ---         BLOCKEND  ---      ---       LVL=0

      01003E3DH   BLOCK     CODE     ---       LVL=0
      01003E3DH   LINE      CODE     ---       #19
      01003E3DH   LINE      CODE     ---       #20
      01003E3DH   LINE      CODE     ---       #21
      01003E43H   LINE      CODE     ---       #22
      ---         BLOCKEND  ---      ---       LVL=0

LX51 LINKER/LOCATER V4.66.93.0                                                        04/07/2024  09:15:35  PAGE 45


      0100339FH   BLOCK     CODE     ---       LVL=0
      0200033EH   SYMBOL    XDATA    DWORD     u32Addr
      02000342H   SYMBOL    XDATA    WORD      u16Len
      010033A5H   BLOCK     CODE     NEAR LAB  LVL=1
      02000344H   SYMBOL    XDATA    BYTE      i
      ---         BLOCKEND  ---      ---       LVL=1
      0100339FH   LINE      CODE     ---       #24
      010033A5H   LINE      CODE     ---       #25
      010033A5H   LINE      CODE     ---       #26
      010033AAH   LINE      CODE     ---       #28
      010033F9H   LINE      CODE     ---       #29
      010033F9H   LINE      CODE     ---       #30
      01003401H   LINE      CODE     ---       #31
      01003409H   LINE      CODE     ---       #32
      ---         BLOCKEND  ---      ---       LVL=0

      01003DF9H   BLOCK     CODE     ---       LVL=0
      00000004H   SYMBOL    DATA     DWORD     u32Addr
      00000001H   SYMBOL    DATA     ---       pu8Buff
      0200033CH   SYMBOL    XDATA    WORD      u16Len
      01003DF9H   LINE      CODE     ---       #44
      01003DF9H   LINE      CODE     ---       #45
      01003DF9H   LINE      CODE     ---       #46
      ---         BLOCKEND  ---      ---       LVL=0

      01003728H   BLOCK     CODE     ---       LVL=0
      02000335H   SYMBOL    XDATA    DWORD     u32Addr
      02000339H   SYMBOL    XDATA    ---       pu8Buff
      0200033CH   SYMBOL    XDATA    WORD      u16Len
      01003728H   LINE      CODE     ---       #50
      01003739H   LINE      CODE     ---       #51
      01003739H   LINE      CODE     ---       #52
      01003751H   LINE      CODE     ---       #53
      ---         BLOCKEND  ---      ---       LVL=0

      ---         MODULE    ---      ---       GLH_LT8920L
      01002D4DH   PUBLIC    CODE     ---       RF24G_IsWorkingNomalCheckMainThread
      01003DD0H   PUBLIC    CODE     ---       RF24G_IsTxOrRxComplete
      02000336H   PUBLIC    XDATA    BYTE      ?_RF24G_ReadRxData?BYTE
      010034D9H   PUBLIC    CODE     ---       _RF24G_ReadRxData
      01003B70H   PUBLIC    CODE     ---       _RF24G_EnterRxMode
      0200035EH   PUBLIC    XDATA    BYTE      ?_RF24G_Tx?BYTE
      010032BEH   PUBLIC    CODE     ---       _RF24G_Tx
      010031CBH   PUBLIC    CODE     ---       RF24G_Init
      01003C6BH   PUBLIC    CODE     ---       RF24G_Change_0x38
      01003D86H   PUBLIC    CODE     ---       _RF24G_ReadReg
      01003686H   PUBLIC    CODE     ---       _RF24G_WriteReg
      00000080H   SFRSYM    DATA     BYTE      P0
      00000090H   SFRSYM    DATA     BYTE      P1
      000000A0H   SFRSYM    DATA     BYTE      P2
      000000B0H   SFRSYM    DATA     BYTE      P3
      000000D0H.6 SFRSYM    DATA     BIT       AC
      000000A5H   SFRSYM    DATA     BYTE      SPCON
      000000A8H.7 SFRSYM    DATA     BIT       EA
      000000C8H.0 SFRSYM    DATA     BIT       T2P0
      000000C8H.1 SFRSYM    DATA     BIT       T2P1
      000000C8H.4 SFRSYM    DATA     BIT       T2R0
      000000DAH   SFRSYM    DATA     BYTE      PWMEN
      00000086H   SFRSYM    DATA     BYTE      PWCON
      000000C8H.5 SFRSYM    DATA     BIT       T2R1
      000000A7H   SFRSYM    DATA     BYTE      SPSTA
      00000083H   SFRSYM    DATA     BYTE      DP0H
      000000A8H   SFRSYM    DATA     BYTE      IE
      00000085H   SFRSYM    DATA     BYTE      DP1H
      00000082H   SFRSYM    DATA     BYTE      DP0L
LX51 LINKER/LOCATER V4.66.93.0                                                        04/07/2024  09:15:35  PAGE 46


      000000CBH   SFRSYM    DATA     BYTE      T2CH
      000000B3H   SFRSYM    DATA     BYTE      I2CADM
      00000084H   SFRSYM    DATA     BYTE      DP1L
      000000C8H.3 SFRSYM    DATA     BIT       T2IE
      000000CAH   SFRSYM    DATA     BYTE      T2CL
      000000B2H   SFRSYM    DATA     BYTE      I2CADR
      000000B8H   SFRSYM    DATA     BYTE      IP
      000000B7H   SFRSYM    DATA     BYTE      I2CFLG
      000000B5H   SFRSYM    DATA     BYTE      I2CDAT
      000000D0H.7 SFRSYM    DATA     BIT       CY
      000000BBH   SFRSYM    DATA     BYTE      ADCFGH
      000000DCH   SFRSYM    DATA     BYTE      PWMCMAX
      000000B1H   SFRSYM    DATA     BYTE      I2CCON
      000000D1H   SFRSYM    DATA     BYTE      PWMDIVH
      000000BAH   SFRSYM    DATA     BYTE      ADCFGL
      00000081H   SFRSYM    DATA     BYTE      SP
      000000F9H   SFRSYM    DATA     BYTE      EPIE
      000000D0H.2 SFRSYM    DATA     BIT       OV
      000000FAH   SFRSYM    DATA     BYTE      EPIF
      000000DFH   SFRSYM    DATA     BYTE      PWMDIVL
      000000B6H   SFRSYM    DATA     BYTE      I2CSTA
      000000E8H   SFRSYM    DATA     BYTE      EXIE
      000000D3H   SFRSYM    DATA     BYTE      PWMDUTH
      0000008FH   SFRSYM    DATA     BYTE      IT0CON
      00000080H.0 SFRSYM    DATA     BIT       P00
      000000D2H   SFRSYM    DATA     BYTE      PWMDUTL
      0000008EH   SFRSYM    DATA     BYTE      IT1CON
      00000090H.0 SFRSYM    DATA     BIT       P10
      00000080H.1 SFRSYM    DATA     BIT       P01
      0000009DH   SFRSYM    DATA     BYTE      S1RELH
      00000087H   SFRSYM    DATA     BYTE      PCON
      000000A0H.0 SFRSYM    DATA     BIT       P20
      00000090H.1 SFRSYM    DATA     BIT       P11
      00000080H.2 SFRSYM    DATA     BIT       P02
      000000E8H.0 SFRSYM    DATA     BIT       INT2EN
      000000A4H   SFRSYM    DATA     BYTE      S2RELH
      000000B0H.0 SFRSYM    DATA     BIT       P30
      00000090H.2 SFRSYM    DATA     BIT       P12
      00000080H.3 SFRSYM    DATA     BIT       P03
      000000E8H.1 SFRSYM    DATA     BIT       INT3EN
      00000090H.3 SFRSYM    DATA     BIT       P13
      00000080H.4 SFRSYM    DATA     BIT       P04
      000000E8H.2 SFRSYM    DATA     BIT       INT4EN
      00000090H.4 SFRSYM    DATA     BIT       P14
      00000080H.5 SFRSYM    DATA     BIT       P05
      000000E8H.3 SFRSYM    DATA     BIT       INT5EN
      0000009CH   SFRSYM    DATA     BYTE      S1RELL
      00000089H   SFRSYM    DATA     BYTE      TMOD
      00000088H   SFRSYM    DATA     BYTE      TCON
      00000090H.5 SFRSYM    DATA     BIT       P15
      00000080H.6 SFRSYM    DATA     BIT       P06
      000000E8H.4 SFRSYM    DATA     BIT       INT6EN
      000000A3H   SFRSYM    DATA     BYTE      S2RELL
      00000090H.6 SFRSYM    DATA     BIT       P16
      00000080H.7 SFRSYM    DATA     BIT       P07
      000000E8H.5 SFRSYM    DATA     BIT       INT7EN
      000000C8H.2 SFRSYM    DATA     BIT       UCKS
      000000F8H   SFRSYM    DATA     BYTE      EXIP
      00000090H.7 SFRSYM    DATA     BIT       P17
      000000E8H.6 SFRSYM    DATA     BIT       INT8EN
      000000E8H.7 SFRSYM    DATA     BIT       INT9EN
      00000088H.1 SFRSYM    DATA     BIT       IE0
      00000088H.3 SFRSYM    DATA     BIT       IE1
      000000F0H   SFRSYM    DATA     BYTE      B
      000000E7H   SFRSYM    DATA     BYTE      MDUDAT
LX51 LINKER/LOCATER V4.66.93.0                                                        04/07/2024  09:15:35  PAGE 47


      000000DEH   SFRSYM    DATA     BYTE      PWMCFG
      000000D4H   SFRSYM    DATA     BYTE      PWMAIF
      000000E0H   SFRSYM    DATA     BYTE      ACC
      000000D5H   SFRSYM    DATA     BYTE      PWMBIF
      000000A8H.4 SFRSYM    DATA     BIT       ES0
      000000EFH   SFRSYM    DATA     BYTE      LVDCON
      000000E6H   SFRSYM    DATA     BYTE      MDUCON
      000000D6H   SFRSYM    DATA     BYTE      PWMCIF
      000000A8H.1 SFRSYM    DATA     BIT       ET0
      000000A8H.6 SFRSYM    DATA     BIT       ES1
      000000D7H   SFRSYM    DATA     BYTE      PWMDIF
      000000A8H.3 SFRSYM    DATA     BIT       ET1
      00000088H.5 SFRSYM    DATA     BIT       TF0
      000000FDH   SFRSYM    DATA     BYTE      IDLSTH
      000000A8H.5 SFRSYM    DATA     BIT       ET2
      00000088H.7 SFRSYM    DATA     BIT       TF1
      000000C8H.7 SFRSYM    DATA     BIT       TF2
      0000008CH   SFRSYM    DATA     BYTE      TH0
      000000A8H.0 SFRSYM    DATA     BIT       EX0
      00000088H.0 SFRSYM    DATA     BIT       IT0
      0000008DH   SFRSYM    DATA     BYTE      TH1
      000000A8H.2 SFRSYM    DATA     BIT       EX1
      00000088H.2 SFRSYM    DATA     BIT       IT1
      000000FCH   SFRSYM    DATA     BYTE      IDLSTL
      000000CDH   SFRSYM    DATA     BYTE      TH2
      000000D0H.0 SFRSYM    DATA     BIT       P
      0000008AH   SFRSYM    DATA     BYTE      TL0
      0000008BH   SFRSYM    DATA     BYTE      TL1
      000000CCH   SFRSYM    DATA     BYTE      TL2
      000000B8H.4 SFRSYM    DATA     BIT       PS0
      000000B8H.1 SFRSYM    DATA     BIT       PT0
      000000B8H.6 SFRSYM    DATA     BIT       PS1
      000000B4H   SFRSYM    DATA     BYTE      I2CCR
      000000B8H.3 SFRSYM    DATA     BIT       PT1
      000000D0H.3 SFRSYM    DATA     BIT       RS0
      000000BDH   SFRSYM    DATA     BYTE      ADCDH
      000000B8H.5 SFRSYM    DATA     BIT       PT2
      00000088H.4 SFRSYM    DATA     BIT       TR0
      000000D0H.4 SFRSYM    DATA     BIT       RS1
      000000DDH   SFRSYM    DATA     BYTE      PWMCON
      00000088H.6 SFRSYM    DATA     BIT       TR1
      000000ADH   SFRSYM    DATA     BYTE      WDVTHH
      000000C8H.6 SFRSYM    DATA     BIT       TR2
      000000B8H.0 SFRSYM    DATA     BIT       PX0
      000000B8H.2 SFRSYM    DATA     BIT       PX1
      000000BCH   SFRSYM    DATA     BYTE      ADCDL
      000000ACH   SFRSYM    DATA     BYTE      WDVTHL
      000000DBH   SFRSYM    DATA     BYTE      PWMUPD
      0000009BH   SFRSYM    DATA     BYTE      S1BUF
      000000A2H   SFRSYM    DATA     BYTE      S2BUF
      0000009AH   SFRSYM    DATA     BYTE      S1CON
      000000B9H   SFRSYM    DATA     BYTE      ADCON
      000000A1H   SFRSYM    DATA     BYTE      S2CON
      000000D0H.1 SFRSYM    DATA     BIT       DPS
      000000C9H   SFRSYM    DATA     BYTE      T2MOD
      000000C8H   SFRSYM    DATA     BYTE      T2CON
      000000FFH   SFRSYM    DATA     BYTE      STPSTH
      000000FEH   SFRSYM    DATA     BYTE      STPSTL
      000000D0H.5 SFRSYM    DATA     BIT       F0
      000000ABH   SFRSYM    DATA     BYTE      WDFLG
      000000FBH   SFRSYM    DATA     BYTE      EPCON
      000000F7H   SFRSYM    DATA     BYTE      INDEX
      000000D0H   SFRSYM    DATA     BYTE      PSW
      000000AAH   SFRSYM    DATA     BYTE      WDCON
      000000A6H   SFRSYM    DATA     BYTE      SPDAT
LX51 LINKER/LOCATER V4.66.93.0                                                        04/07/2024  09:15:35  PAGE 48


      01003D03H   SYMBOL    CODE     ---       iRf24g_ReInit
      01003C4AH   SYMBOL    CODE     ---       iSpiReadByte
      01003BE0H   SYMBOL    CODE     ---       _iSpiWriteByte
      02000377H   SYMBOL    XDATA    BYTE      s_u8ResH
      02000378H   SYMBOL    XDATA    BYTE      s_u8ResL

      01003246H   BLOCK     CODE     ---       LVL=0
      ---         BLOCKEND  ---      ---       LVL=0

      01003BE0H   BLOCK     CODE     ---       LVL=0
      00000007H   SYMBOL    DATA     BYTE      u8Byte
      01003BE0H   BLOCK     CODE     NEAR LAB  LVL=1
      00000006H   SYMBOL    DATA     BYTE      u8Cnt
      ---         BLOCKEND  ---      ---       LVL=1
      01003BE0H   LINE      CODE     ---       #28
      01003BE0H   LINE      CODE     ---       #29
      01003BE0H   LINE      CODE     ---       #30
      01003BE2H   LINE      CODE     ---       #32
      01003BECH   LINE      CODE     ---       #33
      01003BECH   LINE      CODE     ---       #34
      01003BEEH   LINE      CODE     ---       #37
      01003BF2H   LINE      CODE     ---       #38
      01003BF2H   LINE      CODE     ---       #39
      01003BF4H   LINE      CODE     ---       #40
      01003BF6H   LINE      CODE     ---       #42
      01003BF6H   LINE      CODE     ---       #43
      01003BF8H   LINE      CODE     ---       #44
      01003BF8H   LINE      CODE     ---       #47
      01003BFCH   LINE      CODE     ---       #48
      01003BFEH   LINE      CODE     ---       #49
      01003C01H   LINE      CODE     ---       #51
      01003C03H   LINE      CODE     ---       #52
      ---         BLOCKEND  ---      ---       LVL=0

      01003C4AH   BLOCK     CODE     ---       LVL=0
      01003C4AH   BLOCK     CODE     NEAR LAB  LVL=1
      00000007H   SYMBOL    DATA     BYTE      u8Cnt
      00000006H   SYMBOL    DATA     BYTE      u8Ret
      ---         BLOCKEND  ---      ---       LVL=1
      01003C4AH   LINE      CODE     ---       #54
      01003C4AH   LINE      CODE     ---       #55
      01003C4AH   LINE      CODE     ---       #56
      01003C4DH   LINE      CODE     ---       #58
      01003C57H   LINE      CODE     ---       #59
      01003C57H   LINE      CODE     ---       #60
      01003C59H   LINE      CODE     ---       #63
      01003C5DH   LINE      CODE     ---       #64
      01003C60H   LINE      CODE     ---       #65
      01003C60H   LINE      CODE     ---       #66
      01003C63H   LINE      CODE     ---       #67
      01003C63H   LINE      CODE     ---       #70
      01003C65H   LINE      CODE     ---       #71
      01003C68H   LINE      CODE     ---       #73
      01003C6AH   LINE      CODE     ---       #74
      ---         BLOCKEND  ---      ---       LVL=0

      01003647H   BLOCK     CODE     ---       LVL=0
      ---         BLOCKEND  ---      ---       LVL=0

      01003686H   BLOCK     CODE     ---       LVL=0
      00000007H   SYMBOL    DATA     BYTE      u8Reg
      00000004H   SYMBOL    DATA     WORD      u16Value
      01003686H   LINE      CODE     ---       #76
      01003686H   LINE      CODE     ---       #77
      01003686H   LINE      CODE     ---       #78
LX51 LINKER/LOCATER V4.66.93.0                                                        04/07/2024  09:15:35  PAGE 49


      01003688H   LINE      CODE     ---       #79
      0100368BH   LINE      CODE     ---       #80
      01003690H   LINE      CODE     ---       #81
      01003695H   LINE      CODE     ---       #82
      01003697H   LINE      CODE     ---       #83
      ---         BLOCKEND  ---      ---       LVL=0

      01003D86H   BLOCK     CODE     ---       LVL=0
      00000007H   SYMBOL    DATA     BYTE      u8Reg
      01003D86H   BLOCK     CODE     NEAR LAB  LVL=1
      00000004H   SYMBOL    DATA     WORD      u16Temp
      ---         BLOCKEND  ---      ---       LVL=1
      01003D86H   LINE      CODE     ---       #85
      01003D86H   LINE      CODE     ---       #86
      01003D86H   LINE      CODE     ---       #87
      01003D89H   LINE      CODE     ---       #89
      01003D8BH   LINE      CODE     ---       #90
      01003D92H   LINE      CODE     ---       #91
      01003D97H   LINE      CODE     ---       #92
      01003D9AH   LINE      CODE     ---       #93
      01003D9CH   LINE      CODE     ---       #95
      01003D9EH   LINE      CODE     ---       #96
      ---         BLOCKEND  ---      ---       LVL=0

      01003C6BH   BLOCK     CODE     ---       LVL=0
      01003C6BH   BLOCK     CODE     NEAR LAB  LVL=1
      02000372H   SYMBOL    XDATA    BYTE      s_bFlag
      ---         BLOCKEND  ---      ---       LVL=1
      01003C6BH   LINE      CODE     ---       #99
      01003C6BH   LINE      CODE     ---       #100
      01003C6BH   LINE      CODE     ---       #103
      01003C7AH   LINE      CODE     ---       #104
      01003C7CH   LINE      CODE     ---       #105
      01003C7CH   LINE      CODE     ---       #106
      01003C80H   LINE      CODE     ---       #107
      01003C82H   LINE      CODE     ---       #109
      01003C82H   LINE      CODE     ---       #110
      01003C8BH   LINE      CODE     ---       #111
      01003C8BH   LINE      CODE     ---       #112
      ---         BLOCKEND  ---      ---       LVL=0

      010031CBH   BLOCK     CODE     ---       LVL=0
      010031CBH   BLOCK     CODE     NEAR LAB  LVL=1
      02000335H   SYMBOL    XDATA    DWORD     u32WaitStartTime
      010031F5H   SYMBOL    CODE     ---       ReTry
      ---         BLOCKEND  ---      ---       LVL=1
      010031CBH   LINE      CODE     ---       #114
      010031CBH   LINE      CODE     ---       #115
      010031CBH   LINE      CODE     ---       #116
      010031D5H   LINE      CODE     ---       #119
      010031DBH   LINE      CODE     ---       #120
      010031DFH   LINE      CODE     ---       #121
      010031E3H   LINE      CODE     ---       #122
      010031E7H   LINE      CODE     ---       #123
      010031EDH   LINE      CODE     ---       #124
      010031F1H   LINE      CODE     ---       #126
      010031F3H   LINE      CODE     ---       #127
      010031F5H   LINE      CODE     ---       #129
      010031F5H   LINE      CODE     ---       #130
      010031F7H   LINE      CODE     ---       #131
      01003201H   LINE      CODE     ---       #132
      0100320CH   LINE      CODE     ---       #133
      0100320EH   LINE      CODE     ---       #134
      01003218H   LINE      CODE     ---       #135
      01003223H   LINE      CODE     ---       #153
LX51 LINKER/LOCATER V4.66.93.0                                                        04/07/2024  09:15:35  PAGE 50


      01003232H   LINE      CODE     ---       #154
      01003232H   LINE      CODE     ---       #155
      01003232H   LINE      CODE     ---       #156
      01003232H   LINE      CODE     ---       #164
      01003233H   LINE      CODE     ---       #167
      01003233H   LINE      CODE     ---       #176
      01003233H   LINE      CODE     ---       #183
      01003233H   LINE      CODE     ---       #196
      01003233H   LINE      CODE     ---       #203
      01003233H   LINE      CODE     ---       #207
      01003233H   LINE      CODE     ---       #208
      01003236H   LINE      CODE     ---       #217
      01003238H   LINE      CODE     ---       #235
      01003238H   LINE      CODE     ---       #243
      01003238H   LINE      CODE     ---       #253
      0100323BH   LINE      CODE     ---       #257
      01003240H   LINE      CODE     ---       #266
      ---         BLOCKEND  ---      ---       LVL=0

      01003D03H   BLOCK     CODE     ---       LVL=0
      01003D03H   LINE      CODE     ---       #272
      01003D03H   LINE      CODE     ---       #273
      01003D03H   LINE      CODE     ---       #280
      01003D05H   LINE      CODE     ---       #283
      01003D05H   LINE      CODE     ---       #292
      01003D05H   LINE      CODE     ---       #299
      01003D05H   LINE      CODE     ---       #312
      01003D05H   LINE      CODE     ---       #319
      01003D05H   LINE      CODE     ---       #323
      01003D05H   LINE      CODE     ---       #324
      01003D08H   LINE      CODE     ---       #333
      01003D0AH   LINE      CODE     ---       #351
      01003D0AH   LINE      CODE     ---       #359
      01003D0AH   LINE      CODE     ---       #369
      01003D0DH   LINE      CODE     ---       #373
      01003D16H   LINE      CODE     ---       #382
      ---         BLOCKEND  ---      ---       LVL=0

      010032BEH   BLOCK     CODE     ---       LVL=0
      0200035EH   SYMBOL    XDATA    ---       pu8Data
      02000361H   SYMBOL    XDATA    BYTE      u8Len
      02000362H   SYMBOL    XDATA    BYTE      u8Ch
      010032CCH   BLOCK     CODE     NEAR LAB  LVL=1
      00000005H   SYMBOL    DATA     BYTE      i
      ---         BLOCKEND  ---      ---       LVL=1
      010032BEH   LINE      CODE     ---       #385
      010032CCH   LINE      CODE     ---       #386
      010032CCH   LINE      CODE     ---       #387
      010032CEH   LINE      CODE     ---       #389
      010032E0H   LINE      CODE     ---       #390
      010032E0H   LINE      CODE     ---       #392
      010032E0H   LINE      CODE     ---       #395
      010032E4H   LINE      CODE     ---       #397
      010032EAH   LINE      CODE     ---       #400
      010032ECH   LINE      CODE     ---       #401
      010032F1H   LINE      CODE     ---       #402
      010032F6H   LINE      CODE     ---       #403
      01003302H   LINE      CODE     ---       #404
      01003302H   LINE      CODE     ---       #405
      01003312H   LINE      CODE     ---       #406
      01003315H   LINE      CODE     ---       #407
      01003317H   LINE      CODE     ---       #409
      01003320H   LINE      CODE     ---       #411
      01003330H   LINE      CODE     ---       #412
      ---         BLOCKEND  ---      ---       LVL=0
LX51 LINKER/LOCATER V4.66.93.0                                                        04/07/2024  09:15:35  PAGE 51



      01003B70H   BLOCK     CODE     ---       LVL=0
      00000003H   SYMBOL    DATA     BYTE      u8Ch
      01003B70H   LINE      CODE     ---       #414
      01003B72H   LINE      CODE     ---       #415
      01003B72H   LINE      CODE     ---       #417
      01003B7BH   LINE      CODE     ---       #419
      01003B7EH   LINE      CODE     ---       #420
      01003B84H   LINE      CODE     ---       #421
      01003B8AH   LINE      CODE     ---       #423
      ---         BLOCKEND  ---      ---       LVL=0

      010034D9H   BLOCK     CODE     ---       LVL=0
      02000336H   SYMBOL    XDATA    ---       pu8RxData
      02000339H   SYMBOL    XDATA    ---       pu8RxLen
      010034E4H   BLOCK     CODE     NEAR LAB  LVL=1
      00000005H   SYMBOL    DATA     BYTE      i
      ---         BLOCKEND  ---      ---       LVL=1
      010034D9H   LINE      CODE     ---       #426
      010034E4H   LINE      CODE     ---       #427
      010034E4H   LINE      CODE     ---       #428
      010034E6H   LINE      CODE     ---       #430
      010034E8H   LINE      CODE     ---       #431
      010034EDH   LINE      CODE     ---       #432
      010034F9H   LINE      CODE     ---       #433
      0100350CH   LINE      CODE     ---       #434
      01003511H   LINE      CODE     ---       #435
      01003523H   LINE      CODE     ---       #436
      01003523H   LINE      CODE     ---       #437
      01003536H   LINE      CODE     ---       #438
      01003539H   LINE      CODE     ---       #439
      0100353BH   LINE      CODE     ---       #440
      ---         BLOCKEND  ---      ---       LVL=0

      01003DD0H   BLOCK     CODE     ---       LVL=0
      01003DD0H   BLOCK     CODE     NEAR LAB  LVL=1
      00000006H   SYMBOL    DATA     WORD      u16Temp
      ---         BLOCKEND  ---      ---       LVL=1
      01003DD0H   LINE      CODE     ---       #442
      01003DD0H   LINE      CODE     ---       #443
      01003DD0H   LINE      CODE     ---       #444
      01003DD2H   LINE      CODE     ---       #446
      01003DD7H   LINE      CODE     ---       #448
      01003DDBH   LINE      CODE     ---       #449
      01003DDBH   LINE      CODE     ---       #450
      01003DE1H   LINE      CODE     ---       #451
      01003DE1H   LINE      CODE     ---       #452
      01003DE3H   LINE      CODE     ---       #453
      01003DE3H   LINE      CODE     ---       #455
      01003DE3H   LINE      CODE     ---       #456
      01003DE4H   LINE      CODE     ---       #457
      01003DE4H   LINE      CODE     ---       #458
      01003DE4H   LINE      CODE     ---       #460
      01003DE4H   LINE      CODE     ---       #461
      01003DE6H   LINE      CODE     ---       #462
      01003DE6H   LINE      CODE     ---       #463
      ---         BLOCKEND  ---      ---       LVL=0

      01002D4DH   BLOCK     CODE     ---       LVL=0
      01002D4DH   BLOCK     CODE     NEAR LAB  LVL=1
      02000373H   SYMBOL    XDATA    DWORD     s_u32LastCheckTime
      02000335H   SYMBOL    XDATA    WORD      u16Temp
      02000337H   SYMBOL    XDATA    BYTE      i
      ---         BLOCKEND  ---      ---       LVL=1
      01002D4DH   LINE      CODE     ---       #465
LX51 LINKER/LOCATER V4.66.93.0                                                        04/07/2024  09:15:35  PAGE 52


      01002D4DH   LINE      CODE     ---       #466
      01002D4DH   LINE      CODE     ---       #468
      01002D54H   LINE      CODE     ---       #469
      01002D56H   LINE      CODE     ---       #472
      01002D6EH   LINE      CODE     ---       #473
      01002D6EH   LINE      CODE     ---       #474
      01002D78H   LINE      CODE     ---       #476
      01002D7BH   LINE      CODE     ---       #477
      01002D84H   LINE      CODE     ---       #478
      01002D84H   LINE      CODE     ---       #479
      01002D87H   LINE      CODE     ---       #480
      01002D90H   LINE      CODE     ---       #481
      01002D90H   LINE      CODE     ---       #482
      01002D90H   LINE      CODE     ---       #483
      01002D92H   LINE      CODE     ---       #485
      01002D92H   LINE      CODE     ---       #486
      01002D92H   LINE      CODE     ---       #488
      01002D97H   LINE      CODE     ---       #489
      01002DA0H   LINE      CODE     ---       #490
      01002DA0H   LINE      CODE     ---       #491
      01002DA5H   LINE      CODE     ---       #492
      01002DAEH   LINE      CODE     ---       #493
      01002DAEH   LINE      CODE     ---       #494
      01002DAEH   LINE      CODE     ---       #495
      01002DB0H   LINE      CODE     ---       #497
      01002DB0H   LINE      CODE     ---       #498
      01002DB0H   LINE      CODE     ---       #500
      01002DB5H   LINE      CODE     ---       #501
      01002DBEH   LINE      CODE     ---       #502
      01002DBEH   LINE      CODE     ---       #503
      01002DC3H   LINE      CODE     ---       #504
      01002DCCH   LINE      CODE     ---       #505
      01002DCCH   LINE      CODE     ---       #506
      01002DCCH   LINE      CODE     ---       #507
      01002DCEH   LINE      CODE     ---       #509
      01002DCEH   LINE      CODE     ---       #510
      01002DCEH   LINE      CODE     ---       #512
      01002DD3H   LINE      CODE     ---       #513
      01002DDAH   LINE      CODE     ---       #514
      01002DDAH   LINE      CODE     ---       #515
      01002DDFH   LINE      CODE     ---       #516
      01002DE6H   LINE      CODE     ---       #517
      01002DE6H   LINE      CODE     ---       #518
      01002DE9H   LINE      CODE     ---       #519
      01002DEEH   LINE      CODE     ---       #521
      01002DEEH   LINE      CODE     ---       #522
      01002DEEH   LINE      CODE     ---       #523
      01002DEEH   LINE      CODE     ---       #524
      ---         BLOCKEND  ---      ---       LVL=0

      ---         MODULE    ---      ---       GLH_UART
      01003ACEH   PUBLIC    CODE     ---       UART1_ISR
      00000080H   SFRSYM    DATA     BYTE      P0
      00000090H   SFRSYM    DATA     BYTE      P1
      000000A0H   SFRSYM    DATA     BYTE      P2
      000000B0H   SFRSYM    DATA     BYTE      P3
      000000D0H.6 SFRSYM    DATA     BIT       AC
      000000A5H   SFRSYM    DATA     BYTE      SPCON
      000000A8H.7 SFRSYM    DATA     BIT       EA
      000000C8H.0 SFRSYM    DATA     BIT       T2P0
      000000C8H.1 SFRSYM    DATA     BIT       T2P1
      000000C8H.4 SFRSYM    DATA     BIT       T2R0
      000000DAH   SFRSYM    DATA     BYTE      PWMEN
      00000086H   SFRSYM    DATA     BYTE      PWCON
      000000C8H.5 SFRSYM    DATA     BIT       T2R1
LX51 LINKER/LOCATER V4.66.93.0                                                        04/07/2024  09:15:35  PAGE 53


      000000A7H   SFRSYM    DATA     BYTE      SPSTA
      00000083H   SFRSYM    DATA     BYTE      DP0H
      000000A8H   SFRSYM    DATA     BYTE      IE
      00000085H   SFRSYM    DATA     BYTE      DP1H
      00000082H   SFRSYM    DATA     BYTE      DP0L
      000000CBH   SFRSYM    DATA     BYTE      T2CH
      000000B3H   SFRSYM    DATA     BYTE      I2CADM
      00000084H   SFRSYM    DATA     BYTE      DP1L
      000000C8H.3 SFRSYM    DATA     BIT       T2IE
      000000CAH   SFRSYM    DATA     BYTE      T2CL
      000000B2H   SFRSYM    DATA     BYTE      I2CADR
      000000B8H   SFRSYM    DATA     BYTE      IP
      000000B7H   SFRSYM    DATA     BYTE      I2CFLG
      000000B5H   SFRSYM    DATA     BYTE      I2CDAT
      000000D0H.7 SFRSYM    DATA     BIT       CY
      000000BBH   SFRSYM    DATA     BYTE      ADCFGH
      000000DCH   SFRSYM    DATA     BYTE      PWMCMAX
      000000B1H   SFRSYM    DATA     BYTE      I2CCON
      000000D1H   SFRSYM    DATA     BYTE      PWMDIVH
      000000BAH   SFRSYM    DATA     BYTE      ADCFGL
      00000081H   SFRSYM    DATA     BYTE      SP
      000000F9H   SFRSYM    DATA     BYTE      EPIE
      000000D0H.2 SFRSYM    DATA     BIT       OV
      000000FAH   SFRSYM    DATA     BYTE      EPIF
      000000DFH   SFRSYM    DATA     BYTE      PWMDIVL
      000000B6H   SFRSYM    DATA     BYTE      I2CSTA
      000000E8H   SFRSYM    DATA     BYTE      EXIE
      000000D3H   SFRSYM    DATA     BYTE      PWMDUTH
      0000008FH   SFRSYM    DATA     BYTE      IT0CON
      00000080H.0 SFRSYM    DATA     BIT       P00
      000000D2H   SFRSYM    DATA     BYTE      PWMDUTL
      0000008EH   SFRSYM    DATA     BYTE      IT1CON
      00000090H.0 SFRSYM    DATA     BIT       P10
      00000080H.1 SFRSYM    DATA     BIT       P01
      0000009DH   SFRSYM    DATA     BYTE      S1RELH
      00000087H   SFRSYM    DATA     BYTE      PCON
      000000A0H.0 SFRSYM    DATA     BIT       P20
      00000090H.1 SFRSYM    DATA     BIT       P11
      00000080H.2 SFRSYM    DATA     BIT       P02
      000000E8H.0 SFRSYM    DATA     BIT       INT2EN
      000000A4H   SFRSYM    DATA     BYTE      S2RELH
      000000B0H.0 SFRSYM    DATA     BIT       P30
      00000090H.2 SFRSYM    DATA     BIT       P12
      00000080H.3 SFRSYM    DATA     BIT       P03
      000000E8H.1 SFRSYM    DATA     BIT       INT3EN
      00000090H.3 SFRSYM    DATA     BIT       P13
      00000080H.4 SFRSYM    DATA     BIT       P04
      000000E8H.2 SFRSYM    DATA     BIT       INT4EN
      00000090H.4 SFRSYM    DATA     BIT       P14
      00000080H.5 SFRSYM    DATA     BIT       P05
      000000E8H.3 SFRSYM    DATA     BIT       INT5EN
      0000009CH   SFRSYM    DATA     BYTE      S1RELL
      00000089H   SFRSYM    DATA     BYTE      TMOD
      00000088H   SFRSYM    DATA     BYTE      TCON
      00000090H.5 SFRSYM    DATA     BIT       P15
      00000080H.6 SFRSYM    DATA     BIT       P06
      000000E8H.4 SFRSYM    DATA     BIT       INT6EN
      000000A3H   SFRSYM    DATA     BYTE      S2RELL
      00000090H.6 SFRSYM    DATA     BIT       P16
      00000080H.7 SFRSYM    DATA     BIT       P07
      000000E8H.5 SFRSYM    DATA     BIT       INT7EN
      000000C8H.2 SFRSYM    DATA     BIT       UCKS
      000000F8H   SFRSYM    DATA     BYTE      EXIP
      00000090H.7 SFRSYM    DATA     BIT       P17
      000000E8H.6 SFRSYM    DATA     BIT       INT8EN
LX51 LINKER/LOCATER V4.66.93.0                                                        04/07/2024  09:15:35  PAGE 54


      000000E8H.7 SFRSYM    DATA     BIT       INT9EN
      00000088H.1 SFRSYM    DATA     BIT       IE0
      00000088H.3 SFRSYM    DATA     BIT       IE1
      000000F0H   SFRSYM    DATA     BYTE      B
      000000E7H   SFRSYM    DATA     BYTE      MDUDAT
      000000DEH   SFRSYM    DATA     BYTE      PWMCFG
      000000D4H   SFRSYM    DATA     BYTE      PWMAIF
      000000E0H   SFRSYM    DATA     BYTE      ACC
      000000D5H   SFRSYM    DATA     BYTE      PWMBIF
      000000A8H.4 SFRSYM    DATA     BIT       ES0
      000000EFH   SFRSYM    DATA     BYTE      LVDCON
      000000E6H   SFRSYM    DATA     BYTE      MDUCON
      000000D6H   SFRSYM    DATA     BYTE      PWMCIF
      000000A8H.1 SFRSYM    DATA     BIT       ET0
      000000A8H.6 SFRSYM    DATA     BIT       ES1
      000000D7H   SFRSYM    DATA     BYTE      PWMDIF
      000000A8H.3 SFRSYM    DATA     BIT       ET1
      00000088H.5 SFRSYM    DATA     BIT       TF0
      000000FDH   SFRSYM    DATA     BYTE      IDLSTH
      000000A8H.5 SFRSYM    DATA     BIT       ET2
      00000088H.7 SFRSYM    DATA     BIT       TF1
      000000C8H.7 SFRSYM    DATA     BIT       TF2
      0000008CH   SFRSYM    DATA     BYTE      TH0
      000000A8H.0 SFRSYM    DATA     BIT       EX0
      00000088H.0 SFRSYM    DATA     BIT       IT0
      0000008DH   SFRSYM    DATA     BYTE      TH1
      000000A8H.2 SFRSYM    DATA     BIT       EX1
      00000088H.2 SFRSYM    DATA     BIT       IT1
      000000FCH   SFRSYM    DATA     BYTE      IDLSTL
      000000CDH   SFRSYM    DATA     BYTE      TH2
      000000D0H.0 SFRSYM    DATA     BIT       P
      0000008AH   SFRSYM    DATA     BYTE      TL0
      0000008BH   SFRSYM    DATA     BYTE      TL1
      000000CCH   SFRSYM    DATA     BYTE      TL2
      000000B8H.4 SFRSYM    DATA     BIT       PS0
      000000B8H.1 SFRSYM    DATA     BIT       PT0
      000000B8H.6 SFRSYM    DATA     BIT       PS1
      000000B4H   SFRSYM    DATA     BYTE      I2CCR
      000000B8H.3 SFRSYM    DATA     BIT       PT1
      000000D0H.3 SFRSYM    DATA     BIT       RS0
      000000BDH   SFRSYM    DATA     BYTE      ADCDH
      000000B8H.5 SFRSYM    DATA     BIT       PT2
      00000088H.4 SFRSYM    DATA     BIT       TR0
      000000D0H.4 SFRSYM    DATA     BIT       RS1
      000000DDH   SFRSYM    DATA     BYTE      PWMCON
      00000088H.6 SFRSYM    DATA     BIT       TR1
      000000ADH   SFRSYM    DATA     BYTE      WDVTHH
      000000C8H.6 SFRSYM    DATA     BIT       TR2
      000000B8H.0 SFRSYM    DATA     BIT       PX0
      000000B8H.2 SFRSYM    DATA     BIT       PX1
      000000BCH   SFRSYM    DATA     BYTE      ADCDL
      000000ACH   SFRSYM    DATA     BYTE      WDVTHL
      000000DBH   SFRSYM    DATA     BYTE      PWMUPD
      0000009BH   SFRSYM    DATA     BYTE      S1BUF
      000000A2H   SFRSYM    DATA     BYTE      S2BUF
      0000009AH   SFRSYM    DATA     BYTE      S1CON
      000000B9H   SFRSYM    DATA     BYTE      ADCON
      000000A1H   SFRSYM    DATA     BYTE      S2CON
      000000D0H.1 SFRSYM    DATA     BIT       DPS
      000000C9H   SFRSYM    DATA     BYTE      T2MOD
      000000C8H   SFRSYM    DATA     BYTE      T2CON
      000000FFH   SFRSYM    DATA     BYTE      STPSTH
      000000FEH   SFRSYM    DATA     BYTE      STPSTL
      000000D0H.5 SFRSYM    DATA     BIT       F0
      000000ABH   SFRSYM    DATA     BYTE      WDFLG
LX51 LINKER/LOCATER V4.66.93.0                                                        04/07/2024  09:15:35  PAGE 55


      000000FBH   SFRSYM    DATA     BYTE      EPCON
      000000F7H   SFRSYM    DATA     BYTE      INDEX
      000000D0H   SFRSYM    DATA     BYTE      PSW
      000000AAH   SFRSYM    DATA     BYTE      WDCON
      000000A6H   SFRSYM    DATA     BYTE      SPDAT
      0200027CH   SYMBOL    XDATA    ---       s_au8RecBuff
      01003DB8H   SYMBOL    CODE     ---       _iWriteByte
      00000008H   SYMBOL    DATA     BYTE      s_u8Rp
      00000009H   SYMBOL    DATA     BYTE      s_u8Wp

      01003DB8H   BLOCK     CODE     ---       LVL=0
      00000007H   SYMBOL    DATA     BYTE      byte
      01003DB8H   LINE      CODE     ---       #32
      01003DB8H   LINE      CODE     ---       #33
      01003DB8H   LINE      CODE     ---       #34
      01003DC5H   LINE      CODE     ---       #35
      01003DC7H   LINE      CODE     ---       #36
      01003DCDH   LINE      CODE     ---       #37
      01003DCDH   LINE      CODE     ---       #38
      01003DCFH   LINE      CODE     ---       #39
      01003DCFH   LINE      CODE     ---       #40
      ---         BLOCKEND  ---      ---       LVL=0
      00000007H   SYMBOL    DATA     BYTE      u8Byte
      00000005H   SYMBOL    DATA     BYTE      u8Len
      00000006H   SYMBOL    DATA     BYTE      i

      01003ACEH   BLOCK     CODE     ---       LVL=0
      01003ACEH   LINE      CODE     ---       #92
      01003ADBH   LINE      CODE     ---       #94
      01003AE0H   LINE      CODE     ---       #95
      01003AE0H   LINE      CODE     ---       #96
      01003AE8H   LINE      CODE     ---       #98
      01003AEDH   LINE      CODE     ---       #99
      01003AEDH   LINE      CODE     ---       #100
      ---         BLOCKEND  ---      ---       LVL=0

      ---         MODULE    ---      ---       GLH_OVER_CURRENT_PROTECT
      0100376CH   PUBLIC    CODE     ---       INT0_ISR
      010038A8H   PUBLIC    CODE     ---       GLHOCP_MainThread
      01003AA0H   PUBLIC    CODE     ---       GLHOCP_Init
      00000080H   SFRSYM    DATA     BYTE      P0
      00000090H   SFRSYM    DATA     BYTE      P1
      000000A0H   SFRSYM    DATA     BYTE      P2
      000000B0H   SFRSYM    DATA     BYTE      P3
      000000D0H.6 SFRSYM    DATA     BIT       AC
      000000A5H   SFRSYM    DATA     BYTE      SPCON
      000000A8H.7 SFRSYM    DATA     BIT       EA
      000000C8H.0 SFRSYM    DATA     BIT       T2P0
      000000C8H.1 SFRSYM    DATA     BIT       T2P1
      000000C8H.4 SFRSYM    DATA     BIT       T2R0
      000000DAH   SFRSYM    DATA     BYTE      PWMEN
      00000086H   SFRSYM    DATA     BYTE      PWCON
      000000C8H.5 SFRSYM    DATA     BIT       T2R1
      000000A7H   SFRSYM    DATA     BYTE      SPSTA
      00000083H   SFRSYM    DATA     BYTE      DP0H
      000000A8H   SFRSYM    DATA     BYTE      IE
      00000085H   SFRSYM    DATA     BYTE      DP1H
      00000082H   SFRSYM    DATA     BYTE      DP0L
      000000CBH   SFRSYM    DATA     BYTE      T2CH
      000000B3H   SFRSYM    DATA     BYTE      I2CADM
      00000084H   SFRSYM    DATA     BYTE      DP1L
      000000C8H.3 SFRSYM    DATA     BIT       T2IE
      000000CAH   SFRSYM    DATA     BYTE      T2CL
      000000B2H   SFRSYM    DATA     BYTE      I2CADR
      000000B8H   SFRSYM    DATA     BYTE      IP
LX51 LINKER/LOCATER V4.66.93.0                                                        04/07/2024  09:15:35  PAGE 56


      000000B7H   SFRSYM    DATA     BYTE      I2CFLG
      000000B5H   SFRSYM    DATA     BYTE      I2CDAT
      000000D0H.7 SFRSYM    DATA     BIT       CY
      000000BBH   SFRSYM    DATA     BYTE      ADCFGH
      000000DCH   SFRSYM    DATA     BYTE      PWMCMAX
      000000B1H   SFRSYM    DATA     BYTE      I2CCON
      000000D1H   SFRSYM    DATA     BYTE      PWMDIVH
      000000BAH   SFRSYM    DATA     BYTE      ADCFGL
      00000081H   SFRSYM    DATA     BYTE      SP
      000000F9H   SFRSYM    DATA     BYTE      EPIE
      000000D0H.2 SFRSYM    DATA     BIT       OV
      000000FAH   SFRSYM    DATA     BYTE      EPIF
      000000DFH   SFRSYM    DATA     BYTE      PWMDIVL
      000000B6H   SFRSYM    DATA     BYTE      I2CSTA
      000000E8H   SFRSYM    DATA     BYTE      EXIE
      000000D3H   SFRSYM    DATA     BYTE      PWMDUTH
      0000008FH   SFRSYM    DATA     BYTE      IT0CON
      00000080H.0 SFRSYM    DATA     BIT       P00
      000000D2H   SFRSYM    DATA     BYTE      PWMDUTL
      0000008EH   SFRSYM    DATA     BYTE      IT1CON
      00000090H.0 SFRSYM    DATA     BIT       P10
      00000080H.1 SFRSYM    DATA     BIT       P01
      0000009DH   SFRSYM    DATA     BYTE      S1RELH
      00000087H   SFRSYM    DATA     BYTE      PCON
      000000A0H.0 SFRSYM    DATA     BIT       P20
      00000090H.1 SFRSYM    DATA     BIT       P11
      00000080H.2 SFRSYM    DATA     BIT       P02
      000000E8H.0 SFRSYM    DATA     BIT       INT2EN
      000000A4H   SFRSYM    DATA     BYTE      S2RELH
      000000B0H.0 SFRSYM    DATA     BIT       P30
      00000090H.2 SFRSYM    DATA     BIT       P12
      00000080H.3 SFRSYM    DATA     BIT       P03
      000000E8H.1 SFRSYM    DATA     BIT       INT3EN
      00000090H.3 SFRSYM    DATA     BIT       P13
      00000080H.4 SFRSYM    DATA     BIT       P04
      000000E8H.2 SFRSYM    DATA     BIT       INT4EN
      00000090H.4 SFRSYM    DATA     BIT       P14
      00000080H.5 SFRSYM    DATA     BIT       P05
      000000E8H.3 SFRSYM    DATA     BIT       INT5EN
      0000009CH   SFRSYM    DATA     BYTE      S1RELL
      00000089H   SFRSYM    DATA     BYTE      TMOD
      00000088H   SFRSYM    DATA     BYTE      TCON
      00000090H.5 SFRSYM    DATA     BIT       P15
      00000080H.6 SFRSYM    DATA     BIT       P06
      000000E8H.4 SFRSYM    DATA     BIT       INT6EN
      000000A3H   SFRSYM    DATA     BYTE      S2RELL
      00000090H.6 SFRSYM    DATA     BIT       P16
      00000080H.7 SFRSYM    DATA     BIT       P07
      000000E8H.5 SFRSYM    DATA     BIT       INT7EN
      000000C8H.2 SFRSYM    DATA     BIT       UCKS
      000000F8H   SFRSYM    DATA     BYTE      EXIP
      00000090H.7 SFRSYM    DATA     BIT       P17
      000000E8H.6 SFRSYM    DATA     BIT       INT8EN
      000000E8H.7 SFRSYM    DATA     BIT       INT9EN
      00000088H.1 SFRSYM    DATA     BIT       IE0
      00000088H.3 SFRSYM    DATA     BIT       IE1
      000000F0H   SFRSYM    DATA     BYTE      B
      000000E7H   SFRSYM    DATA     BYTE      MDUDAT
      000000DEH   SFRSYM    DATA     BYTE      PWMCFG
      000000D4H   SFRSYM    DATA     BYTE      PWMAIF
      000000E0H   SFRSYM    DATA     BYTE      ACC
      000000D5H   SFRSYM    DATA     BYTE      PWMBIF
      000000A8H.4 SFRSYM    DATA     BIT       ES0
      000000EFH   SFRSYM    DATA     BYTE      LVDCON
      000000E6H   SFRSYM    DATA     BYTE      MDUCON
LX51 LINKER/LOCATER V4.66.93.0                                                        04/07/2024  09:15:35  PAGE 57


      000000D6H   SFRSYM    DATA     BYTE      PWMCIF
      000000A8H.1 SFRSYM    DATA     BIT       ET0
      000000A8H.6 SFRSYM    DATA     BIT       ES1
      000000D7H   SFRSYM    DATA     BYTE      PWMDIF
      000000A8H.3 SFRSYM    DATA     BIT       ET1
      00000088H.5 SFRSYM    DATA     BIT       TF0
      000000FDH   SFRSYM    DATA     BYTE      IDLSTH
      000000A8H.5 SFRSYM    DATA     BIT       ET2
      00000088H.7 SFRSYM    DATA     BIT       TF1
      000000C8H.7 SFRSYM    DATA     BIT       TF2
      0000008CH   SFRSYM    DATA     BYTE      TH0
      000000A8H.0 SFRSYM    DATA     BIT       EX0
      00000088H.0 SFRSYM    DATA     BIT       IT0
      0000008DH   SFRSYM    DATA     BYTE      TH1
      000000A8H.2 SFRSYM    DATA     BIT       EX1
      00000088H.2 SFRSYM    DATA     BIT       IT1
      000000FCH   SFRSYM    DATA     BYTE      IDLSTL
      000000CDH   SFRSYM    DATA     BYTE      TH2
      000000D0H.0 SFRSYM    DATA     BIT       P
      0000008AH   SFRSYM    DATA     BYTE      TL0
      0000008BH   SFRSYM    DATA     BYTE      TL1
      000000CCH   SFRSYM    DATA     BYTE      TL2
      000000B8H.4 SFRSYM    DATA     BIT       PS0
      000000B8H.1 SFRSYM    DATA     BIT       PT0
      000000B8H.6 SFRSYM    DATA     BIT       PS1
      000000B4H   SFRSYM    DATA     BYTE      I2CCR
      000000B8H.3 SFRSYM    DATA     BIT       PT1
      000000D0H.3 SFRSYM    DATA     BIT       RS0
      000000BDH   SFRSYM    DATA     BYTE      ADCDH
      000000B8H.5 SFRSYM    DATA     BIT       PT2
      00000088H.4 SFRSYM    DATA     BIT       TR0
      000000D0H.4 SFRSYM    DATA     BIT       RS1
      000000DDH   SFRSYM    DATA     BYTE      PWMCON
      00000088H.6 SFRSYM    DATA     BIT       TR1
      000000ADH   SFRSYM    DATA     BYTE      WDVTHH
      000000C8H.6 SFRSYM    DATA     BIT       TR2
      000000B8H.0 SFRSYM    DATA     BIT       PX0
      000000B8H.2 SFRSYM    DATA     BIT       PX1
      000000BCH   SFRSYM    DATA     BYTE      ADCDL
      000000ACH   SFRSYM    DATA     BYTE      WDVTHL
      000000DBH   SFRSYM    DATA     BYTE      PWMUPD
      0000009BH   SFRSYM    DATA     BYTE      S1BUF
      000000A2H   SFRSYM    DATA     BYTE      S2BUF
      0000009AH   SFRSYM    DATA     BYTE      S1CON
      000000B9H   SFRSYM    DATA     BYTE      ADCON
      000000A1H   SFRSYM    DATA     BYTE      S2CON
      000000D0H.1 SFRSYM    DATA     BIT       DPS
      000000C9H   SFRSYM    DATA     BYTE      T2MOD
      000000C8H   SFRSYM    DATA     BYTE      T2CON
      000000FFH   SFRSYM    DATA     BYTE      STPSTH
      000000FEH   SFRSYM    DATA     BYTE      STPSTL
      000000D0H.5 SFRSYM    DATA     BIT       F0
      000000ABH   SFRSYM    DATA     BYTE      WDFLG
      000000FBH   SFRSYM    DATA     BYTE      EPCON
      000000F7H   SFRSYM    DATA     BYTE      INDEX
      000000D0H   SFRSYM    DATA     BYTE      PSW
      000000AAH   SFRSYM    DATA     BYTE      WDCON
      000000A6H   SFRSYM    DATA     BYTE      SPDAT
      02000379H   SYMBOL    XDATA    DWORD     s_u32OverCurrentStartTime
      0200037DH   SYMBOL    XDATA    BYTE      s_bIsOverCurrent

      01003E1DH   BLOCK     CODE     ---       LVL=0
      ---         BLOCKEND  ---      ---       LVL=0

      01003AA0H   BLOCK     CODE     ---       LVL=0
LX51 LINKER/LOCATER V4.66.93.0                                                        04/07/2024  09:15:35  PAGE 58


      01003AA0H   LINE      CODE     ---       #59
      01003AA0H   LINE      CODE     ---       #60
      01003AA0H   LINE      CODE     ---       #62
      01003AA9H   LINE      CODE     ---       #64
      01003AAFH   LINE      CODE     ---       #65
      01003AB3H   LINE      CODE     ---       #66
      01003AB7H   LINE      CODE     ---       #69
      01003ABDH   LINE      CODE     ---       #70
      01003AC0H   LINE      CODE     ---       #71
      01003AC2H   LINE      CODE     ---       #72
      01003AC4H   LINE      CODE     ---       #73
      01003AC6H   LINE      CODE     ---       #74
      01003AC8H   LINE      CODE     ---       #76
      01003ACDH   LINE      CODE     ---       #77
      ---         BLOCKEND  ---      ---       LVL=0

      010038A8H   BLOCK     CODE     ---       LVL=0
      010038A8H   LINE      CODE     ---       #79
      010038A8H   LINE      CODE     ---       #80
      010038A8H   LINE      CODE     ---       #81
      010038B0H   LINE      CODE     ---       #82
      010038B0H   LINE      CODE     ---       #83
      010038DAH   LINE      CODE     ---       #84
      010038DAH   LINE      CODE     ---       #85
      010038DFH   LINE      CODE     ---       #87
      010038E3H   LINE      CODE     ---       #88
      010038E3H   LINE      CODE     ---       #89
      010038E3H   LINE      CODE     ---       #90
      ---         BLOCKEND  ---      ---       LVL=0

      0100376CH   BLOCK     CODE     ---       LVL=0
      0100376CH   LINE      CODE     ---       #92
      01003783H   LINE      CODE     ---       #94
      01003789H   LINE      CODE     ---       #96
      0100378FH   LINE      CODE     ---       #97
      01003799H   LINE      CODE     ---       #98
      ---         BLOCKEND  ---      ---       LVL=0

      ---         MODULE    ---      ---       GLH_APP_PROCESS
      020001F3H   PUBLIC    XDATA    ---       RemoterDataTemp
      01003F8FH   PUBLIC    CONST    ---       au8ChannelTable
      01002F1FH   PUBLIC    CODE     ---       _DataDecryptionProcessing
      01003D38H   PUBLIC    CODE     ---       _MyCrol
      010036E2H   PUBLIC    CODE     ---       GLHAPS_MainThread
      0100000EH   PUBLIC    CODE     ---       GLHAPS_Init
      010021D5H   PUBLIC    CODE     ---       ModeComepleteSyncSend
      0200000DH   SYMBOL    XDATA    BYTE      s_u8PairFlashFlag
      0100353CH   SYMBOL    CODE     ---       iResetScConfig
      0200000EH   SYMBOL    XDATA    ---       s_au8Rf24gRecBuff
      0200004EH   SYMBOL    XDATA    BYTE      s_bIsRgbControledByPair
      0200004FH   SYMBOL    XDATA    ---       s_PreScConfig
      01003A6EH   SYMBOL    CODE     ---       iInitScConfig
      01002A16H   SYMBOL    CODE     ---       _iRgbflash
      01002BD8H   SYMBOL    CODE     ---       iRf24gReceiveMainThread
      020000FFH   SYMBOL    XDATA    BYTE      s_bApsIsOverCurrent
      01000BD8H   SYMBOL    CODE     ---       _iRf24gRemoterDataHandle
      02000100H   SYMBOL    XDATA    BYTE      s_u8PairFlashCnt
      02000101H   SYMBOL    XDATA    DWORD     s_u32TimingTime
      02000105H   SYMBOL    XDATA    BYTE      ModeKeyFlag
      01003472H   SYMBOL    CODE     ---       _iExcuteScence
      010027D1H   SYMBOL    CODE     ---       _iSetTimingPowerOff
      02000106H   SYMBOL    XDATA    BYTE      s_u8PackNum
      02000107H   SYMBOL    XDATA    ---       s_au8TxBuff
      02000121H   SYMBOL    XDATA    BYTE      s_bOverCurrentFlag
      01001DF6H   SYMBOL    CODE     ---       _iSlectScence
LX51 LINKER/LOCATER V4.66.93.0                                                        04/07/2024  09:15:35  PAGE 59


      02000122H   SYMBOL    XDATA    BYTE      s_u8Channel
      02000123H   SYMBOL    XDATA    DWORD     s_u32TimingStartTime
      02000127H   SYMBOL    XDATA    BYTE      s_bPairFlag
      02000128H   SYMBOL    XDATA    DWORD     s_u32PairFlashTime
      01003F92H   SYMBOL    CONST    ---       _?ix1000
      01003FA2H   SYMBOL    CONST    ---       _?ix1001
      0100395BH   SYMBOL    CODE     ---       _iBnSet
      0100382CH   SYMBOL    CODE     ---       iRefreshAsConfig
      0200012CH   SYMBOL    XDATA    BYTE      s_bTimingPowerOffFlag
      01003E4BH   SYMBOL    CODE     ---       iTimingPowerOffCancel
      0100268EH   SYMBOL    CODE     ---       _iSaveScence
      0200012DH   SYMBOL    XDATA    ---       s_sScConfig
      020001DDH   SYMBOL    XDATA    DWORD     s_u32OverCurrentStartTime
      020001E1H   SYMBOL    XDATA    BYTE      s_eModeAuto
      01003E76H   SYMBOL    CODE     ---       iRf24gChannelChangeMainThread
      01001B94H   SYMBOL    CODE     ---       _iRf24gSyncDataHandle
      020001E2H   SYMBOL    XDATA    DWORD     s_u32LastModeTime
      020001E6H   SYMBOL    XDATA    DWORD     s_u32LastChannelChangeTime
      01003C04H   SYMBOL    CODE     ---       iTimingPowerOffMainThread
      01003698H   SYMBOL    CODE     ---       iSaveScConfigMainThread
      020001EAH   SYMBOL    XDATA    BYTE      u8Rf24gRecLen
      020001EBH   SYMBOL    XDATA    DWORD     s_u32SteplessBrightnessAdjustmentStartTime
      020001EFH   SYMBOL    XDATA    DWORD     s_u32LastSyncTime

      01001847H   BLOCK     CODE     ---       LVL=0
      ---         BLOCKEND  ---      ---       LVL=0

      010021D5H   BLOCK     CODE     ---       LVL=0
      010021D5H   BLOCK     CODE     NEAR LAB  LVL=1
      0200035DH   SYMBOL    XDATA    BYTE      i
      ---         BLOCKEND  ---      ---       LVL=1
      010021D5H   LINE      CODE     ---       #241
      010021D5H   LINE      CODE     ---       #242
      010021D5H   LINE      CODE     ---       #243
      010021DAH   LINE      CODE     ---       #245
      010021E3H   LINE      CODE     ---       #246
      010021E3H   LINE      CODE     ---       #248
      010021E3H   LINE      CODE     ---       #250
      010021F6H   LINE      CODE     ---       #251
      010021F6H   LINE      CODE     ---       #253
      010021F6H   LINE      CODE     ---       #255
      0100220EH   LINE      CODE     ---       #256
      0100220EH   LINE      CODE     ---       #258
      0100220EH   LINE      CODE     ---       #260
      01002214H   LINE      CODE     ---       #262
      01002218H   LINE      CODE     ---       #263
      01002228H   LINE      CODE     ---       #264
      01002238H   LINE      CODE     ---       #265
