C51 COMPILER V9.59.0.0   GLH_PWM                                                           04/07/2024 09:15:35 PAGE 1   


C51 COMPILER V9.59.0.0, COMPILATION OF MODULE GLH_PWM
OBJECT MODULE PLACED IN .\output\glh_pwm.obj
COMPILER INVOKED BY: D:\Keil_MDK\C51\BIN\C51.EXE GLH\platform\glh_pwm.c LARGE OMF2 OPTIMIZE(9,SPEED) BROWSE INCDIR(.\GLH
                    -\include;.\GLH\app;.\GLH\mmcp;.\GLH\platform;.\include) DEBUG PRINT(.\lst\glh_pwm.lst) OBJECT(.\output\glh_pwm.obj)

line level    source

   1          /*
   2          * Copyright (c) 2016, 深圳市光丽海科技有限公司
   3          * All rights reserved.
   4          *
   5          * 文件名称：jt_pwm.h
   6          * 文件标识：
   7          * 摘 要：
   8          *     通过定时器产生pwm
   9          * 当前版本：V1.0
  10          * 作 者： raoxiongjian
  11          * 完成日期：2021年6月16日
  12          */
  13          #include "glh_pwm.h"
  14          #include "include/ca51f003_config.h"            
  15          #include "include/ca51f003sfr.h"
  16          #include "include/ca51f003xsfr.h"
  17          #include "include/gpiodef_f003.h"
  18          #include "include/system_clock.h"
  19          
  20          #define PWMDIV_V                                (FOSC/3000)                                     //当PWM时钟为其他时钟频率时，需相应修改参数
  21          #define PWMDUT_V                                (PWMDIV_V)                                              //占空比为50%
  22          #define PWM_FREQUENCY_DIV       0
  23          
  24          #ifdef SUPPORT_PWM
  25          extern void Uart0_PutChar(unsigned char bdat);
  26          extern unsigned char temp;
  27          void GLHPWM_Init(uint8 u8Ch)
  28          {
  29   1              CKCON |= IHCKE;                                 //打开IRCH时钟
  30   1              
  31   1          if(u8Ch & E_PWM_CH0)
  32   1          {
  33   2                      INDEX = PWM_CH0;                                                                                                      //设置INDEX值对应PWM0
  34   2                      PWMCON = TIE(0) | ZIE(0) | PIE(0) | NIE(0) | MS(0) | CKS_IH ;             //设置PWM时钟源为IRCH  
  35   2      
  36   2                      PWMCFG = TOG(0) | PWM_FREQUENCY_DIV;        //时钟3分频                 
  37   2                      PWMPS = PWM_P11_INDEX;                                                            //设置P01为PWM0输出引脚
  38   2                      P11F  = PWM_SETTING;    
  39   2              
  40   2                      //设置PWMDIV、PWMDUT
  41   2                      PWMDIVH = (unsigned char)(PWMDIV_V>>8);                 
  42   2                      PWMDIVL = (unsigned char)(PWMDIV_V);                    
  43   2                      PWMDUTH = 0;            
  44   2                      PWMDUTL = 0;    
  45   2      
  46   2                      PWMUPD = (1<<PWM_CH0);                                                                               //PWMDIV、PWMDUT更新使能
  47   2                      while(PWMUPD);                                                                                                       //等待更新完成
  48   2                      PWMEN |= (1<<PWM_CH0);                                                                                   //PWM0使能
  49   2              }
  50   1              
  51   1          if(u8Ch & E_PWM_CH1)
  52   1          {
  53   2                      INDEX = PWM_CH0;                                                                                                     //设置INDEX值对应PWM0
  54   2                      PWMCON = TIE(0) | ZIE(0) | PIE(0) | NIE(0) | MS(0) | CKS_IH ;            //设置PWM时钟源为IRCH  
C51 COMPILER V9.59.0.0   GLH_PWM                                                           04/07/2024 09:15:35 PAGE 2   

  55   2      
  56   2                      INDEX = PWM_CH1;
  57   2                      PWMCFG = TOG(0) | PWM_FREQUENCY_DIV;        //时钟3分频                         
  58   2                      PWMPS = PWM_P10_INDEX;                                                           //设置P05为PWM1输出引脚
  59   2                      P10F  = PWM_SETTING;    
  60   2              
  61   2                      //设置PWMDIV、PWMDUT
  62   2                      PWMDIVH = (unsigned char)(PWMDIV_V>>8);                 
  63   2                      PWMDIVL = (unsigned char)(PWMDIV_V);                    
  64   2                      PWMDUTH = 0;            
  65   2                      PWMDUTL = 0;    
  66   2      
  67   2                      PWMUPD = (1<<PWM_CH1);                                                                                //PWMDIV、PWMDUT更新使能
  68   2                      while(PWMUPD);                                                                                                        //等待更新完成
  69   2                      PWMEN |= (1<<PWM_CH1);                                                                                    //PWM0使能
  70   2              }
  71   1      
  72   1          if(u8Ch & E_PWM_CH2)
  73   1          {
  74   2                      INDEX = PWM_CH2;                                                                                                      //设置INDEX值对应PWM2
  75   2                      PWMCON = TIE(0) | ZIE(0) | PIE(0) | NIE(0) | MS(0) | CKS_IH ;             //设置PWM时钟源为IRCH  
  76   2      
  77   2                      PWMCFG = TOG(0) | PWM_FREQUENCY_DIV;        //时钟3分频                         
  78   2                      PWMPS = PWM_P00_INDEX;                                                            //设置P03为PWM0输出引脚
  79   2                      P00F  = PWM_SETTING;    
  80   2              
  81   2                      //设置PWMDIV、PWMDUT
  82   2                      PWMDIVH = (unsigned char)(PWMDIV_V>>8);                 
  83   2                      PWMDIVL = (unsigned char)(PWMDIV_V);                    
  84   2                      PWMDUTH = 0;            
  85   2                      PWMDUTL = 0;    
  86   2      
  87   2                      PWMUPD = (1<<PWM_CH2);                                                                               //PWMDIV、PWMDUT更新使能
  88   2                      while(PWMUPD);                                                                                                       //等待更新完成
  89   2                      PWMEN |= (1<<PWM_CH2);                                                                                   //PWM2使能
  90   2              }
  91   1              
  92   1          if(u8Ch & E_PWM_CH3)
  93   1          {
  94   2                      INDEX = PWM_CH2;                                                                                                     //设置INDEX值对应PWM0
  95   2                      PWMCON = TIE(0) | ZIE(0) | PIE(0) | NIE(0) | MS(0) | CKS_IH ;            //设置PWM时钟源为IRCH  
  96   2      
  97   2                      INDEX = PWM_CH3;                
  98   2                      PWMCFG = TOG(0) | PWM_FREQUENCY_DIV;        //时钟3分频                         
  99   2                      PWMPS = PWM_P01_INDEX;                                                           //设置P00为PWM0输出引脚
 100   2                      P01F  = PWM_SETTING;    
 101   2              
 102   2                      //设置PWMDIV、PWMDUT
 103   2                      PWMDIVH = (unsigned char)(PWMDIV_V>>8);                 
 104   2                      PWMDIVL = (unsigned char)(PWMDIV_V);                    
 105   2                      PWMDUTH = 0;            
 106   2                      PWMDUTL = 0;    
 107   2      
 108   2                      PWMUPD = (1<<PWM_CH3);                                                                               //PWMDIV、PWMDUT更新使能
 109   2                      while(PWMUPD);                                                                                               //等待更新完成
 110   2                      PWMEN |= (1<<PWM_CH3);                                                                                   //PWM0使能
 111   2              }
 112   1      }
 113          
 114          void GLHPWM_Set(GLHPWM_CHANNEL_E eCh, uint32 u32Duty)
 115          {
 116   1              if(eCh & E_PWM_CH0)
C51 COMPILER V9.59.0.0   GLH_PWM                                                           04/07/2024 09:15:35 PAGE 3   

 117   1          {
 118   2             INDEX = PWM_CH0;
 119   2              }
 120   1              else if(eCh & E_PWM_CH1)
 121   1          {
 122   2                      INDEX = PWM_CH1;
 123   2              }
 124   1              else if(eCh & E_PWM_CH2)
 125   1          {
 126   2                      INDEX = PWM_CH2;
 127   2              }
 128   1              else if(eCh & E_PWM_CH3)
 129   1          {
 130   2             INDEX = PWM_CH3;
 131   2              }
 132   1              else if(eCh & E_PWM_CH4)
 133   1          {
 134   2                      INDEX = PWM_CH4;
 135   2              }
 136   1              else if(eCh & E_PWM_CH5)
 137   1          {
 138   2                      INDEX = PWM_CH5;
 139   2              }
 140   1              
 141   1              PWMDUTH =       (unsigned char)(((float)u32Duty * 1.0 / GLHPWM_MAX * PWMDUT_V) / 256);          
 142   1              PWMDUTL = (unsigned char)(((float)u32Duty * 1.0 / GLHPWM_MAX * PWMDUT_V));      
 143   1      
 144   1              PWMUPD = (1<<INDEX);                                                                    //PWMDIV、PWMDUT更新使能
 145   1              if(eCh & E_PWM_CH0)
 146   1          {
 147   2             PWMUPD = (1<<PWM_CH0);
 148   2              }
 149   1              else if(eCh & E_PWM_CH1)
 150   1          {
 151   2                      PWMUPD = (1<<PWM_CH1);
 152   2              }
 153   1              else if(eCh & E_PWM_CH2)
 154   1          {
 155   2                      PWMUPD = (1<<PWM_CH2);
 156   2              }
 157   1              else if(eCh & E_PWM_CH3)
 158   1          {
 159   2             PWMUPD = (1<<PWM_CH3);
 160   2              }
 161   1              else if(eCh & E_PWM_CH4)
 162   1          {
 163   2                      PWMUPD = (1<<PWM_CH4);
 164   2              }
 165   1              else if(eCh & E_PWM_CH5)
 166   1          {
 167   2                      PWMUPD = (1<<PWM_CH5);
 168   2              }
 169   1      //      while(PWMUPD);                                                                                                  //等待更新完成                  
 170   1      }
 171          #endif


MODULE INFORMATION:   STATIC OVERLAYABLE
   CODE SIZE        =    358    ----
   CONSTANT SIZE    =   ----    ----
   XDATA SIZE       =   ----       5
   PDATA SIZE       =   ----    ----
C51 COMPILER V9.59.0.0   GLH_PWM                                                           04/07/2024 09:15:35 PAGE 4   

   DATA SIZE        =   ----    ----
   IDATA SIZE       =   ----    ----
   BIT SIZE         =   ----    ----
   EDATA SIZE       =   ----    ----
   HDATA SIZE       =   ----    ----
   XDATA CONST SIZE =   ----    ----
   FAR CONST SIZE   =   ----    ----
END OF MODULE INFORMATION.


C51 COMPILATION COMPLETE.  0 WARNING(S),  0 ERROR(S)
